{
  "contractName": "CountTransferManager",
  "abi": [
    {
      "constant": true,
      "inputs": [],
      "name": "ADMIN",
      "outputs": [
        {
          "name": "",
          "type": "bytes32"
        }
      ],
      "payable": false,
      "stateMutability": "view",
      "type": "function"
    },
    {
      "constant": false,
      "inputs": [],
      "name": "unpause",
      "outputs": [],
      "payable": false,
      "stateMutability": "nonpayable",
      "type": "function"
    },
    {
      "constant": true,
      "inputs": [],
      "name": "paused",
      "outputs": [
        {
          "name": "",
          "type": "bool"
        }
      ],
      "payable": false,
      "stateMutability": "view",
      "type": "function"
    },
    {
      "constant": false,
      "inputs": [
        {
          "name": "_amount",
          "type": "uint256"
        }
      ],
      "name": "takeFee",
      "outputs": [
        {
          "name": "",
          "type": "bool"
        }
      ],
      "payable": false,
      "stateMutability": "nonpayable",
      "type": "function"
    },
    {
      "constant": true,
      "inputs": [],
      "name": "polyToken",
      "outputs": [
        {
          "name": "",
          "type": "address"
        }
      ],
      "payable": false,
      "stateMutability": "view",
      "type": "function"
    },
    {
      "constant": false,
      "inputs": [],
      "name": "pause",
      "outputs": [],
      "payable": false,
      "stateMutability": "nonpayable",
      "type": "function"
    },
    {
      "constant": true,
      "inputs": [],
      "name": "maxHolderCount",
      "outputs": [
        {
          "name": "",
          "type": "uint256"
        }
      ],
      "payable": false,
      "stateMutability": "view",
      "type": "function"
    },
    {
      "constant": true,
      "inputs": [],
      "name": "securityToken",
      "outputs": [
        {
          "name": "",
          "type": "address"
        }
      ],
      "payable": false,
      "stateMutability": "view",
      "type": "function"
    },
    {
      "constant": true,
      "inputs": [],
      "name": "factory",
      "outputs": [
        {
          "name": "",
          "type": "address"
        }
      ],
      "payable": false,
      "stateMutability": "view",
      "type": "function"
    },
    {
      "constant": true,
      "inputs": [],
      "name": "FEE_ADMIN",
      "outputs": [
        {
          "name": "",
          "type": "bytes32"
        }
      ],
      "payable": false,
      "stateMutability": "view",
      "type": "function"
    },
    {
      "inputs": [
        {
          "name": "_securityToken",
          "type": "address"
        },
        {
          "name": "_polyAddress",
          "type": "address"
        }
      ],
      "payable": false,
      "stateMutability": "nonpayable",
      "type": "constructor"
    },
    {
      "anonymous": false,
      "inputs": [
        {
          "indexed": false,
          "name": "_oldHolderCount",
          "type": "uint256"
        },
        {
          "indexed": false,
          "name": "_newHolderCount",
          "type": "uint256"
        }
      ],
      "name": "LogModifyHolderCount",
      "type": "event"
    },
    {
      "anonymous": false,
      "inputs": [
        {
          "indexed": false,
          "name": "_timestammp",
          "type": "uint256"
        }
      ],
      "name": "Pause",
      "type": "event"
    },
    {
      "anonymous": false,
      "inputs": [
        {
          "indexed": false,
          "name": "_timestamp",
          "type": "uint256"
        }
      ],
      "name": "Unpause",
      "type": "event"
    },
    {
      "constant": false,
      "inputs": [
        {
          "name": "",
          "type": "address"
        },
        {
          "name": "_to",
          "type": "address"
        },
        {
          "name": "",
          "type": "uint256"
        },
        {
          "name": "",
          "type": "bool"
        }
      ],
      "name": "verifyTransfer",
      "outputs": [
        {
          "name": "",
          "type": "uint8"
        }
      ],
      "payable": false,
      "stateMutability": "nonpayable",
      "type": "function"
    },
    {
      "constant": false,
      "inputs": [
        {
          "name": "_maxHolderCount",
          "type": "uint256"
        }
      ],
      "name": "configure",
      "outputs": [],
      "payable": false,
      "stateMutability": "nonpayable",
      "type": "function"
    },
    {
      "constant": false,
      "inputs": [],
      "name": "getInitFunction",
      "outputs": [
        {
          "name": "",
          "type": "bytes4"
        }
      ],
      "payable": false,
      "stateMutability": "nonpayable",
      "type": "function"
    },
    {
      "constant": false,
      "inputs": [
        {
          "name": "_maxHolderCount",
          "type": "uint256"
        }
      ],
      "name": "changeHolderCount",
      "outputs": [],
      "payable": false,
      "stateMutability": "nonpayable",
      "type": "function"
    },
    {
      "constant": true,
      "inputs": [],
      "name": "getPermissions",
      "outputs": [
        {
          "name": "",
          "type": "bytes32[]"
        }
      ],
      "payable": false,
      "stateMutability": "view",
      "type": "function"
    }
  ],
  "bytecode": "0x60806040527f4645455f41444d494e00000000000000000000000000000000000000000000006002556003805460a060020a60ff021916905534801561004457600080fd5b50604051604080610e6983398101604052805160209091015160018054600160a060020a03938416600160a060020a0319918216179091556000805482163317905560038054939092169216919091179055610dc4806100a56000396000f3006080604052600436106100c15763ffffffff60e060020a6000350416631613ec9d81146100c65780631eb25e0a146101105780632a0acc6a1461012a5780633f4ba83a146101515780635c975abb146101665780635f7619a41461018f5780636faa22a5146101a75780637915c9e0146101d85780638456cb591461022b578063ae89a29e14610240578063b84dfbd214610255578063c3a07df61461026a578063c45a0155146102cf578063d70afa96146102e4578063ec8cae23146102f9575b600080fd5b3480156100d257600080fd5b506100db610311565b604080517fffffffff000000000000000000000000000000000000000000000000000000009092168252519081900360200190f35b34801561011c57600080fd5b50610128600435610346565b005b34801561013657600080fd5b5061013f6103ad565b60408051918252519081900360200190f35b34801561015d57600080fd5b506101286103d1565b34801561017257600080fd5b5061017b6104b9565b604080519115158252519081900360200190f35b34801561019b57600080fd5b5061017b6004356104c9565b3480156101b357600080fd5b506101bc6107ea565b60408051600160a060020a039092168252519081900360200190f35b3480156101e457600080fd5b50610207600160a060020a036004358116906024351660443560643515156107f9565b6040518082600381111561021757fe5b60ff16815260200191505060405180910390f35b34801561023757600080fd5b50610128610944565b34801561024c57600080fd5b5061013f610a2a565b34801561026157600080fd5b506101bc610a30565b34801561027657600080fd5b5061027f610a3f565b60408051602080825283518183015283519192839290830191858101910280838360005b838110156102bb5781810151838201526020016102a3565b505050509050019250505060405180910390f35b3480156102db57600080fd5b506101bc610aa3565b3480156102f057600080fd5b5061013f610ab2565b34801561030557600080fd5b50610128600435610ab8565b604080517f636f6e6669677572652875696e743235362900000000000000000000000000008152905190819003601201902090565b600054600160a060020a031633146103a8576040805160e560020a62461bcd02815260206004820152601560248201527f53656e646572206973206e6f7420666163746f72790000000000000000000000604482015290519081900360640190fd5b600455565b7f41444d494e00000000000000000000000000000000000000000000000000000081565b600160009054906101000a9004600160a060020a0316600160a060020a0316638da5cb5b6040518163ffffffff1660e060020a028152600401602060405180830381600087803b15801561042457600080fd5b505af1158015610438573d6000803e3d6000fd5b505050506040513d602081101561044e57600080fd5b5051600160a060020a031633146104af576040805160e560020a62461bcd02815260206004820152601360248201527f53656e646572206973206e6f74206f776e657200000000000000000000000000604482015290519081900360640190fd5b6104b7610cbd565b565b60035460a060020a900460ff1681565b6000600254600080600160009054906101000a9004600160a060020a0316600160a060020a0316638da5cb5b6040518163ffffffff1660e060020a028152600401602060405180830381600087803b15801561052457600080fd5b505af1158015610538573d6000803e3d6000fd5b505050506040513d602081101561054e57600080fd5b505160005433600160a060020a0392831681149450911614905081806105715750805b806106175750600154604080517f8658b8b9000000000000000000000000000000000000000000000000000000008152336004820152306024820152604481018690529051600160a060020a0390921691638658b8b9916064808201926020929091908290030181600087803b1580156105ea57600080fd5b505af11580156105fe573d6000803e3d6000fd5b505050506040513d602081101561061457600080fd5b50515b151561066d576040805160e560020a62461bcd02815260206004820152601760248201527f5065726d697373696f6e20636865636b206661696c6564000000000000000000604482015290519081900360640190fd5b60035460008054604080517f8da5cb5b0000000000000000000000000000000000000000000000000000000081529051600160a060020a03948516946323b872dd94309490911692638da5cb5b9260048083019360209383900390910190829087803b1580156106dc57600080fd5b505af11580156106f0573d6000803e3d6000fd5b505050506040513d602081101561070657600080fd5b50516040805160e060020a63ffffffff8616028152600160a060020a039384166004820152929091166024830152604482018990525160648083019260209291908290030181600087803b15801561075d57600080fd5b505af1158015610771573d6000803e3d6000fd5b505050506040513d602081101561078757600080fd5b505115156107df576040805160e560020a62461bcd02815260206004820152601260248201527f556e61626c6520746f2074616b65206665650000000000000000000000000000604482015290519081900360640190fd5b506001949350505050565b600354600160a060020a031681565b60035460009060a060020a900460ff1615156107df57600160009054906101000a9004600160a060020a0316600160a060020a031663d7e64c006040518163ffffffff1660e060020a028152600401602060405180830381600087803b15801561086257600080fd5b505af1158015610876573d6000803e3d6000fd5b505050506040513d602081101561088c57600080fd5b505160045410156107df57600154604080517f70a08231000000000000000000000000000000000000000000000000000000008152600160a060020a038781166004830152915191909216916370a082319160248083019260209291908290030181600087803b1580156108ff57600080fd5b505af1158015610913573d6000803e3d6000fd5b505050506040513d602081101561092957600080fd5b5051156109385750600161093c565b5060005b949350505050565b600160009054906101000a9004600160a060020a0316600160a060020a0316638da5cb5b6040518163ffffffff1660e060020a028152600401602060405180830381600087803b15801561099757600080fd5b505af11580156109ab573d6000803e3d6000fd5b505050506040513d60208110156109c157600080fd5b5051600160a060020a03163314610a22576040805160e560020a62461bcd02815260206004820152601360248201527f53656e646572206973206e6f74206f776e657200000000000000000000000000604482015290519081900360640190fd5b6104b7610d28565b60045481565b600154600160a060020a031681565b604080516001808252818301909252606091829190602080830190803883390190505090507f41444d494e000000000000000000000000000000000000000000000000000000816000815181101515610a9457fe5b60209081029091010152905090565b600054600160a060020a031681565b60025481565b7f41444d494e000000000000000000000000000000000000000000000000000000600080600160009054906101000a9004600160a060020a0316600160a060020a0316638da5cb5b6040518163ffffffff1660e060020a028152600401602060405180830381600087803b158015610b2f57600080fd5b505af1158015610b43573d6000803e3d6000fd5b505050506040513d6020811015610b5957600080fd5b505160005433600160a060020a039283168114945091161490508180610b7c5750805b80610c225750600154604080517f8658b8b9000000000000000000000000000000000000000000000000000000008152336004820152306024820152604481018690529051600160a060020a0390921691638658b8b9916064808201926020929091908290030181600087803b158015610bf557600080fd5b505af1158015610c09573d6000803e3d6000fd5b505050506040513d6020811015610c1f57600080fd5b50515b1515610c78576040805160e560020a62461bcd02815260206004820152601760248201527f5065726d697373696f6e20636865636b206661696c6564000000000000000000604482015290519081900360640190fd5b600454604080519182526020820186905280517f452eda26db39d49c3cb52e776f82f30611e06f6be9700ce6259869554d4c63a59281900390910190a1505050600455565b60035460a060020a900460ff161515610cd557600080fd5b6003805474ff0000000000000000000000000000000000000000191690556040805142815290517faaa520fdd7d2c83061d632fa017b0432407e798818af63ea908589fceda39ab79181900360200190a1565b60035460a060020a900460ff1615610d3f57600080fd5b6003805474ff0000000000000000000000000000000000000000191660a060020a1790556040805142815290517f68b095021b1f40fe513109f513c66692f0b3219aee674a69f4efc57badb8201d9181900360200190a15600a165627a7a723058207079a2fcc3d351e2288f74b03737db050b878a0be9dec9e89e76bdbb83a3bfbd0029",
  "source": "pragma solidity ^0.4.24;\n\nimport \"./ITransferManager.sol\";\n\n/////////////////////\n// Module permissions\n/////////////////////\n//                           Owner       ADMIN\n// changeHolderCount           X           X\n\n\n/**\n * @title Transfer Manager for limiting maximum number of token holders\n */\ncontract CountTransferManager is ITransferManager {\n\n    // The maximum number of concurrent token holders\n    uint256 public maxHolderCount;\n\n    bytes32 public constant ADMIN = \"ADMIN\";\n\n    event LogModifyHolderCount(uint256 _oldHolderCount, uint256 _newHolderCount);\n\n    /**\n     * @notice Constructor\n     * @param _securityToken Address of the security token\n     * @param _polyAddress Address of the polytoken\n     */\n    constructor (address _securityToken, address _polyAddress)\n    public\n    IModule(_securityToken, _polyAddress)\n    {\n    }\n\n    /// @notice Used to verify the transfer transaction according to the rule implemented in the trnasfer managers\n    function verifyTransfer(address /* _from */, address _to, uint256 /* _amount */, bool /* _isTransfer */) public returns(Result) {\n        if (!paused) {\n            if (maxHolderCount < ISecurityToken(securityToken).investorCount()) {\n                // Allow transfers to existing maxHolders\n                if (ISecurityToken(securityToken).balanceOf(_to) != 0) {\n                    return Result.NA;\n                }\n                return Result.INVALID;\n            }\n            return Result.NA;\n        }\n        return Result.NA;\n    }\n\n    /**\n     * @notice Used to intialize the variables of the contract\n     * @param _maxHolderCount Maximum no. of holders for the securityToken\n     */\n    function configure(uint256 _maxHolderCount) public onlyFactory {\n        maxHolderCount = _maxHolderCount;\n    }\n\n    /**\n     * @notice This function returns the signature of configure function\n     */\n    function getInitFunction() public returns(bytes4) {\n        return bytes4(keccak256(\"configure(uint256)\"));\n    }\n\n    /**\n    * @notice sets the maximum percentage that an individual token holder can hold\n    * @param _maxHolderCount is the new maximum amount a holder can hold\n    */\n    function changeHolderCount(uint256 _maxHolderCount) public withPerm(ADMIN) {\n        emit LogModifyHolderCount(maxHolderCount, _maxHolderCount);\n        maxHolderCount = _maxHolderCount;\n    }\n\n    /**\n     * @notice Return the permissions flag that are associated with CountTransferManager\n     */\n    function getPermissions() public view returns(bytes32[]) {\n        bytes32[] memory allPermissions = new bytes32[](1);\n        allPermissions[0] = ADMIN;\n        return allPermissions;\n    }\n\n}\n",
  "sourcePath": "/Users/Yihan/st/contracts/modules/TransferManager/CountTransferManager.sol",
  "compiler": {
    "name": "solc",
    "version": "0.4.24+commit.e67f0147.Emscripten.clang"
  },
  "schemaVersion": "2.0.0",
  "updatedAt": "2018-07-09T19:15:50.937Z"
}