{
  "contractName": "ERC20DividendCheckpoint",
  "abi": [
    {
      "constant": false,
      "inputs": [
        {
          "name": "_amount",
          "type": "uint256"
        }
      ],
      "name": "takeFee",
      "outputs": [
        {
          "name": "",
          "type": "bool"
        }
      ],
      "payable": false,
      "stateMutability": "nonpayable",
      "type": "function"
    },
    {
      "constant": true,
      "inputs": [],
      "name": "polyToken",
      "outputs": [
        {
          "name": "",
          "type": "address"
        }
      ],
      "payable": false,
      "stateMutability": "view",
      "type": "function"
    },
    {
      "constant": true,
      "inputs": [],
      "name": "DISTRIBUTE",
      "outputs": [
        {
          "name": "",
          "type": "bytes32"
        }
      ],
      "payable": false,
      "stateMutability": "view",
      "type": "function"
    },
    {
      "constant": true,
      "inputs": [
        {
          "name": "",
          "type": "uint256"
        }
      ],
      "name": "dividends",
      "outputs": [
        {
          "name": "checkpointId",
          "type": "uint256"
        },
        {
          "name": "created",
          "type": "uint256"
        },
        {
          "name": "maturity",
          "type": "uint256"
        },
        {
          "name": "expiry",
          "type": "uint256"
        },
        {
          "name": "token",
          "type": "address"
        },
        {
          "name": "amount",
          "type": "uint256"
        },
        {
          "name": "claimedAmount",
          "type": "uint256"
        },
        {
          "name": "totalSupply",
          "type": "uint256"
        },
        {
          "name": "reclaimed",
          "type": "bool"
        }
      ],
      "payable": false,
      "stateMutability": "view",
      "type": "function"
    },
    {
      "constant": true,
      "inputs": [],
      "name": "securityToken",
      "outputs": [
        {
          "name": "",
          "type": "address"
        }
      ],
      "payable": false,
      "stateMutability": "view",
      "type": "function"
    },
    {
      "constant": true,
      "inputs": [],
      "name": "factory",
      "outputs": [
        {
          "name": "",
          "type": "address"
        }
      ],
      "payable": false,
      "stateMutability": "view",
      "type": "function"
    },
    {
      "constant": true,
      "inputs": [],
      "name": "FEE_ADMIN",
      "outputs": [
        {
          "name": "",
          "type": "bytes32"
        }
      ],
      "payable": false,
      "stateMutability": "view",
      "type": "function"
    },
    {
      "inputs": [
        {
          "name": "_securityToken",
          "type": "address"
        },
        {
          "name": "_polyAddress",
          "type": "address"
        }
      ],
      "payable": false,
      "stateMutability": "nonpayable",
      "type": "constructor"
    },
    {
      "anonymous": false,
      "inputs": [
        {
          "indexed": true,
          "name": "_depositor",
          "type": "address"
        },
        {
          "indexed": false,
          "name": "_checkpointId",
          "type": "uint256"
        },
        {
          "indexed": false,
          "name": "_created",
          "type": "uint256"
        },
        {
          "indexed": false,
          "name": "_maturity",
          "type": "uint256"
        },
        {
          "indexed": false,
          "name": "_expiry",
          "type": "uint256"
        },
        {
          "indexed": false,
          "name": "_token",
          "type": "address"
        },
        {
          "indexed": false,
          "name": "_amount",
          "type": "uint256"
        },
        {
          "indexed": false,
          "name": "_totalSupply",
          "type": "uint256"
        },
        {
          "indexed": false,
          "name": "_dividendIndex",
          "type": "uint256"
        }
      ],
      "name": "ERC20DividendDeposited",
      "type": "event"
    },
    {
      "anonymous": false,
      "inputs": [
        {
          "indexed": true,
          "name": "_payee",
          "type": "address"
        },
        {
          "indexed": false,
          "name": "_dividendIndex",
          "type": "uint256"
        },
        {
          "indexed": false,
          "name": "_token",
          "type": "address"
        },
        {
          "indexed": false,
          "name": "_amount",
          "type": "uint256"
        }
      ],
      "name": "ERC20DividendClaimed",
      "type": "event"
    },
    {
      "anonymous": false,
      "inputs": [
        {
          "indexed": true,
          "name": "_claimer",
          "type": "address"
        },
        {
          "indexed": false,
          "name": "_dividendIndex",
          "type": "uint256"
        },
        {
          "indexed": false,
          "name": "_token",
          "type": "address"
        },
        {
          "indexed": false,
          "name": "_claimedAmount",
          "type": "uint256"
        }
      ],
      "name": "ERC20DividendReclaimed",
      "type": "event"
    },
    {
      "constant": false,
      "inputs": [],
      "name": "getInitFunction",
      "outputs": [
        {
          "name": "",
          "type": "bytes4"
        }
      ],
      "payable": false,
      "stateMutability": "nonpayable",
      "type": "function"
    },
    {
      "constant": false,
      "inputs": [
        {
          "name": "_maturity",
          "type": "uint256"
        },
        {
          "name": "_expiry",
          "type": "uint256"
        },
        {
          "name": "_token",
          "type": "address"
        },
        {
          "name": "_amount",
          "type": "uint256"
        }
      ],
      "name": "createDividend",
      "outputs": [],
      "payable": false,
      "stateMutability": "nonpayable",
      "type": "function"
    },
    {
      "constant": false,
      "inputs": [
        {
          "name": "_maturity",
          "type": "uint256"
        },
        {
          "name": "_expiry",
          "type": "uint256"
        },
        {
          "name": "_token",
          "type": "address"
        },
        {
          "name": "_amount",
          "type": "uint256"
        },
        {
          "name": "_checkpointId",
          "type": "uint256"
        }
      ],
      "name": "createDividendWithCheckpoint",
      "outputs": [],
      "payable": true,
      "stateMutability": "payable",
      "type": "function"
    },
    {
      "constant": false,
      "inputs": [
        {
          "name": "_dividendIndex",
          "type": "uint256"
        },
        {
          "name": "_payees",
          "type": "address[]"
        }
      ],
      "name": "pushDividendPaymentToAddresses",
      "outputs": [],
      "payable": false,
      "stateMutability": "nonpayable",
      "type": "function"
    },
    {
      "constant": false,
      "inputs": [
        {
          "name": "_dividendIndex",
          "type": "uint256"
        },
        {
          "name": "_start",
          "type": "uint256"
        },
        {
          "name": "_iterations",
          "type": "uint256"
        }
      ],
      "name": "pushDividendPayment",
      "outputs": [],
      "payable": false,
      "stateMutability": "nonpayable",
      "type": "function"
    },
    {
      "constant": false,
      "inputs": [
        {
          "name": "_dividendIndex",
          "type": "uint256"
        }
      ],
      "name": "pullDividendPayment",
      "outputs": [],
      "payable": false,
      "stateMutability": "nonpayable",
      "type": "function"
    },
    {
      "constant": false,
      "inputs": [
        {
          "name": "_dividendIndex",
          "type": "uint256"
        }
      ],
      "name": "reclaimDividend",
      "outputs": [],
      "payable": false,
      "stateMutability": "nonpayable",
      "type": "function"
    },
    {
      "constant": true,
      "inputs": [
        {
          "name": "_dividendIndex",
          "type": "uint256"
        },
        {
          "name": "_payee",
          "type": "address"
        }
      ],
      "name": "calculateDividend",
      "outputs": [
        {
          "name": "",
          "type": "uint256"
        }
      ],
      "payable": false,
      "stateMutability": "view",
      "type": "function"
    },
    {
      "constant": true,
      "inputs": [
        {
          "name": "_checkpointId",
          "type": "uint256"
        }
      ],
      "name": "getDividendIndex",
      "outputs": [
        {
          "name": "",
          "type": "uint256[]"
        }
      ],
      "payable": false,
      "stateMutability": "view",
      "type": "function"
    },
    {
      "constant": true,
      "inputs": [],
      "name": "getPermissions",
      "outputs": [
        {
          "name": "",
          "type": "bytes32[]"
        }
      ],
      "payable": false,
      "stateMutability": "view",
      "type": "function"
    }
  ],
  "bytecode": "0x60806040527f4645455f41444d494e000000000000000000000000000000000000000000000060025534801561003457600080fd5b5060405160408061278083398101604052805160209091015160018054600160a060020a03938416600160a060020a03199182161790915560008054821633179055600380549390921692169190911790556126eb806100956000396000f3006080604052600436106100d75763ffffffff60e060020a6000350416631613ec9d81146100dc57806330008b48146101265780634d58e413146101405780635bea0e1c1461019a5780635daff64e146101d05780635f7619a4146102385780636faa22a51461026457806377bbf28a1461029557806380fef5af146102bf578063814b3fe0146102d4578063aa8b76ea1461033d578063b84dfbd214610355578063c3a07df61461036a578063c45a01551461037f578063cf3b98b214610394578063d70afa96146103b4578063e1726faa146103c9575b600080fd5b3480156100e857600080fd5b506100f16103e7565b604080517fffffffff000000000000000000000000000000000000000000000000000000009092168252519081900360200190f35b34801561013257600080fd5b5061013e6004356103ec565b005b34801561014c57600080fd5b5060408051602060046024803582810135848102808701860190975280865261013e968435963696604495919490910192918291850190849080828437509497506106889650505050505050565b3480156101a657600080fd5b506101be600435600160a060020a0360243516610adc565b60408051918252519081900360200190f35b3480156101dc57600080fd5b506101e8600435610c53565b60408051602080825283518183015283519192839290830191858101910280838360005b8381101561022457818101518382015260200161020c565b505050509050019250505060405180910390f35b34801561024457600080fd5b50610250600435610d38565b604080519115158252519081900360200190f35b34801561027057600080fd5b50610279611059565b60408051600160a060020a039092168252519081900360200190f35b3480156102a157600080fd5b5061013e600435602435600160a060020a0360443516606435611068565b3480156102cb57600080fd5b506101be611570565b3480156102e057600080fd5b506102ec600435611582565b60408051998a5260208a0198909852888801969096526060880194909452600160a060020a03909216608087015260a086015260c085015260e0840152151561010083015251908190036101200190f35b34801561034957600080fd5b5061013e6004356115e8565b34801561036157600080fd5b506102796119b9565b34801561037657600080fd5b506101e86119c8565b34801561038b57600080fd5b50610279611a1a565b61013e600435602435600160a060020a0360443516606435608435611a29565b3480156103c057600080fd5b506101be611f02565b3480156103d557600080fd5b5061013e600435602435604435611f08565b600090565b60045460009082908110610438576040805160e560020a62461bcd02815260206004820152601860248201526000805160206126a0833981519152604482015290519081900360640190fd5b600480548290811061044657fe5b90600052602060002090600a02016002015442101515156104d7576040805160e560020a62461bcd02815260206004820152602260248201527f4469766964656e64206d6174757269747920697320696e20746865206675747560448201527f7265000000000000000000000000000000000000000000000000000000000000606482015290519081900360840190fd5b60048054829081106104e557fe5b90600052602060002090600a0201600301544210151561054f576040805160e560020a62461bcd02815260206004820152601e60248201527f4469766964656e642065787069727920697320696e2074686520706173740000604482015290519081900360640190fd5b600480548290811061055d57fe5b600091825260209091206008600a90920201015460ff16156105ef576040805160e560020a62461bcd02815260206004820152602560248201527f4469766964656e6420686173206265656e207265636c61696d6564206279206960448201527f7373756572000000000000000000000000000000000000000000000000000000606482015290519081900360840190fd5b60048054849081106105fd57fe5b600091825260208083203384526009600a90930201918201905260409091205490925060ff1615610678576040805160e560020a62461bcd02815260206004820152601a60248201527f4469766964656e6420616c7265616479207265636c61696d6564000000000000604482015290519081900360640190fd5b61068333838561245c565b505050565b600080600080516020612680833981519152600080600160009054906101000a9004600160a060020a0316600160a060020a0316638da5cb5b6040518163ffffffff1660e060020a028152600401602060405180830381600087803b1580156106f057600080fd5b505af1158015610704573d6000803e3d6000fd5b505050506040513d602081101561071a57600080fd5b505160005433600160a060020a03928316811494509116149050818061073d5750805b806107e35750600154604080517f8658b8b9000000000000000000000000000000000000000000000000000000008152336004820152306024820152604481018690529051600160a060020a0390921691638658b8b9916064808201926020929091908290030181600087803b1580156107b657600080fd5b505af11580156107ca573d6000803e3d6000fd5b505050506040513d60208110156107e057600080fd5b50515b1515610839576040805160e560020a62461bcd02815260206004820152601760248201527f5065726d697373696f6e20636865636b206661696c6564000000000000000000604482015290519081900360640190fd5b60045487908110610882576040805160e560020a62461bcd02815260206004820152601860248201526000805160206126a0833981519152604482015290519081900360640190fd5b600480548290811061089057fe5b90600052602060002090600a0201600201544210151515610921576040805160e560020a62461bcd02815260206004820152602260248201527f4469766964656e64206d6174757269747920697320696e20746865206675747560448201527f7265000000000000000000000000000000000000000000000000000000000000606482015290519081900360840190fd5b600480548290811061092f57fe5b90600052602060002090600a02016003015442101515610999576040805160e560020a62461bcd02815260206004820152601e60248201527f4469766964656e642065787069727920697320696e2074686520706173740000604482015290519081900360640190fd5b60048054829081106109a757fe5b600091825260209091206008600a90920201015460ff1615610a39576040805160e560020a62461bcd02815260206004820152602560248201527f4469766964656e6420686173206265656e207265636c61696d6564206279206960448201527f7373756572000000000000000000000000000000000000000000000000000000606482015290519081900360840190fd5b6004805489908110610a4757fe5b90600052602060002090600a02019550600094505b8651851015610ad2578560090160008887815181101515610a7957fe5b6020908102909101810151600160a060020a031682528101919091526040016000205460ff161515610ac757610ac78786815181101515610ab657fe5b90602001906020020151878a61245c565b600190940193610a5c565b5050505050505050565b6000806000600485815481101515610af057fe5b60009182526020808320600160a060020a03881684526009600a90930201918201905260409091205490925060ff1615610b2d5760009250610c4b565b60015460048054600160a060020a0390921691634ee2cd7e91879189908110610b5257fe5b90600052602060002090600a0201600001546040518363ffffffff1660e060020a0281526004018083600160a060020a0316600160a060020a0316815260200182815260200192505050602060405180830381600087803b158015610bb657600080fd5b505af1158015610bca573d6000803e3d6000fd5b505050506040513d6020811015610be057600080fd5b505160048054919250610c489187908110610bf757fe5b90600052602060002090600a020160070154610c3c600488815481101515610c1b57fe5b90600052602060002090600a0201600501548461260490919063ffffffff16565b9063ffffffff61263316565b92505b505092915050565b606060008082815b600454831015610c9f5785600484815481101515610c7557fe5b90600052602060002090600a0201600001541415610c94576001909301925b600190920191610c5b565b83604051908082528060200260200182016040528015610cc9578160200160208202803883390190505b50915060009350600090505b600454811015610d2f5785600482815481101515610cef57fe5b90600052602060002090600a0201600001541415610d2757808285815181101515610d1657fe5b602090810290910101526001909301925b600101610cd5565b50949350505050565b6000600254600080600160009054906101000a9004600160a060020a0316600160a060020a0316638da5cb5b6040518163ffffffff1660e060020a028152600401602060405180830381600087803b158015610d9357600080fd5b505af1158015610da7573d6000803e3d6000fd5b505050506040513d6020811015610dbd57600080fd5b505160005433600160a060020a039283168114945091161490508180610de05750805b80610e865750600154604080517f8658b8b9000000000000000000000000000000000000000000000000000000008152336004820152306024820152604481018690529051600160a060020a0390921691638658b8b9916064808201926020929091908290030181600087803b158015610e5957600080fd5b505af1158015610e6d573d6000803e3d6000fd5b505050506040513d6020811015610e8357600080fd5b50515b1515610edc576040805160e560020a62461bcd02815260206004820152601760248201527f5065726d697373696f6e20636865636b206661696c6564000000000000000000604482015290519081900360640190fd5b60035460008054604080517f8da5cb5b0000000000000000000000000000000000000000000000000000000081529051600160a060020a03948516946323b872dd94309490911692638da5cb5b9260048083019360209383900390910190829087803b158015610f4b57600080fd5b505af1158015610f5f573d6000803e3d6000fd5b505050506040513d6020811015610f7557600080fd5b50516040805160e060020a63ffffffff8616028152600160a060020a039384166004820152929091166024830152604482018990525160648083019260209291908290030181600087803b158015610fcc57600080fd5b505af1158015610fe0573d6000803e3d6000fd5b505050506040513d6020811015610ff657600080fd5b5051151561104e576040805160e560020a62461bcd02815260206004820152601260248201527f556e61626c6520746f2074616b65206665650000000000000000000000000000604482015290519081900360640190fd5b506001949350505050565b600354600160a060020a031681565b6000806000600160009054906101000a9004600160a060020a0316600160a060020a0316638da5cb5b6040518163ffffffff1660e060020a028152600401602060405180830381600087803b1580156110c057600080fd5b505af11580156110d4573d6000803e3d6000fd5b505050506040513d60208110156110ea57600080fd5b5051600160a060020a0316331461114b576040805160e560020a62461bcd02815260206004820152601360248201527f53656e646572206973206e6f74206f776e657200000000000000000000000000604482015290519081900360640190fd5b86861161115757600080fd5b42861161116357600080fd5b600160a060020a038516151561117857600080fd5b6000841161118557600080fd5b604080517f23b872dd000000000000000000000000000000000000000000000000000000008152336004820152306024820152604481018690529051600160a060020a038716916323b872dd9160648083019260209291908290030181600087803b1580156111f357600080fd5b505af1158015611207573d6000803e3d6000fd5b505050506040513d602081101561121d57600080fd5b5051151561129b576040805160e560020a62461bcd02815260206004820152602660248201527f556e61626c6520746f207472616e7366657220746f6b656e7320666f7220646960448201527f766964656e640000000000000000000000000000000000000000000000000000606482015290519081900360840190fd5b60048054600154604080517fff0b9c900000000000000000000000000000000000000000000000000000000081529051929650600160a060020a039091169263ff0b9c909282820192602092908290030181600087803b1580156112fe57600080fd5b505af1158015611312573d6000803e3d6000fd5b505050506040513d602081101561132857600080fd5b5051600154604080517f18160ddd0000000000000000000000000000000000000000000000000000000081529051929450600160a060020a03909116916318160ddd916004808201926020929091908290030181600087803b15801561138d57600080fd5b505af11580156113a1573d6000803e3d6000fd5b505050506040513d60208110156113b757600080fd5b8101908080519060200190929190505050905060046101206040519081016040528084815260200142815260200189815260200188815260200187600160a060020a0316815260200186815260200160008152602001838152602001600015158152509080600181540180825580915050906001820390600052602060002090600a0201600090919290919091506000820151816000015560208201518160010155604082015181600201556060820151816003015560808201518160040160006101000a815481600160a060020a030219169083600160a060020a0316021790555060a0820151816005015560c0820151816006015560e082015181600701556101008201518160080160006101000a81548160ff02191690831515021790555050505033600160a060020a03167fb5d843cebbb7595af0860a94ddef15ce747f966392b0ab3705d48c5c08cf0c5583428a8a8a8a888b6040518089815260200188815260200187815260200186815260200185600160a060020a0316600160a060020a031681526020018481526020018381526020018281526020019850505050505050505060405180910390a250505050505050565b60008051602061268083398151915281565b600480548290811061159057fe5b60009182526020909120600a9091020180546001820154600283015460038401546004850154600586015460068701546007880154600890980154969850949693959294600160a060020a0390921693909260ff1689565b600080600160009054906101000a9004600160a060020a0316600160a060020a0316638da5cb5b6040518163ffffffff1660e060020a028152600401602060405180830381600087803b15801561163e57600080fd5b505af1158015611652573d6000803e3d6000fd5b505050506040513d602081101561166857600080fd5b5051600160a060020a031633146116c9576040805160e560020a62461bcd02815260206004820152601360248201527f53656e646572206973206e6f74206f776e657200000000000000000000000000604482015290519081900360640190fd5b6004548310611710576040805160e560020a62461bcd02815260206004820152601860248201526000805160206126a0833981519152604482015290519081900360640190fd5b600480548490811061171e57fe5b90600052602060002090600a0201600301544210151515611789576040805160e560020a62461bcd02815260206004820181905260248201527f4469766964656e642065787069727920697320696e2074686520667574757265604482015290519081900360640190fd5b600480548490811061179757fe5b600091825260209091206008600a90920201015460ff1615611803576040805160e560020a62461bcd02815260206004820152601860248201527f4469766964656e6420616c726561647920636c61696d65640000000000000000604482015290519081900360640190fd5b600160048481548110151561181457fe5b60009182526020909120600a90910201600801805460ff1916911515919091179055600480548490811061184457fe5b90600052602060002090600a0201915061186f8260060154836005015461264890919063ffffffff16565b600480840154604080517fa9059cbb00000000000000000000000000000000000000000000000000000000815233938101939093526024830184905251929350600160a060020a03169163a9059cbb916044808201926020929091908290030181600087803b1580156118e157600080fd5b505af11580156118f5573d6000803e3d6000fd5b505050506040513d602081101561190b57600080fd5b50511515611963576040805160e560020a62461bcd02815260206004820152601960248201527f556e61626c6520746f207472616e7366657220746f6b656e7300000000000000604482015290519081900360640190fd5b600482015460408051858152600160a060020a039290921660208301528181018390525133917f9766d0325a2a3c017f6cf974bfd1bd0b26e705570ce8250fe5e078a3e832d52d919081900360600190a2505050565b600154600160a060020a031681565b60408051600180825281830190925260609182919060208083019080388339019050509050600080516020612680833981519152816000815181101515611a0b57fe5b60209081029091010152905090565b600054600160a060020a031681565b600080600160009054906101000a9004600160a060020a0316600160a060020a0316638da5cb5b6040518163ffffffff1660e060020a028152600401602060405180830381600087803b158015611a7f57600080fd5b505af1158015611a93573d6000803e3d6000fd5b505050506040513d6020811015611aa957600080fd5b5051600160a060020a03163314611b0a576040805160e560020a62461bcd02815260206004820152601360248201527f53656e646572206973206e6f74206f776e657200000000000000000000000000604482015290519081900360640190fd5b868611611b1657600080fd5b428611611b2257600080fd5b600160009054906101000a9004600160a060020a0316600160a060020a0316635488cc806040518163ffffffff1660e060020a028152600401602060405180830381600087803b158015611b7557600080fd5b505af1158015611b89573d6000803e3d6000fd5b505050506040513d6020811015611b9f57600080fd5b5051831115611bad57600080fd5b60048054600154604080517f981b24d000000000000000000000000000000000000000000000000000000000815293840187905251919450600160a060020a03169163981b24d09160248083019260209291908290030181600087803b158015611c1657600080fd5b505af1158015611c2a573d6000803e3d6000fd5b505050506040513d6020811015611c4057600080fd5b5051604080517f23b872dd000000000000000000000000000000000000000000000000000000008152336004820152306024820152604481018790529051919250600160a060020a038716916323b872dd916064808201926020929091908290030181600087803b158015611cb457600080fd5b505af1158015611cc8573d6000803e3d6000fd5b505050506040513d6020811015611cde57600080fd5b50511515611d5c576040805160e560020a62461bcd02815260206004820152602660248201527f556e61626c6520746f207472616e7366657220746f6b656e7320666f7220646960448201527f766964656e640000000000000000000000000000000000000000000000000000606482015290519081900360840190fd5b60046101206040519081016040528085815260200142815260200189815260200188815260200187600160a060020a0316815260200186815260200160008152602001838152602001600015158152509080600181540180825580915050906001820390600052602060002090600a0201600090919290919091506000820151816000015560208201518160010155604082015181600201556060820151816003015560808201518160040160006101000a815481600160a060020a030219169083600160a060020a0316021790555060a0820151816005015560c0820151816006015560e082015181600701556101008201518160080160006101000a81548160ff02191690831515021790555050505033600160a060020a03167fb5d843cebbb7595af0860a94ddef15ce747f966392b0ab3705d48c5c08cf0c5584428a8a8a8a888a6040518089815260200188815260200187815260200186815260200185600160a060020a0316600160a060020a031681526020018481526020018381526020018281526020019850505050505050505060405180910390a250505050505050565b60025481565b600080600080600080516020612680833981519152600080600160009054906101000a9004600160a060020a0316600160a060020a0316638da5cb5b6040518163ffffffff1660e060020a028152600401602060405180830381600087803b158015611f7357600080fd5b505af1158015611f87573d6000803e3d6000fd5b505050506040513d6020811015611f9d57600080fd5b505160005433600160a060020a039283168114945091161490508180611fc05750805b806120665750600154604080517f8658b8b9000000000000000000000000000000000000000000000000000000008152336004820152306024820152604481018690529051600160a060020a0390921691638658b8b9916064808201926020929091908290030181600087803b15801561203957600080fd5b505af115801561204d573d6000803e3d6000fd5b505050506040513d602081101561206357600080fd5b50515b15156120bc576040805160e560020a62461bcd02815260206004820152601760248201527f5065726d697373696f6e20636865636b206661696c6564000000000000000000604482015290519081900360640190fd5b6004548a908110612105576040805160e560020a62461bcd02815260206004820152601860248201526000805160206126a0833981519152604482015290519081900360640190fd5b600480548290811061211357fe5b90600052602060002090600a02016002015442101515156121a4576040805160e560020a62461bcd02815260206004820152602260248201527f4469766964656e64206d6174757269747920697320696e20746865206675747560448201527f7265000000000000000000000000000000000000000000000000000000000000606482015290519081900360840190fd5b60048054829081106121b257fe5b90600052602060002090600a0201600301544210151561221c576040805160e560020a62461bcd02815260206004820152601e60248201527f4469766964656e642065787069727920697320696e2074686520706173740000604482015290519081900360640190fd5b600480548290811061222a57fe5b600091825260209091206008600a90920201015460ff16156122bc576040805160e560020a62461bcd02815260206004820152602560248201527f4469766964656e6420686173206265656e207265636c61696d6564206279206960448201527f7373756572000000000000000000000000000000000000000000000000000000606482015290519081900360840190fd5b600480548c9081106122ca57fe5b90600052602060002090600a02019750600160009054906101000a9004600160a060020a0316600160a060020a031663e3cc65e26040518163ffffffff1660e060020a028152600401602060405180830381600087803b15801561232d57600080fd5b505af1158015612341573d6000803e3d6000fd5b505050506040513d602081101561235757600080fd5b505196508995505b612378876123738c8c63ffffffff61265a16565b612667565b86101561244f57600154604080517f3feb5f2b000000000000000000000000000000000000000000000000000000008152600481018990529051600160a060020a0390921691633feb5f2b916024808201926020929091908290030181600087803b1580156123e657600080fd5b505af11580156123fa573d6000803e3d6000fd5b505050506040513d602081101561241057600080fd5b5051600160a060020a038116600090815260098a01602052604090205490955060ff1615156124445761244485898d61245c565b60019095019461235f565b5050505050505050505050565b60006124688285610adc565b600160a060020a03851660009081526009850160205260409020805460ff1916600117905560068401549091506124a690829063ffffffff61265a16565b600684015560008111156125fe57600480840154604080517fa9059cbb000000000000000000000000000000000000000000000000000000008152600160a060020a0388811694820194909452602481018590529051929091169163a9059cbb916044808201926020929091908290030181600087803b15801561252957600080fd5b505af115801561253d573d6000803e3d6000fd5b505050506040513d602081101561255357600080fd5b505115156125ab576040805160e560020a62461bcd02815260206004820152601960248201527f556e61626c6520746f207472616e7366657220746f6b656e7300000000000000604482015290519081900360640190fd5b600483015460408051848152600160a060020a0392831660208201528082018490529051918616917ff5ffd235949c0ad2967ecb39d7f97e8e12a3bd81f6c62d6c92c61d2b61543a179181900360600190a25b50505050565b60008215156126155750600061262d565b5081810281838281151561262557fe5b041461262d57fe5b92915050565b6000818381151561264057fe5b049392505050565b60008282111561265457fe5b50900390565b8181018281101561262d57fe5b60008183106126765781612678565b825b939250505056004449535452494255544500000000000000000000000000000000000000000000496e636f7272656374206469766964656e6420696e6465780000000000000000a165627a7a72305820d1518a956d015120ab87dd88d713a3db7e306ed69a3b13f6f295f55094efe0570029",
  "source": "pragma solidity ^0.4.24;\n\nimport \"./ICheckpoint.sol\";\nimport \"../../interfaces/ISecurityToken.sol\";\nimport \"openzeppelin-solidity/contracts/math/SafeMath.sol\";\nimport \"openzeppelin-solidity/contracts/math/Math.sol\";\nimport \"openzeppelin-solidity/contracts/token/ERC20/ERC20.sol\";\n\n/////////////////////\n// Module permissions\n/////////////////////\n//                                        Owner       DISTRIBUTE\n// pushDividendPaymentToAddresses           X               X\n// pushDividendPayment                      X               X\n// createDividend                           X\n// createDividendWithCheckpoint             X\n// reclaimDividend                          X\n\n/**\n * @title Checkpoint module for issuing ERC20 dividends\n */\ncontract ERC20DividendCheckpoint is ICheckpoint {\n    using SafeMath for uint256;\n\n    bytes32 public constant DISTRIBUTE = \"DISTRIBUTE\";\n\n    struct Dividend {\n      uint256 checkpointId;\n      uint256 created; // Time at which the dividend was created\n      uint256 maturity; // Time after which dividend can be claimed - set to 0 to bypass\n      uint256 expiry;  // Time until which dividend can be claimed - after this time any remaining amount can be withdrawn by issuer - set to very high value to bypass\n      address token; // Address of ERC20 token that dividend is denominated in\n      uint256 amount; // Dividend amount in base token amounts\n      uint256 claimedAmount; // Amount of dividend claimed so far\n      uint256 totalSupply; // Total supply at the associated checkpoint (avoids recalculating this)\n      bool reclaimed;\n      mapping (address => bool) claimed; // List of addresses which have claimed dividend\n    }\n\n    // List of all dividends\n    Dividend[] public dividends;\n\n    event ERC20DividendDeposited(address indexed _depositor, uint256 _checkpointId, uint256 _created, uint256 _maturity, uint256 _expiry, address _token, uint256 _amount, uint256 _totalSupply, uint256 _dividendIndex);\n    event ERC20DividendClaimed(address indexed _payee, uint256 _dividendIndex, address _token, uint256 _amount);\n    event ERC20DividendReclaimed(address indexed _claimer, uint256 _dividendIndex, address _token, uint256 _claimedAmount);\n\n    modifier validDividendIndex(uint256 _dividendIndex) {\n        require(_dividendIndex < dividends.length, \"Incorrect dividend index\");\n        require(now >= dividends[_dividendIndex].maturity, \"Dividend maturity is in the future\");\n        require(now < dividends[_dividendIndex].expiry, \"Dividend expiry is in the past\");\n        require(!dividends[_dividendIndex].reclaimed, \"Dividend has been reclaimed by issuer\");\n        _;\n    }\n\n    /**\n     * @notice Constructor\n     * @param _securityToken Address of the security token\n     * @param _polyAddress Address of the polytoken\n     */\n    constructor (address _securityToken, address _polyAddress) public\n    IModule(_securityToken, _polyAddress)\n    {\n    }\n\n    /**\n    * @notice Init function i.e generalise function to maintain the structure of the module contract\n    * @return bytes4\n    */\n    function getInitFunction() public returns(bytes4) {\n        return bytes4(0);\n    }\n\n    /**\n     * @notice Creates a dividend and checkpoint for the dividend\n     * @param _maturity Time from which dividend can be paid\n     * @param _expiry Time until dividend can no longer be paid, and can be reclaimed by issuer\n     * @param _token Address of ERC20 token in which dividend is to be denominated\n     * @param _amount Amount of specified token for dividend\n     */\n    function createDividend(uint256 _maturity, uint256 _expiry, address _token, uint256 _amount) public onlyOwner {\n        require(_expiry > _maturity);\n        require(_expiry > now);\n        require(_token != address(0));\n        require(_amount > 0);\n        require(ERC20(_token).transferFrom(msg.sender, address(this), _amount), \"Unable to transfer tokens for dividend\");\n        uint256 dividendIndex = dividends.length;\n        uint256 checkpointId = ISecurityToken(securityToken).createCheckpoint();\n        uint256 currentSupply = ISecurityToken(securityToken).totalSupply();\n        dividends.push(\n          Dividend(\n            checkpointId,\n            now,\n            _maturity,\n            _expiry,\n            _token,\n            _amount,\n            0,\n            currentSupply,\n            false\n          )\n        );\n        emit ERC20DividendDeposited(msg.sender, checkpointId, now, _maturity, _expiry, _token, _amount, currentSupply, dividendIndex);\n    }\n\n    /**\n     * @notice Creates a dividend with a provided checkpoint\n     * @param _maturity Time from which dividend can be paid\n     * @param _expiry Time until dividend can no longer be paid, and can be reclaimed by issuer\n     * @param _token Address of ERC20 token in which dividend is to be denominated\n     * @param _amount Amount of specified token for dividend\n     * @param _checkpointId Checkpoint id from which to create dividends\n     */\n    function createDividendWithCheckpoint(uint256 _maturity, uint256 _expiry, address _token, uint256 _amount, uint256 _checkpointId) payable public onlyOwner {\n        require(_expiry > _maturity);\n        require(_expiry > now);\n        require(_checkpointId <= ISecurityToken(securityToken).currentCheckpointId());\n        uint256 dividendIndex = dividends.length;\n        uint256 currentSupply = ISecurityToken(securityToken).totalSupplyAt(_checkpointId);\n        require(ERC20(_token).transferFrom(msg.sender, address(this), _amount), \"Unable to transfer tokens for dividend\");\n        dividends.push(\n          Dividend(\n            _checkpointId,\n            now,\n            _maturity,\n            _expiry,\n            _token,\n            _amount,\n            0,\n            currentSupply,\n            false\n          )\n        );\n        emit ERC20DividendDeposited(msg.sender, _checkpointId, now, _maturity, _expiry, _token, _amount, currentSupply, dividendIndex);\n    }\n\n    /**\n     * @notice Issuer can push dividends to provided addresses\n     * @param _dividendIndex Dividend to push\n     * @param _payees Addresses to which to push the dividend\n     */\n    function pushDividendPaymentToAddresses(uint256 _dividendIndex, address[] _payees) public withPerm(DISTRIBUTE) validDividendIndex(_dividendIndex) {\n        Dividend storage dividend = dividends[_dividendIndex];\n        for (uint256 i = 0; i < _payees.length; i++) {\n            if (!dividend.claimed[_payees[i]]) {\n                _payDividend(_payees[i], dividend, _dividendIndex);\n            }\n        }\n    }\n\n    /**\n     * @notice Issuer can push dividends using the investor list from the security token\n     * @param _dividendIndex Dividend to push\n     * @param _start Index in investor list at which to start pushing dividends\n     * @param _iterations Number of addresses to push dividends for\n     */\n    function pushDividendPayment(uint256 _dividendIndex, uint256 _start, uint256 _iterations) public withPerm(DISTRIBUTE) validDividendIndex(_dividendIndex) {\n        Dividend storage dividend = dividends[_dividendIndex];\n        uint256 numberInvestors = ISecurityToken(securityToken).getInvestorsLength();\n        for (uint256 i = _start; i < Math.min256(numberInvestors, _start.add(_iterations)); i++) {\n            address payee = ISecurityToken(securityToken).investors(i);\n            if (!dividend.claimed[payee]) {\n                _payDividend(payee, dividend, _dividendIndex);\n            }\n        }\n    }\n\n    /**\n     * @notice Investors can pull their own dividends\n     * @param _dividendIndex Dividend to pull\n     */\n    function pullDividendPayment(uint256 _dividendIndex) public validDividendIndex(_dividendIndex)\n    {\n        Dividend storage dividend = dividends[_dividendIndex];\n        require(!dividend.claimed[msg.sender], \"Dividend already reclaimed\");\n        _payDividend(msg.sender, dividend, _dividendIndex);\n    }\n\n    /**\n     * @notice Internal function for paying dividends\n     * @param _payee address of investor\n     * @param _dividend storage with previously issued dividends\n     * @param _dividendIndex Dividend to pay\n     */\n    function _payDividend(address _payee, Dividend storage _dividend, uint256 _dividendIndex) internal {\n        uint256 claim = calculateDividend(_dividendIndex, _payee);\n        _dividend.claimed[_payee] = true;\n        _dividend.claimedAmount = claim.add(_dividend.claimedAmount);\n        if (claim > 0) {\n            require(ERC20(_dividend.token).transfer(_payee, claim), \"Unable to transfer tokens\");\n            emit ERC20DividendClaimed(_payee, _dividendIndex, _dividend.token, claim);\n        }\n    }\n\n    /**\n     * @notice Issuer can reclaim remaining unclaimed dividend amounts, for expired dividends\n     * @param _dividendIndex Dividend to reclaim\n     */\n    function reclaimDividend(uint256 _dividendIndex) public onlyOwner {\n        require(_dividendIndex < dividends.length, \"Incorrect dividend index\");\n        require(now >= dividends[_dividendIndex].expiry, \"Dividend expiry is in the future\");\n        require(!dividends[_dividendIndex].reclaimed, \"Dividend already claimed\");\n        dividends[_dividendIndex].reclaimed = true;\n        Dividend storage dividend = dividends[_dividendIndex];\n        uint256 remainingAmount = dividend.amount.sub(dividend.claimedAmount);\n        require(ERC20(dividend.token).transfer(msg.sender, remainingAmount), \"Unable to transfer tokens\");\n        emit ERC20DividendReclaimed(msg.sender, _dividendIndex, dividend.token, remainingAmount);\n    }\n\n    /**\n     * @notice Calculate amount of dividends claimable\n     * @param _dividendIndex Dividend to calculate\n     * @param _payee Affected investor address\n     * @return unit256\n     */\n    function calculateDividend(uint256 _dividendIndex, address _payee) public view returns(uint256) {\n        Dividend storage dividend = dividends[_dividendIndex];\n        if (dividend.claimed[_payee]) {\n            return 0;\n        }\n        uint256 balance = ISecurityToken(securityToken).balanceOfAt(_payee, dividends[_dividendIndex].checkpointId);\n        return balance.mul(dividends[_dividendIndex].amount).div(dividends[_dividendIndex].totalSupply);\n    }\n\n    /**\n     * @notice Get the index according to the checkpoint id\n     * @param _checkpointId Checkpoint id to query\n     * @return uint256\n     */\n    function getDividendIndex(uint256 _checkpointId) public view returns(uint256[]) {\n        uint256 counter = 0;\n        for(uint256 i = 0; i < dividends.length; i++) {\n            if (dividends[i].checkpointId == _checkpointId) {\n                counter++;\n            }\n        }\n\n       uint256[] memory index = new uint256[](counter);\n       counter = 0;\n       for(uint256 j = 0; j < dividends.length; j++) {\n           if (dividends[j].checkpointId == _checkpointId) {\n               index[counter] = j;\n               counter++;\n           }\n       }\n       return index;\n    }\n\n    /**\n     * @notice Return the permissions flag that are associated with STO\n     * @return bytes32 array\n     */\n    function getPermissions() public view returns(bytes32[]) {\n        bytes32[] memory allPermissions = new bytes32[](1);\n        allPermissions[0] = DISTRIBUTE;\n        return allPermissions;\n    }\n\n}\n",
  "sourcePath": "/Users/Yihan/st/contracts/modules/Checkpoint/ERC20DividendCheckpoint.sol",
  "compiler": {
    "name": "solc",
    "version": "0.4.24+commit.e67f0147.Emscripten.clang"
  },
  "schemaVersion": "2.0.0",
  "updatedAt": "2018-07-09T19:15:50.906Z"
}