{
  "contractName": "GeneralTransferManager",
  "abi": [
    {
      "constant": true,
      "inputs": [],
      "name": "allowAllBurnTransfers",
      "outputs": [
        {
          "name": "",
          "type": "bool"
        }
      ],
      "payable": false,
      "stateMutability": "view",
      "type": "function"
    },
    {
      "constant": true,
      "inputs": [],
      "name": "WHITELIST",
      "outputs": [
        {
          "name": "",
          "type": "bytes32"
        }
      ],
      "payable": false,
      "stateMutability": "view",
      "type": "function"
    },
    {
      "constant": true,
      "inputs": [],
      "name": "allowAllWhitelistTransfers",
      "outputs": [
        {
          "name": "",
          "type": "bool"
        }
      ],
      "payable": false,
      "stateMutability": "view",
      "type": "function"
    },
    {
      "constant": false,
      "inputs": [],
      "name": "unpause",
      "outputs": [],
      "payable": false,
      "stateMutability": "nonpayable",
      "type": "function"
    },
    {
      "constant": true,
      "inputs": [],
      "name": "paused",
      "outputs": [
        {
          "name": "",
          "type": "bool"
        }
      ],
      "payable": false,
      "stateMutability": "view",
      "type": "function"
    },
    {
      "constant": false,
      "inputs": [
        {
          "name": "_amount",
          "type": "uint256"
        }
      ],
      "name": "takeFee",
      "outputs": [
        {
          "name": "",
          "type": "bool"
        }
      ],
      "payable": false,
      "stateMutability": "nonpayable",
      "type": "function"
    },
    {
      "constant": true,
      "inputs": [],
      "name": "polyToken",
      "outputs": [
        {
          "name": "",
          "type": "address"
        }
      ],
      "payable": false,
      "stateMutability": "view",
      "type": "function"
    },
    {
      "constant": false,
      "inputs": [],
      "name": "pause",
      "outputs": [],
      "payable": false,
      "stateMutability": "nonpayable",
      "type": "function"
    },
    {
      "constant": true,
      "inputs": [],
      "name": "FLAGS",
      "outputs": [
        {
          "name": "",
          "type": "bytes32"
        }
      ],
      "payable": false,
      "stateMutability": "view",
      "type": "function"
    },
    {
      "constant": true,
      "inputs": [
        {
          "name": "",
          "type": "address"
        }
      ],
      "name": "whitelist",
      "outputs": [
        {
          "name": "fromTime",
          "type": "uint256"
        },
        {
          "name": "toTime",
          "type": "uint256"
        },
        {
          "name": "expiryTime",
          "type": "uint256"
        },
        {
          "name": "canBuyFromSTO",
          "type": "bool"
        }
      ],
      "payable": false,
      "stateMutability": "view",
      "type": "function"
    },
    {
      "constant": true,
      "inputs": [],
      "name": "allowAllTransfers",
      "outputs": [
        {
          "name": "",
          "type": "bool"
        }
      ],
      "payable": false,
      "stateMutability": "view",
      "type": "function"
    },
    {
      "constant": true,
      "inputs": [],
      "name": "signingAddress",
      "outputs": [
        {
          "name": "",
          "type": "address"
        }
      ],
      "payable": false,
      "stateMutability": "view",
      "type": "function"
    },
    {
      "constant": true,
      "inputs": [],
      "name": "issuanceAddress",
      "outputs": [
        {
          "name": "",
          "type": "address"
        }
      ],
      "payable": false,
      "stateMutability": "view",
      "type": "function"
    },
    {
      "constant": true,
      "inputs": [],
      "name": "securityToken",
      "outputs": [
        {
          "name": "",
          "type": "address"
        }
      ],
      "payable": false,
      "stateMutability": "view",
      "type": "function"
    },
    {
      "constant": true,
      "inputs": [],
      "name": "factory",
      "outputs": [
        {
          "name": "",
          "type": "address"
        }
      ],
      "payable": false,
      "stateMutability": "view",
      "type": "function"
    },
    {
      "constant": true,
      "inputs": [],
      "name": "FEE_ADMIN",
      "outputs": [
        {
          "name": "",
          "type": "bytes32"
        }
      ],
      "payable": false,
      "stateMutability": "view",
      "type": "function"
    },
    {
      "constant": true,
      "inputs": [],
      "name": "allowAllWhitelistIssuances",
      "outputs": [
        {
          "name": "",
          "type": "bool"
        }
      ],
      "payable": false,
      "stateMutability": "view",
      "type": "function"
    },
    {
      "inputs": [
        {
          "name": "_securityToken",
          "type": "address"
        },
        {
          "name": "_polyAddress",
          "type": "address"
        }
      ],
      "payable": false,
      "stateMutability": "nonpayable",
      "type": "constructor"
    },
    {
      "anonymous": false,
      "inputs": [
        {
          "indexed": false,
          "name": "_issuanceAddress",
          "type": "address"
        }
      ],
      "name": "LogChangeIssuanceAddress",
      "type": "event"
    },
    {
      "anonymous": false,
      "inputs": [
        {
          "indexed": false,
          "name": "_allowAllTransfers",
          "type": "bool"
        }
      ],
      "name": "LogAllowAllTransfers",
      "type": "event"
    },
    {
      "anonymous": false,
      "inputs": [
        {
          "indexed": false,
          "name": "_allowAllWhitelistTransfers",
          "type": "bool"
        }
      ],
      "name": "LogAllowAllWhitelistTransfers",
      "type": "event"
    },
    {
      "anonymous": false,
      "inputs": [
        {
          "indexed": false,
          "name": "_allowAllWhitelistIssuances",
          "type": "bool"
        }
      ],
      "name": "LogAllowAllWhitelistIssuances",
      "type": "event"
    },
    {
      "anonymous": false,
      "inputs": [
        {
          "indexed": false,
          "name": "_allowAllBurnTransfers",
          "type": "bool"
        }
      ],
      "name": "LogAllowAllBurnTransfers",
      "type": "event"
    },
    {
      "anonymous": false,
      "inputs": [
        {
          "indexed": false,
          "name": "_signingAddress",
          "type": "address"
        }
      ],
      "name": "LogChangeSigningAddress",
      "type": "event"
    },
    {
      "anonymous": false,
      "inputs": [
        {
          "indexed": false,
          "name": "_investor",
          "type": "address"
        },
        {
          "indexed": false,
          "name": "_dateAdded",
          "type": "uint256"
        },
        {
          "indexed": false,
          "name": "_addedBy",
          "type": "address"
        },
        {
          "indexed": false,
          "name": "_fromTime",
          "type": "uint256"
        },
        {
          "indexed": false,
          "name": "_toTime",
          "type": "uint256"
        },
        {
          "indexed": false,
          "name": "_expiryTime",
          "type": "uint256"
        },
        {
          "indexed": false,
          "name": "_canBuyFromSTO",
          "type": "bool"
        }
      ],
      "name": "LogModifyWhitelist",
      "type": "event"
    },
    {
      "anonymous": false,
      "inputs": [
        {
          "indexed": false,
          "name": "_timestammp",
          "type": "uint256"
        }
      ],
      "name": "Pause",
      "type": "event"
    },
    {
      "anonymous": false,
      "inputs": [
        {
          "indexed": false,
          "name": "_timestamp",
          "type": "uint256"
        }
      ],
      "name": "Unpause",
      "type": "event"
    },
    {
      "constant": false,
      "inputs": [],
      "name": "getInitFunction",
      "outputs": [
        {
          "name": "",
          "type": "bytes4"
        }
      ],
      "payable": false,
      "stateMutability": "nonpayable",
      "type": "function"
    },
    {
      "constant": false,
      "inputs": [
        {
          "name": "_issuanceAddress",
          "type": "address"
        }
      ],
      "name": "changeIssuanceAddress",
      "outputs": [],
      "payable": false,
      "stateMutability": "nonpayable",
      "type": "function"
    },
    {
      "constant": false,
      "inputs": [
        {
          "name": "_signingAddress",
          "type": "address"
        }
      ],
      "name": "changeSigningAddress",
      "outputs": [],
      "payable": false,
      "stateMutability": "nonpayable",
      "type": "function"
    },
    {
      "constant": false,
      "inputs": [
        {
          "name": "_allowAllTransfers",
          "type": "bool"
        }
      ],
      "name": "changeAllowAllTransfers",
      "outputs": [],
      "payable": false,
      "stateMutability": "nonpayable",
      "type": "function"
    },
    {
      "constant": false,
      "inputs": [
        {
          "name": "_allowAllWhitelistTransfers",
          "type": "bool"
        }
      ],
      "name": "changeAllowAllWhitelistTransfers",
      "outputs": [],
      "payable": false,
      "stateMutability": "nonpayable",
      "type": "function"
    },
    {
      "constant": false,
      "inputs": [
        {
          "name": "_allowAllWhitelistIssuances",
          "type": "bool"
        }
      ],
      "name": "changeAllowAllWhitelistIssuances",
      "outputs": [],
      "payable": false,
      "stateMutability": "nonpayable",
      "type": "function"
    },
    {
      "constant": false,
      "inputs": [
        {
          "name": "_allowAllBurnTransfers",
          "type": "bool"
        }
      ],
      "name": "changeAllowAllBurnTransfers",
      "outputs": [],
      "payable": false,
      "stateMutability": "nonpayable",
      "type": "function"
    },
    {
      "constant": false,
      "inputs": [
        {
          "name": "_from",
          "type": "address"
        },
        {
          "name": "_to",
          "type": "address"
        },
        {
          "name": "",
          "type": "uint256"
        },
        {
          "name": "",
          "type": "bool"
        }
      ],
      "name": "verifyTransfer",
      "outputs": [
        {
          "name": "",
          "type": "uint8"
        }
      ],
      "payable": false,
      "stateMutability": "nonpayable",
      "type": "function"
    },
    {
      "constant": false,
      "inputs": [
        {
          "name": "_investor",
          "type": "address"
        },
        {
          "name": "_fromTime",
          "type": "uint256"
        },
        {
          "name": "_toTime",
          "type": "uint256"
        },
        {
          "name": "_expiryTime",
          "type": "uint256"
        },
        {
          "name": "_canBuyFromSTO",
          "type": "bool"
        }
      ],
      "name": "modifyWhitelist",
      "outputs": [],
      "payable": false,
      "stateMutability": "nonpayable",
      "type": "function"
    },
    {
      "constant": false,
      "inputs": [
        {
          "name": "_investors",
          "type": "address[]"
        },
        {
          "name": "_fromTimes",
          "type": "uint256[]"
        },
        {
          "name": "_toTimes",
          "type": "uint256[]"
        },
        {
          "name": "_expiryTimes",
          "type": "uint256[]"
        },
        {
          "name": "_canBuyFromSTO",
          "type": "bool[]"
        }
      ],
      "name": "modifyWhitelistMulti",
      "outputs": [],
      "payable": false,
      "stateMutability": "nonpayable",
      "type": "function"
    },
    {
      "constant": false,
      "inputs": [
        {
          "name": "_investor",
          "type": "address"
        },
        {
          "name": "_fromTime",
          "type": "uint256"
        },
        {
          "name": "_toTime",
          "type": "uint256"
        },
        {
          "name": "_expiryTime",
          "type": "uint256"
        },
        {
          "name": "_canBuyFromSTO",
          "type": "bool"
        },
        {
          "name": "_validFrom",
          "type": "uint256"
        },
        {
          "name": "_validTo",
          "type": "uint256"
        },
        {
          "name": "_v",
          "type": "uint8"
        },
        {
          "name": "_r",
          "type": "bytes32"
        },
        {
          "name": "_s",
          "type": "bytes32"
        }
      ],
      "name": "modifyWhitelistSigned",
      "outputs": [],
      "payable": false,
      "stateMutability": "nonpayable",
      "type": "function"
    },
    {
      "constant": true,
      "inputs": [],
      "name": "getPermissions",
      "outputs": [
        {
          "name": "",
          "type": "bytes32[]"
        }
      ],
      "payable": false,
      "stateMutability": "view",
      "type": "function"
    }
  ],
  "bytecode": "0x60806040527f4645455f41444d494e00000000000000000000000000000000000000000000006002556003805460a060020a60ff021916905560048054600160a060020a03199081169091556005805490911690556007805463ff0000001962ffffff19909116620100001716905534801561007a57600080fd5b506040516040806127ca83398101604052805160209091015160018054600160a060020a03938416600160a060020a03199182161790915560008054821633179055600380549390921692169190911790556126ef806100db6000396000f30060806040526004361061015b5763ffffffff60e060020a60003504166307592f6081146101605780630f28937c146101a5578063144b8afa146102de5780631613ec9d146103075780631bb7cc99146103515780632909a80e146103785780633f0547bb1461038d5780633f4ba83a146103a75780634caaf45f146103bc5780635c975abb146103dd5780635f7619a4146103f25780636faa22a51461040a5780637915c9e01461043b5780637ecc866f1461048e5780638456cb59146104a85780639332b62c146104bd5780639728538f146104d75780639b19251a146104ec578063b1dd811114610535578063b3e82dc91461054a578063b3fac8ce1461055f578063b84dfbd214610574578063c3a07df614610589578063c45a0155146105ee578063d70afa9614610603578063d7604a7814610618578063e0c6815814610647578063e55d0f8b14610668578063e8a28d521461067d575b600080fd5b34801561016c57600080fd5b506101a3600160a060020a0360043516602435604435606435608435151560a43560c43560ff60e435166101043561012435610697565b005b3480156101b157600080fd5b50604080516020600480358082013583810280860185019096528085526101a395369593946024949385019291829185019084908082843750506040805187358901803560208181028481018201909552818452989b9a998901989297509082019550935083925085019084908082843750506040805187358901803560208181028481018201909552818452989b9a998901989297509082019550935083925085019084908082843750506040805187358901803560208181028481018201909552818452989b9a998901989297509082019550935083925085019084908082843750506040805187358901803560208181028481018201909552818452989b9a9989019892975090820195509350839250850190849080828437509497506109689650505050505050565b3480156102ea57600080fd5b506102f3610cf8565b604080519115158252519081900360200190f35b34801561031357600080fd5b5061031c610d08565b604080517fffffffff000000000000000000000000000000000000000000000000000000009092168252519081900360200190f35b34801561035d57600080fd5b50610366610d0d565b60408051918252519081900360200190f35b34801561038457600080fd5b506102f3610d1f565b34801561039957600080fd5b506101a36004351515610d2d565b3480156103b357600080fd5b506101a3610efa565b3480156103c857600080fd5b506101a3600160a060020a0360043516610fe2565b3480156103e957600080fd5b506102f36111c9565b3480156103fe57600080fd5b506102f36004356111d9565b34801561041657600080fd5b5061041f6114d2565b60408051600160a060020a039092168252519081900360200190f35b34801561044757600080fd5b5061046a600160a060020a036004358116906024351660443560643515156114e1565b6040518082600381111561047a57fe5b60ff16815260200191505060405180910390f35b34801561049a57600080fd5b506101a3600435151561165a565b3480156104b457600080fd5b506101a3611831565b3480156104c957600080fd5b506101a36004351515611917565b3480156104e357600080fd5b50610366611aec565b3480156104f857600080fd5b5061050d600160a060020a0360043516611afb565b6040805194855260208501939093528383019190915215156060830152519081900360800190f35b34801561054157600080fd5b506102f3611b25565b34801561055657600080fd5b5061041f611b2e565b34801561056b57600080fd5b5061041f611b3d565b34801561058057600080fd5b5061041f611b4c565b34801561059557600080fd5b5061059e611b5b565b60408051602080825283518183015283519192839290830191858101910280838360005b838110156105da5781810151838201526020016105c2565b505050509050019250505060405180910390f35b3480156105fa57600080fd5b5061041f611bd5565b34801561060f57600080fd5b50610366611be4565b34801561062457600080fd5b506101a3600160a060020a03600435166024356044356064356084351515611bea565b34801561065357600080fd5b506101a3600160a060020a0360043516611e93565b34801561067457600080fd5b506102f361207a565b34801561068957600080fd5b506101a36004351515612089565b6000428611156106f1576040805160e560020a62461bcd02815260206004820152601660248201527f56616c696446726f6d20697320746f6f206561726c7900000000000000000000604482015290519081900360640190fd5b42851015610749576040805160e560020a62461bcd02815260206004820152601360248201527f56616c6964546f20697320746f6f206c61746500000000000000000000000000604482015290519081900360640190fd5b604080516c01000000000000000000000000308102602080840191909152600160a060020a038f169091026034830152604882018d9052606882018c9052608882018b90527f01000000000000000000000000000000000000000000000000000000000000008a15150260a883015260a9820189905260c98083018990528351808403909101815260e990920192839052815191929182918401908083835b602083106108075780518252601f1990920191602091820191016107e8565b6001836020036101000a0380198251168184511680821785525050505050509050019150506040518091039020905061084281858585612262565b6080604051908101604052808b81526020018a8152602001898152602001881515815250600660008d600160a060020a0316600160a060020a0316815260200190815260200160002060008201518160000155602082015181600101556040820151816002015560608201518160030160006101000a81548160ff0219169083151502179055509050507f7a985b3a91e6a809b9457eb0e56c26c57186f124ae7e661ef14fa3518d49cdba8b42338d8d8d8d6040518088600160a060020a0316600160a060020a0316815260200187815260200186600160a060020a0316600160a060020a031681526020018581526020018481526020018381526020018215151515815260200197505050505050505060405180910390a15050505050505050505050565b6000600080516020612684833981519152600080600160009054906101000a9004600160a060020a0316600160a060020a0316638da5cb5b6040518163ffffffff1660e060020a028152600401602060405180830381600087803b1580156109cf57600080fd5b505af11580156109e3573d6000803e3d6000fd5b505050506040513d60208110156109f957600080fd5b505160005433600160a060020a039283168114945091161490508180610a1c5750805b80610aac57506001546040805160e060020a638658b8b9028152336004820152306024820152604481018690529051600160a060020a0390921691638658b8b9916064808201926020929091908290030181600087803b158015610a7f57600080fd5b505af1158015610a93573d6000803e3d6000fd5b505050506040513d6020811015610aa957600080fd5b50515b1515610af0576040805160e560020a62461bcd02815260206004820152601760248201526000805160206126a4833981519152604482015290519081900360640190fd5b8751895114610b49576040805160e560020a62461bcd02815260206004820152601860248201527f4d69736d61746368656420696e707574206c656e677468730000000000000000604482015290519081900360640190fd5b8651885114610ba2576040805160e560020a62461bcd02815260206004820152601860248201527f4d69736d61746368656420696e707574206c656e677468730000000000000000604482015290519081900360640190fd5b8551875114610bfb576040805160e560020a62461bcd02815260206004820152601860248201527f4d69736d61746368656420696e707574206c656e677468730000000000000000604482015290519081900360640190fd5b8651855114610c54576040805160e560020a62461bcd02815260206004820152601760248201527f4d69736d61746368656420696e707574206c656e677468000000000000000000604482015290519081900360640190fd5b600093505b8851841015610ced57610ce28985815181101515610c7357fe5b906020019060200201518986815181101515610c8b57fe5b906020019060200201518987815181101515610ca357fe5b906020019060200201518988815181101515610cbb57fe5b906020019060200201518989815181101515610cd357fe5b90602001906020020151611bea565b600190930192610c59565b505050505050505050565b6007546301000000900460ff1681565b600090565b60008051602061268483398151915281565b600754610100900460ff1681565b60d860020a64464c41475302600080600160009054906101000a9004600160a060020a0316600160a060020a0316638da5cb5b6040518163ffffffff1660e060020a028152600401602060405180830381600087803b158015610d8f57600080fd5b505af1158015610da3573d6000803e3d6000fd5b505050506040513d6020811015610db957600080fd5b505160005433600160a060020a039283168114945091161490508180610ddc5750805b80610e6c57506001546040805160e060020a638658b8b9028152336004820152306024820152604481018690529051600160a060020a0390921691638658b8b9916064808201926020929091908290030181600087803b158015610e3f57600080fd5b505af1158015610e53573d6000803e3d6000fd5b505050506040513d6020811015610e6957600080fd5b50515b1515610eb0576040805160e560020a62461bcd02815260206004820152601760248201526000805160206126a4833981519152604482015290519081900360640190fd5b6007805485151560ff19909116811790915560408051918252517f185556241b5bd01bdb7ff63397b8990ec8d33116f15a7d7eb5f2b8f7072e1d499181900360200190a150505050565b600160009054906101000a9004600160a060020a0316600160a060020a0316638da5cb5b6040518163ffffffff1660e060020a028152600401602060405180830381600087803b158015610f4d57600080fd5b505af1158015610f61573d6000803e3d6000fd5b505050506040513d6020811015610f7757600080fd5b5051600160a060020a03163314610fd8576040805160e560020a62461bcd02815260206004820152601360248201527f53656e646572206973206e6f74206f776e657200000000000000000000000000604482015290519081900360640190fd5b610fe061247b565b565b60d860020a64464c41475302600080600160009054906101000a9004600160a060020a0316600160a060020a0316638da5cb5b6040518163ffffffff1660e060020a028152600401602060405180830381600087803b15801561104457600080fd5b505af1158015611058573d6000803e3d6000fd5b505050506040513d602081101561106e57600080fd5b505160005433600160a060020a0392831681149450911614905081806110915750805b8061112157506001546040805160e060020a638658b8b9028152336004820152306024820152604481018690529051600160a060020a0390921691638658b8b9916064808201926020929091908290030181600087803b1580156110f457600080fd5b505af1158015611108573d6000803e3d6000fd5b505050506040513d602081101561111e57600080fd5b50515b1515611165576040805160e560020a62461bcd02815260206004820152601760248201526000805160206126a4833981519152604482015290519081900360640190fd5b60058054600160a060020a03861673ffffffffffffffffffffffffffffffffffffffff19909116811790915560408051918252517f5940b3e4196e0af34b25de54a6476219b7065395349f15fb84006511fd962d329181900360200190a150505050565b60035460a060020a900460ff1681565b6000600254600080600160009054906101000a9004600160a060020a0316600160a060020a0316638da5cb5b6040518163ffffffff1660e060020a028152600401602060405180830381600087803b15801561123457600080fd5b505af1158015611248573d6000803e3d6000fd5b505050506040513d602081101561125e57600080fd5b505160005433600160a060020a0392831681149450911614905081806112815750805b8061131157506001546040805160e060020a638658b8b9028152336004820152306024820152604481018690529051600160a060020a0390921691638658b8b9916064808201926020929091908290030181600087803b1580156112e457600080fd5b505af11580156112f8573d6000803e3d6000fd5b505050506040513d602081101561130e57600080fd5b50515b1515611355576040805160e560020a62461bcd02815260206004820152601760248201526000805160206126a4833981519152604482015290519081900360640190fd5b60035460008054604080517f8da5cb5b0000000000000000000000000000000000000000000000000000000081529051600160a060020a03948516946323b872dd94309490911692638da5cb5b9260048083019360209383900390910190829087803b1580156113c457600080fd5b505af11580156113d8573d6000803e3d6000fd5b505050506040513d60208110156113ee57600080fd5b50516040805160e060020a63ffffffff8616028152600160a060020a039384166004820152929091166024830152604482018990525160648083019260209291908290030181600087803b15801561144557600080fd5b505af1158015611459573d6000803e3d6000fd5b505050506040513d602081101561146f57600080fd5b505115156114c7576040805160e560020a62461bcd02815260206004820152601260248201527f556e61626c6520746f2074616b65206665650000000000000000000000000000604482015290519081900360640190fd5b506001949350505050565b600354600160a060020a031681565b60035460009060a060020a900460ff1615156114c75760075460ff161561150a57506002611652565b6007546301000000900460ff16801561152a5750600160a060020a038416155b1561153757506002611652565b600754610100900460ff161561157557611550846124e6565b80156115605750611560856124e6565b61156b57600161156e565b60025b9050611652565b60075462010000900460ff16801561159a5750600454600160a060020a038681169116145b156115e457600160a060020a03841660009081526006602052604090206003015460ff161580156115ce57506115ce612553565b156115db57506001611652565b611560846124e6565b6115ed856124e6565b80156116115750600160a060020a0385166000908152600660205260409020544210155b80156115605750611621846124e6565b80156115605750600160a060020a03841660009081526006602052604090206001015442101561156b57600161156e565b949350505050565b60d860020a64464c41475302600080600160009054906101000a9004600160a060020a0316600160a060020a0316638da5cb5b6040518163ffffffff1660e060020a028152600401602060405180830381600087803b1580156116bc57600080fd5b505af11580156116d0573d6000803e3d6000fd5b505050506040513d60208110156116e657600080fd5b505160005433600160a060020a0392831681149450911614905081806117095750805b8061179957506001546040805160e060020a638658b8b9028152336004820152306024820152604481018690529051600160a060020a0390921691638658b8b9916064808201926020929091908290030181600087803b15801561176c57600080fd5b505af1158015611780573d6000803e3d6000fd5b505050506040513d602081101561179657600080fd5b50515b15156117dd576040805160e560020a62461bcd02815260206004820152601760248201526000805160206126a4833981519152604482015290519081900360640190fd5b6007805485151562010000810262ff0000199092169190911790915560408051918252517f4b711350abee425bbbbd22b0a6615df775a36f2838168ca64da9177ad8fec1609181900360200190a150505050565b600160009054906101000a9004600160a060020a0316600160a060020a0316638da5cb5b6040518163ffffffff1660e060020a028152600401602060405180830381600087803b15801561188457600080fd5b505af1158015611898573d6000803e3d6000fd5b505050506040513d60208110156118ae57600080fd5b5051600160a060020a0316331461190f576040805160e560020a62461bcd02815260206004820152601360248201527f53656e646572206973206e6f74206f776e657200000000000000000000000000604482015290519081900360640190fd5b610fe0612613565b60d860020a64464c41475302600080600160009054906101000a9004600160a060020a0316600160a060020a0316638da5cb5b6040518163ffffffff1660e060020a028152600401602060405180830381600087803b15801561197957600080fd5b505af115801561198d573d6000803e3d6000fd5b505050506040513d60208110156119a357600080fd5b505160005433600160a060020a0392831681149450911614905081806119c65750805b80611a5657506001546040805160e060020a638658b8b9028152336004820152306024820152604481018690529051600160a060020a0390921691638658b8b9916064808201926020929091908290030181600087803b158015611a2957600080fd5b505af1158015611a3d573d6000803e3d6000fd5b505050506040513d6020811015611a5357600080fd5b50515b1515611a9a576040805160e560020a62461bcd02815260206004820152601760248201526000805160206126a4833981519152604482015290519081900360640190fd5b60078054851515610100810261ff00199092169190911790915560408051918252517f7544dcc0388a2e2a001b92ece53af2e1e3135973ff37e5dcd80a12cf5ed2b4259181900360200190a150505050565b60d860020a64464c4147530281565b60066020526000908152604090208054600182015460028301546003909301549192909160ff1684565b60075460ff1681565b600554600160a060020a031681565b600454600160a060020a031681565b600154600160a060020a031681565b604080516002808252606080830184529283929190602083019080388339019050509050600080516020612684833981519152816000815181101515611b9d57fe5b60209081029091010152805160d860020a64464c414753029082906001908110611bc357fe5b602090810290910101529050805b5090565b600054600160a060020a031681565b60025481565b600080516020612684833981519152600080600160009054906101000a9004600160a060020a0316600160a060020a0316638da5cb5b6040518163ffffffff1660e060020a028152600401602060405180830381600087803b158015611c4f57600080fd5b505af1158015611c63573d6000803e3d6000fd5b505050506040513d6020811015611c7957600080fd5b505160005433600160a060020a039283168114945091161490508180611c9c5750805b80611d2c57506001546040805160e060020a638658b8b9028152336004820152306024820152604481018690529051600160a060020a0390921691638658b8b9916064808201926020929091908290030181600087803b158015611cff57600080fd5b505af1158015611d13573d6000803e3d6000fd5b505050506040513d6020811015611d2957600080fd5b50515b1515611d70576040805160e560020a62461bcd02815260206004820152601760248201526000805160206126a4833981519152604482015290519081900360640190fd5b608060405190810160405280888152602001878152602001868152602001851515815250600660008a600160a060020a0316600160a060020a0316815260200190815260200160002060008201518160000155602082015181600101556040820151816002015560608201518160030160006101000a81548160ff0219169083151502179055509050507f7a985b3a91e6a809b9457eb0e56c26c57186f124ae7e661ef14fa3518d49cdba8842338a8a8a8a6040518088600160a060020a0316600160a060020a0316815260200187815260200186600160a060020a0316600160a060020a031681526020018581526020018481526020018381526020018215151515815260200197505050505050505060405180910390a15050505050505050565b60d860020a64464c41475302600080600160009054906101000a9004600160a060020a0316600160a060020a0316638da5cb5b6040518163ffffffff1660e060020a028152600401602060405180830381600087803b158015611ef557600080fd5b505af1158015611f09573d6000803e3d6000fd5b505050506040513d6020811015611f1f57600080fd5b505160005433600160a060020a039283168114945091161490508180611f425750805b80611fd257506001546040805160e060020a638658b8b9028152336004820152306024820152604481018690529051600160a060020a0390921691638658b8b9916064808201926020929091908290030181600087803b158015611fa557600080fd5b505af1158015611fb9573d6000803e3d6000fd5b505050506040513d6020811015611fcf57600080fd5b50515b1515612016576040805160e560020a62461bcd02815260206004820152601760248201526000805160206126a4833981519152604482015290519081900360640190fd5b60048054600160a060020a03861673ffffffffffffffffffffffffffffffffffffffff19909116811790915560408051918252517f0e2eb0247b22c29b3f02a9a2b65eae999b4117981e84dc701ce1fb6830a6ac5f9181900360200190a150505050565b60075462010000900460ff1681565b60d860020a64464c41475302600080600160009054906101000a9004600160a060020a0316600160a060020a0316638da5cb5b6040518163ffffffff1660e060020a028152600401602060405180830381600087803b1580156120eb57600080fd5b505af11580156120ff573d6000803e3d6000fd5b505050506040513d602081101561211557600080fd5b505160005433600160a060020a0392831681149450911614905081806121385750805b806121c857506001546040805160e060020a638658b8b9028152336004820152306024820152604481018690529051600160a060020a0390921691638658b8b9916064808201926020929091908290030181600087803b15801561219b57600080fd5b505af11580156121af573d6000803e3d6000fd5b505050506040513d60208110156121c557600080fd5b50515b151561220c576040805160e560020a62461bcd02815260206004820152601760248201526000805160206126a4833981519152604482015290519081900360640190fd5b600780548515156301000000810263ff000000199092169190911790915560408051918252517f1234a547e9a90612dd64cdca6ea7120623490ff57b5762b1e6f7bec9a81aaa409181900360200190a150505050565b600060018560405160200180807f19457468657265756d205369676e6564204d6573736167653a0a333200000000815250601c0182600019166000191681526020019150506040516020818303038152906040526040518082805190602001908083835b602083106122e55780518252601f1990920191602091820191016122c6565b51815160209384036101000a60001901801990921691161790526040805192909401829003822060008084528383018087529190915260ff8c1683860152606083018b9052608083018a9052935160a08084019750919550601f1981019492819003909101925090865af1158015612361573d6000803e3d6000fd5b505060408051601f198101516001547f8da5cb5b0000000000000000000000000000000000000000000000000000000083529251909450600160a060020a039092169250638da5cb5b9160048083019260209291908290030181600087803b1580156123cc57600080fd5b505af11580156123e0573d6000803e3d6000fd5b505050506040513d60208110156123f657600080fd5b5051600160a060020a038281169116148061241e5750600554600160a060020a038281169116145b1515612474576040805160e560020a62461bcd02815260206004820152601060248201527f496e636f7272656374207369676e657200000000000000000000000000000000604482015290519081900360640190fd5b5050505050565b60035460a060020a900460ff16151561249357600080fd5b6003805474ff0000000000000000000000000000000000000000191690556040805142815290517faaa520fdd7d2c83061d632fa017b0432407e798818af63ea908589fceda39ab79181900360200190a1565b600160a060020a0381166000908152600660205260408120541515806125265750600160a060020a03821660009081526006602052604090206001015415155b801561254d5750600160a060020a0382166000908152600660205260409020600201544211155b92915050565b600154604080517f46b65ffd00000000000000000000000000000000000000000000000000000000815260036004820152600060248201819052825190938493600160a060020a03909116926346b65ffd926044808301939282900301818787803b1580156125c157600080fd5b505af11580156125d5573d6000803e3d6000fd5b505050506040513d60408110156125eb57600080fd5b50602001519050600160a060020a038116151561260b5760009150611bd1565b600191505090565b60035460a060020a900460ff161561262a57600080fd5b6003805474ff0000000000000000000000000000000000000000191660a060020a1790556040805142815290517f68b095021b1f40fe513109f513c66692f0b3219aee674a69f4efc57badb8201d9181900360200190a1560057484954454c49535400000000000000000000000000000000000000000000005065726d697373696f6e20636865636b206661696c6564000000000000000000a165627a7a72305820929df157454b8a9be90b93f57f4690169efa30a992b543ca88de5678c67cb9ef0029",
  "source": "pragma solidity ^0.4.24;\n\nimport \"./ITransferManager.sol\";\nimport \"openzeppelin-solidity/contracts/math/SafeMath.sol\";\n\n/////////////////////\n// Module permissions\n/////////////////////\n//                                        Owner       WHITELIST      FLAGS\n// changeIssuanceAddress                    X                          X\n// changeAllowAllTransfers                  X                          X\n// changeAllowAllWhitelistTransfers         X                          X\n// changeAllowAllWhitelistIssuances         X                          X\n// modifyWhitelist                          X             X\n// modifyWhitelistMulti                     X             X\n\n/**\n * @title Transfer Manager module for core transfer validation functionality\n */\ncontract GeneralTransferManager is ITransferManager {\n\n    using SafeMath for uint256;\n\n    //Address from which issuances come\n    address public issuanceAddress = address(0);\n\n    //Address which can sign whitelist changes\n    address public signingAddress = address(0);\n\n    bytes32 public constant WHITELIST = \"WHITELIST\";\n    bytes32 public constant FLAGS = \"FLAGS\";\n\n    //from and to timestamps that an investor can send / receive tokens respectively\n    struct TimeRestriction {\n        uint256 fromTime;\n        uint256 toTime;\n        uint256 expiryTime;\n        bool canBuyFromSTO;\n    }\n\n    // An address can only send / receive tokens once their corresponding uint256 > block.number\n    // (unless allowAllTransfers == true or allowAllWhitelistTransfers == true)\n    mapping (address => TimeRestriction) public whitelist;\n\n    //If true, there are no transfer restrictions, for any addresses\n    bool public allowAllTransfers = false;\n    //If true, time lock is ignored for transfers (address must still be on whitelist)\n    bool public allowAllWhitelistTransfers = false;\n    //If true, time lock is ignored for issuances (address must still be on whitelist)\n    bool public allowAllWhitelistIssuances = true;\n    //If true, time lock is ignored for burn transactions\n    bool public allowAllBurnTransfers = false;\n\n    // Emit when Issuance address get changed\n    event LogChangeIssuanceAddress(address _issuanceAddress);\n    // Emit when there is change in the flag variable called allowAllTransfers\n    event LogAllowAllTransfers(bool _allowAllTransfers);\n    // Emit when there is change in the flag variable called allowAllWhitelistTransfers\n    event LogAllowAllWhitelistTransfers(bool _allowAllWhitelistTransfers);\n    // Emit when there is change in the flag variable called allowAllWhitelistIssuances\n    event LogAllowAllWhitelistIssuances(bool _allowAllWhitelistIssuances);\n    // Emit when there is change in the flag variable called allowAllBurnTransfers\n    event LogAllowAllBurnTransfers(bool _allowAllBurnTransfers);\n    // Emit when there is change in the flag variable called signingAddress\n    event LogChangeSigningAddress(address _signingAddress);\n    // Emit when investor details get modified related to their whitelisting\n    event LogModifyWhitelist(\n        address _investor,\n        uint256 _dateAdded,\n        address _addedBy,\n        uint256 _fromTime,\n        uint256 _toTime,\n        uint256 _expiryTime,\n        bool _canBuyFromSTO\n    );\n\n    /**\n     * @notice Constructor\n     * @param _securityToken Address of the security token\n     * @param _polyAddress Address of the polytoken\n     */\n    constructor (address _securityToken, address _polyAddress)\n    public\n    IModule(_securityToken, _polyAddress)\n    {\n    }\n\n    /**\n     * @notice This function returns the signature of configure function\n     */\n    function getInitFunction() public returns(bytes4) {\n        return bytes4(0);\n    }\n\n    /**\n     * @notice Used to change the Issuance Address\n     * @param _issuanceAddress new address for the issuance\n     */\n    function changeIssuanceAddress(address _issuanceAddress) public withPerm(FLAGS) {\n        issuanceAddress = _issuanceAddress;\n        emit LogChangeIssuanceAddress(_issuanceAddress);\n    }\n\n    /**\n     * @notice Used to change the Sigining Address\n     * @param _signingAddress new address for the signing\n     */\n    function changeSigningAddress(address _signingAddress) public withPerm(FLAGS) {\n        signingAddress = _signingAddress;\n        emit LogChangeSigningAddress(_signingAddress);\n    }\n\n    /**\n     * @notice Used to change the flag\n            true - It refers there are no transfer restrictions, for any addresses\n            false - It refers transfers are restricted for all addresses.\n     * @param _allowAllTransfers flag value\n     */\n    function changeAllowAllTransfers(bool _allowAllTransfers) public withPerm(FLAGS) {\n        allowAllTransfers = _allowAllTransfers;\n        emit LogAllowAllTransfers(_allowAllTransfers);\n    }\n\n    /**\n     * @notice Used to change the flag\n            true - It refers that time lock is ignored for transfers (address must still be on whitelist)\n            false - It refers transfers are restricted for all addresses.\n     * @param _allowAllWhitelistTransfers flag value\n     */\n    function changeAllowAllWhitelistTransfers(bool _allowAllWhitelistTransfers) public withPerm(FLAGS) {\n        allowAllWhitelistTransfers = _allowAllWhitelistTransfers;\n        emit LogAllowAllWhitelistTransfers(_allowAllWhitelistTransfers);\n    }\n\n    /**\n     * @notice Used to change the flag\n            true - It refers that time lock is ignored for issuances (address must still be on whitelist)\n            false - It refers transfers are restricted for all addresses.\n     * @param _allowAllWhitelistIssuances flag value\n     */\n    function changeAllowAllWhitelistIssuances(bool _allowAllWhitelistIssuances) public withPerm(FLAGS) {\n        allowAllWhitelistIssuances = _allowAllWhitelistIssuances;\n        emit LogAllowAllWhitelistIssuances(_allowAllWhitelistIssuances);\n    }\n\n    /**\n     * @notice Used to change the flag\n            true - It allow to burn the tokens\n            false - It deactivate the burning mechanism.\n     * @param _allowAllBurnTransfers flag value\n     */\n    function changeAllowAllBurnTransfers(bool _allowAllBurnTransfers) public withPerm(FLAGS) {\n        allowAllBurnTransfers = _allowAllBurnTransfers;\n        emit LogAllowAllBurnTransfers(_allowAllBurnTransfers);\n    }\n\n    /**\n    * @notice default implementation of verifyTransfer used by SecurityToken\n    * If the transfer request comes from the STO, it only checks that the investor is in the whitelist\n    * If the transfer request comes from a token holder, it checks that:\n    * a) Both are on the whitelist\n    * b) Seller's sale lockup period is over\n    * c) Buyer's purchase lockup is over\n    */\n    function verifyTransfer(address _from, address _to, uint256 /*_amount*/, bool /* _isTransfer */) public returns(Result) {\n        if (!paused) {\n            if (allowAllTransfers) {\n                //All transfers allowed, regardless of whitelist\n                return Result.VALID;\n            }\n            if (allowAllBurnTransfers && (_to == address(0))) {\n                return Result.VALID;\n            }\n            if (allowAllWhitelistTransfers) {\n                //Anyone on the whitelist can transfer, regardless of block number\n                return (onWhitelist(_to) && onWhitelist(_from)) ? Result.VALID : Result.NA;\n            }\n            if (allowAllWhitelistIssuances && _from == issuanceAddress) {\n                if (!whitelist[_to].canBuyFromSTO && isSTOAttached()) {\n                    return Result.NA;\n                }\n                return onWhitelist(_to) ? Result.VALID : Result.NA;\n            }\n            //Anyone on the whitelist can transfer provided the blocknumber is large enough\n            return ((onWhitelist(_from) && whitelist[_from].fromTime <= now) &&\n                (onWhitelist(_to) && whitelist[_to].toTime <= now)) ? Result.VALID : Result.NA;\n        }\n        return Result.NA;\n    }\n\n    /**\n    * @notice adds or removes addresses from the whitelist.\n    * @param _investor is the address to whitelist\n    * @param _fromTime is the moment when the sale lockup period ends and the investor can freely sell his tokens\n    * @param _toTime is the moment when the purchase lockup period ends and the investor can freely purchase tokens from others\n    * @param _expiryTime is the moment till investors KYC will be validated. After that investor need to do re-KYC\n    * @param _canBuyFromSTO is used to know whether the investor is restricted investor or not.\n    */\n    function modifyWhitelist(address _investor, uint256 _fromTime, uint256 _toTime, uint256 _expiryTime, bool _canBuyFromSTO) public withPerm(WHITELIST) {\n        //Passing a _time == 0 into this function, is equivalent to removing the _investor from the whitelist\n        whitelist[_investor] = TimeRestriction(_fromTime, _toTime, _expiryTime, _canBuyFromSTO);\n        emit LogModifyWhitelist(_investor, now, msg.sender, _fromTime, _toTime, _expiryTime, _canBuyFromSTO);\n    }\n\n    /**\n    * @notice adds or removes addresses from the whitelist.\n    * @param _investors List of the addresses to whitelist\n    * @param _fromTimes An array of the moment when the sale lockup period ends and the investor can freely sell his tokens\n    * @param _toTimes An array of the moment when the purchase lockup period ends and the investor can freely purchase tokens from others\n    * @param _expiryTimes An array of the moment till investors KYC will be validated. After that investor need to do re-KYC\n    * @param _canBuyFromSTO An array of boolean values\n    */\n    function modifyWhitelistMulti(\n        address[] _investors,\n        uint256[] _fromTimes,\n        uint256[] _toTimes,\n        uint256[] _expiryTimes,\n        bool[] _canBuyFromSTO\n    ) public withPerm(WHITELIST) {\n        require(_investors.length == _fromTimes.length, \"Mismatched input lengths\");\n        require(_fromTimes.length == _toTimes.length, \"Mismatched input lengths\");\n        require(_toTimes.length == _expiryTimes.length, \"Mismatched input lengths\");\n        require(_canBuyFromSTO.length == _toTimes.length, \"Mismatched input length\");\n        for (uint256 i = 0; i < _investors.length; i++) {\n            modifyWhitelist(_investors[i], _fromTimes[i], _toTimes[i], _expiryTimes[i], _canBuyFromSTO[i]);\n        }\n    }\n\n    /**\n    * @notice adds or removes addresses from the whitelist - can be called by anyone with a valid signature\n    * @param _investor is the address to whitelist\n    * @param _fromTime is the moment when the sale lockup period ends and the investor can freely sell his tokens\n    * @param _toTime is the moment when the purchase lockup period ends and the investor can freely purchase tokens from others\n    * @param _expiryTime is the moment till investors KYC will be validated. After that investor need to do re-KYC\n    * @param _canBuyFromSTO is used to know whether the investor is restricted investor or not.\n    * @param _validFrom is the time that this signature is valid from\n    * @param _validTo is the time that this signature is valid until\n    * @param _v issuer signature\n    * @param _r issuer signature\n    * @param _s issuer signature\n    */\n    function modifyWhitelistSigned(\n        address _investor,\n        uint256 _fromTime,\n        uint256 _toTime,\n        uint256 _expiryTime,\n        bool _canBuyFromSTO,\n        uint256 _validFrom,\n        uint256 _validTo,\n        uint8 _v,\n        bytes32 _r,\n        bytes32 _s\n    ) public {\n        require(_validFrom <= now, \"ValidFrom is too early\");\n        require(_validTo >= now, \"ValidTo is too late\");\n        bytes32 hash = keccak256(abi.encodePacked(this, _investor, _fromTime, _toTime, _expiryTime, _canBuyFromSTO, _validFrom, _validTo));\n        checkSig(hash, _v, _r, _s);\n        //Passing a _time == 0 into this function, is equivalent to removing the _investor from the whitelist\n        whitelist[_investor] = TimeRestriction(_fromTime, _toTime, _expiryTime, _canBuyFromSTO);\n        emit LogModifyWhitelist(_investor, now, msg.sender, _fromTime, _toTime, _expiryTime, _canBuyFromSTO);\n    }\n\n    /**\n     * @notice used to verify the signature\n     */\n    function checkSig(bytes32 _hash, uint8 _v, bytes32 _r, bytes32 _s) internal view {\n        //Check that the signature is valid\n        //sig should be signing - _investor, _fromTime, _toTime & _expiryTime and be signed by the issuer address\n        address signer = ecrecover(keccak256(abi.encodePacked(\"\\x19Ethereum Signed Message:\\n32\", _hash)), _v, _r, _s);\n        require(signer == ISecurityToken(securityToken).owner() || signer == signingAddress, \"Incorrect signer\");\n    }\n\n    /**\n     * @notice Return the permissions flag that are associated with general trnasfer manager\n     */\n    function getPermissions() public view returns(bytes32[]) {\n        bytes32[] memory allPermissions = new bytes32[](2);\n        allPermissions[0] = WHITELIST;\n        allPermissions[1] = FLAGS;\n        return allPermissions;\n    }\n\n    /**\n     * @notice Internal function used to check whether the investor is in the whitelist or not\n            & also checks whether the KYC of investor get expired or not\n     * @param _investor Address of the investor\n     */\n    function onWhitelist(address _investor) internal view returns(bool) {\n        return (((whitelist[_investor].fromTime != 0) || (whitelist[_investor].toTime != 0)) &&\n            (whitelist[_investor].expiryTime >= now));\n    }\n\n    /**\n     * @notice Internal function use to know whether the STO is attached or not\n     */\n    function isSTOAttached() internal view returns(bool) {\n        address _sto;\n        (, _sto) = ISecurityToken(securityToken).getModule(3, 0);\n        if (_sto == address(0))\n            return false;\n        return true;\n    }\n\n}\n",
  "sourcePath": "/Users/Yihan/st/contracts/modules/TransferManager/GeneralTransferManager.sol",
  "compiler": {
    "name": "solc",
    "version": "0.4.24+commit.e67f0147.Emscripten.clang"
  },
  "schemaVersion": "2.0.0",
  "updatedAt": "2018-07-09T19:15:50.942Z"
}