{
  "contractName": "ManualApprovalTransferManager",
  "abi": [
    {
      "constant": false,
      "inputs": [],
      "name": "unpause",
      "outputs": [],
      "payable": false,
      "stateMutability": "nonpayable",
      "type": "function"
    },
    {
      "constant": true,
      "inputs": [
        {
          "name": "",
          "type": "address"
        },
        {
          "name": "",
          "type": "address"
        }
      ],
      "name": "manualBlockings",
      "outputs": [
        {
          "name": "expiryTime",
          "type": "uint256"
        }
      ],
      "payable": false,
      "stateMutability": "view",
      "type": "function"
    },
    {
      "constant": true,
      "inputs": [],
      "name": "paused",
      "outputs": [
        {
          "name": "",
          "type": "bool"
        }
      ],
      "payable": false,
      "stateMutability": "view",
      "type": "function"
    },
    {
      "constant": false,
      "inputs": [
        {
          "name": "_amount",
          "type": "uint256"
        }
      ],
      "name": "takeFee",
      "outputs": [
        {
          "name": "",
          "type": "bool"
        }
      ],
      "payable": false,
      "stateMutability": "nonpayable",
      "type": "function"
    },
    {
      "constant": true,
      "inputs": [],
      "name": "polyToken",
      "outputs": [
        {
          "name": "",
          "type": "address"
        }
      ],
      "payable": false,
      "stateMutability": "view",
      "type": "function"
    },
    {
      "constant": false,
      "inputs": [],
      "name": "pause",
      "outputs": [],
      "payable": false,
      "stateMutability": "nonpayable",
      "type": "function"
    },
    {
      "constant": true,
      "inputs": [
        {
          "name": "",
          "type": "address"
        },
        {
          "name": "",
          "type": "address"
        }
      ],
      "name": "manualApprovals",
      "outputs": [
        {
          "name": "allowance",
          "type": "uint256"
        },
        {
          "name": "expiryTime",
          "type": "uint256"
        }
      ],
      "payable": false,
      "stateMutability": "view",
      "type": "function"
    },
    {
      "constant": true,
      "inputs": [],
      "name": "TRANSFER_APPROVAL",
      "outputs": [
        {
          "name": "",
          "type": "bytes32"
        }
      ],
      "payable": false,
      "stateMutability": "view",
      "type": "function"
    },
    {
      "constant": true,
      "inputs": [],
      "name": "signingAddress",
      "outputs": [
        {
          "name": "",
          "type": "address"
        }
      ],
      "payable": false,
      "stateMutability": "view",
      "type": "function"
    },
    {
      "constant": true,
      "inputs": [],
      "name": "issuanceAddress",
      "outputs": [
        {
          "name": "",
          "type": "address"
        }
      ],
      "payable": false,
      "stateMutability": "view",
      "type": "function"
    },
    {
      "constant": true,
      "inputs": [],
      "name": "securityToken",
      "outputs": [
        {
          "name": "",
          "type": "address"
        }
      ],
      "payable": false,
      "stateMutability": "view",
      "type": "function"
    },
    {
      "constant": true,
      "inputs": [],
      "name": "factory",
      "outputs": [
        {
          "name": "",
          "type": "address"
        }
      ],
      "payable": false,
      "stateMutability": "view",
      "type": "function"
    },
    {
      "constant": true,
      "inputs": [],
      "name": "FEE_ADMIN",
      "outputs": [
        {
          "name": "",
          "type": "bytes32"
        }
      ],
      "payable": false,
      "stateMutability": "view",
      "type": "function"
    },
    {
      "inputs": [
        {
          "name": "_securityToken",
          "type": "address"
        },
        {
          "name": "_polyAddress",
          "type": "address"
        }
      ],
      "payable": false,
      "stateMutability": "nonpayable",
      "type": "constructor"
    },
    {
      "anonymous": false,
      "inputs": [
        {
          "indexed": false,
          "name": "_from",
          "type": "address"
        },
        {
          "indexed": false,
          "name": "_to",
          "type": "address"
        },
        {
          "indexed": false,
          "name": "_allowance",
          "type": "uint256"
        },
        {
          "indexed": false,
          "name": "_expiryTime",
          "type": "uint256"
        },
        {
          "indexed": false,
          "name": "_addedBy",
          "type": "address"
        }
      ],
      "name": "LogAddManualApproval",
      "type": "event"
    },
    {
      "anonymous": false,
      "inputs": [
        {
          "indexed": false,
          "name": "_from",
          "type": "address"
        },
        {
          "indexed": false,
          "name": "_to",
          "type": "address"
        },
        {
          "indexed": false,
          "name": "_expiryTime",
          "type": "uint256"
        },
        {
          "indexed": false,
          "name": "_addedBy",
          "type": "address"
        }
      ],
      "name": "LogAddManualBlocking",
      "type": "event"
    },
    {
      "anonymous": false,
      "inputs": [
        {
          "indexed": false,
          "name": "_from",
          "type": "address"
        },
        {
          "indexed": false,
          "name": "_to",
          "type": "address"
        },
        {
          "indexed": false,
          "name": "_addedBy",
          "type": "address"
        }
      ],
      "name": "LogRevokeManualApproval",
      "type": "event"
    },
    {
      "anonymous": false,
      "inputs": [
        {
          "indexed": false,
          "name": "_from",
          "type": "address"
        },
        {
          "indexed": false,
          "name": "_to",
          "type": "address"
        },
        {
          "indexed": false,
          "name": "_addedBy",
          "type": "address"
        }
      ],
      "name": "LogRevokeManualBlocking",
      "type": "event"
    },
    {
      "anonymous": false,
      "inputs": [
        {
          "indexed": false,
          "name": "_timestammp",
          "type": "uint256"
        }
      ],
      "name": "Pause",
      "type": "event"
    },
    {
      "anonymous": false,
      "inputs": [
        {
          "indexed": false,
          "name": "_timestamp",
          "type": "uint256"
        }
      ],
      "name": "Unpause",
      "type": "event"
    },
    {
      "constant": false,
      "inputs": [],
      "name": "getInitFunction",
      "outputs": [
        {
          "name": "",
          "type": "bytes4"
        }
      ],
      "payable": false,
      "stateMutability": "nonpayable",
      "type": "function"
    },
    {
      "constant": false,
      "inputs": [
        {
          "name": "_from",
          "type": "address"
        },
        {
          "name": "_to",
          "type": "address"
        },
        {
          "name": "_amount",
          "type": "uint256"
        },
        {
          "name": "_isTransfer",
          "type": "bool"
        }
      ],
      "name": "verifyTransfer",
      "outputs": [
        {
          "name": "",
          "type": "uint8"
        }
      ],
      "payable": false,
      "stateMutability": "nonpayable",
      "type": "function"
    },
    {
      "constant": false,
      "inputs": [
        {
          "name": "_from",
          "type": "address"
        },
        {
          "name": "_to",
          "type": "address"
        },
        {
          "name": "_allowance",
          "type": "uint256"
        },
        {
          "name": "_expiryTime",
          "type": "uint256"
        }
      ],
      "name": "addManualApproval",
      "outputs": [],
      "payable": false,
      "stateMutability": "nonpayable",
      "type": "function"
    },
    {
      "constant": false,
      "inputs": [
        {
          "name": "_from",
          "type": "address"
        },
        {
          "name": "_to",
          "type": "address"
        },
        {
          "name": "_expiryTime",
          "type": "uint256"
        }
      ],
      "name": "addManualBlocking",
      "outputs": [],
      "payable": false,
      "stateMutability": "nonpayable",
      "type": "function"
    },
    {
      "constant": false,
      "inputs": [
        {
          "name": "_from",
          "type": "address"
        },
        {
          "name": "_to",
          "type": "address"
        }
      ],
      "name": "revokeManualApproval",
      "outputs": [],
      "payable": false,
      "stateMutability": "nonpayable",
      "type": "function"
    },
    {
      "constant": false,
      "inputs": [
        {
          "name": "_from",
          "type": "address"
        },
        {
          "name": "_to",
          "type": "address"
        }
      ],
      "name": "revokeManualBlocking",
      "outputs": [],
      "payable": false,
      "stateMutability": "nonpayable",
      "type": "function"
    },
    {
      "constant": true,
      "inputs": [],
      "name": "getPermissions",
      "outputs": [
        {
          "name": "",
          "type": "bytes32[]"
        }
      ],
      "payable": false,
      "stateMutability": "view",
      "type": "function"
    }
  ],
  "bytecode": "0x60806040527f4645455f41444d494e00000000000000000000000000000000000000000000006002556003805460a060020a60ff021916905560048054600160a060020a031990811690915560058054909116905534801561006057600080fd5b506040516040806118b383398101604052805160209091015160018054600160a060020a03938416600160a060020a03199182161790915560008054821633179055600380549390921692169190911790556117f2806100c16000396000f3006080604052600436106100f85763ffffffff60e060020a6000350416631613ec9d81146100fd57806339d04b6c146101475780633f4ba83a1461017657806340bb79851461018b5780635c975abb146101c45780635f7619a4146101ed5780636faa22a51461020557806370aad962146102365780637915c9e0146102605780637dc32b0b146102b35780638456cb59146102da578063889b2cc3146102ef5780639f7cd0ef1461032f578063b3e82dc914610344578063b3fac8ce14610359578063b84dfbd21461036e578063c3a07df614610383578063c45a0155146103e8578063d70afa96146103fd578063ed9d787314610412575b600080fd5b34801561010957600080fd5b50610112610439565b604080517fffffffff000000000000000000000000000000000000000000000000000000009092168252519081900360200190f35b34801561015357600080fd5b50610174600160a060020a036004358116906024351660443560643561043e565b005b34801561018257600080fd5b50610174610751565b34801561019757600080fd5b506101b2600160a060020a0360043581169060243516610839565b60408051918252519081900360200190f35b3480156101d057600080fd5b506101d9610856565b604080519115158252519081900360200190f35b3480156101f957600080fd5b506101d9600435610866565b34801561021157600080fd5b5061021a610b5f565b60408051600160a060020a039092168252519081900360200190f35b34801561024257600080fd5b50610174600160a060020a0360043581169060243516604435610b6e565b34801561026c57600080fd5b5061028f600160a060020a03600435811690602435166044356064351515610e66565b6040518082600381111561029f57fe5b60ff16815260200191505060405180910390f35b3480156102bf57600080fd5b50610174600160a060020a0360043581169060243516610f81565b3480156102e657600080fd5b50610174611218565b3480156102fb57600080fd5b50610316600160a060020a03600435811690602435166112fe565b6040805192835260208301919091528051918290030190f35b34801561033b57600080fd5b506101b2611322565b34801561035057600080fd5b5061021a611334565b34801561036557600080fd5b5061021a611343565b34801561037a57600080fd5b5061021a611352565b34801561038f57600080fd5b50610398611361565b60408051602080825283518183015283519192839290830191858101910280838360005b838110156103d45781810151838201526020016103bc565b505050509050019250505060405180910390f35b3480156103f457600080fd5b5061021a6113b3565b34801561040957600080fd5b506101b26113c2565b34801561041e57600080fd5b50610174600160a060020a03600435811690602435166113c8565b600090565b600080516020611787833981519152600080600160009054906101000a9004600160a060020a0316600160a060020a0316638da5cb5b6040518163ffffffff1660e060020a028152600401602060405180830381600087803b1580156104a357600080fd5b505af11580156104b7573d6000803e3d6000fd5b505050506040513d60208110156104cd57600080fd5b505160005433600160a060020a0392831681149450911614905081806104f05750805b8061058057506001546040805160e060020a638658b8b9028152336004820152306024820152604481018690529051600160a060020a0390921691638658b8b9916064808201926020929091908290030181600087803b15801561055357600080fd5b505af1158015610567573d6000803e3d6000fd5b505050506040513d602081101561057d57600080fd5b50515b15156105c4576040805160e560020a62461bcd02815260206004820152601760248201526000805160206117a7833981519152604482015290519081900360640190fd5b600160a060020a0387161515610612576040805160e560020a62461bcd0281526020600482015260146024820152600080516020611747833981519152604482015290519081900360640190fd5b600160a060020a0386161515610660576040805160e560020a62461bcd0281526020600482015260126024820152600080516020611767833981519152604482015290519081900360640190fd5b4284116106b7576040805160e560020a62461bcd02815260206004820152601360248201527f496e76616c6964206578706972792074696d6500000000000000000000000000604482015290519081900360640190fd5b6040805180820182528681526020808201878152600160a060020a03808c16600081815260068552868120928d168082529285528690209451855591516001909401939093558351908152908101919091528082018790526060810186905233608082015290517f90ee15f89c9a607f731c9e21490aa4fb787765ca244780c4cf14e60b6982fd6b9181900360a00190a150505050505050565b600160009054906101000a9004600160a060020a0316600160a060020a0316638da5cb5b6040518163ffffffff1660e060020a028152600401602060405180830381600087803b1580156107a457600080fd5b505af11580156107b8573d6000803e3d6000fd5b505050506040513d60208110156107ce57600080fd5b5051600160a060020a0316331461082f576040805160e560020a62461bcd02815260206004820152601360248201527f53656e646572206973206e6f74206f776e657200000000000000000000000000604482015290519081900360640190fd5b610837611659565b565b600760209081526000928352604080842090915290825290205481565b60035460a060020a900460ff1681565b6000600254600080600160009054906101000a9004600160a060020a0316600160a060020a0316638da5cb5b6040518163ffffffff1660e060020a028152600401602060405180830381600087803b1580156108c157600080fd5b505af11580156108d5573d6000803e3d6000fd5b505050506040513d60208110156108eb57600080fd5b505160005433600160a060020a03928316811494509116149050818061090e5750805b8061099e57506001546040805160e060020a638658b8b9028152336004820152306024820152604481018690529051600160a060020a0390921691638658b8b9916064808201926020929091908290030181600087803b15801561097157600080fd5b505af1158015610985573d6000803e3d6000fd5b505050506040513d602081101561099b57600080fd5b50515b15156109e2576040805160e560020a62461bcd02815260206004820152601760248201526000805160206117a7833981519152604482015290519081900360640190fd5b60035460008054604080517f8da5cb5b0000000000000000000000000000000000000000000000000000000081529051600160a060020a03948516946323b872dd94309490911692638da5cb5b9260048083019360209383900390910190829087803b158015610a5157600080fd5b505af1158015610a65573d6000803e3d6000fd5b505050506040513d6020811015610a7b57600080fd5b50516040805160e060020a63ffffffff8616028152600160a060020a039384166004820152929091166024830152604482018990525160648083019260209291908290030181600087803b158015610ad257600080fd5b505af1158015610ae6573d6000803e3d6000fd5b505050506040513d6020811015610afc57600080fd5b50511515610b54576040805160e560020a62461bcd02815260206004820152601260248201527f556e61626c6520746f2074616b65206665650000000000000000000000000000604482015290519081900360640190fd5b506001949350505050565b600354600160a060020a031681565b600080516020611787833981519152600080600160009054906101000a9004600160a060020a0316600160a060020a0316638da5cb5b6040518163ffffffff1660e060020a028152600401602060405180830381600087803b158015610bd357600080fd5b505af1158015610be7573d6000803e3d6000fd5b505050506040513d6020811015610bfd57600080fd5b505160005433600160a060020a039283168114945091161490508180610c205750805b80610cb057506001546040805160e060020a638658b8b9028152336004820152306024820152604481018690529051600160a060020a0390921691638658b8b9916064808201926020929091908290030181600087803b158015610c8357600080fd5b505af1158015610c97573d6000803e3d6000fd5b505050506040513d6020811015610cad57600080fd5b50515b1515610cf4576040805160e560020a62461bcd02815260206004820152601760248201526000805160206117a7833981519152604482015290519081900360640190fd5b600160a060020a0386161515610d42576040805160e560020a62461bcd0281526020600482015260146024820152600080516020611747833981519152604482015290519081900360640190fd5b600160a060020a0385161515610d90576040805160e560020a62461bcd0281526020600482015260126024820152600080516020611767833981519152604482015290519081900360640190fd5b428411610de7576040805160e560020a62461bcd02815260206004820152601360248201527f496e76616c6964206578706972792074696d6500000000000000000000000000604482015290519081900360640190fd5b6040805160208181018352868252600160a060020a03808a16600081815260078452858120928b16808252928452859020935190935583519283529082015280820186905233606082015290517f025175e118727e402afd2852f5b550d8c3dd87e2d53f7315e978b815bbd31d189181900360800190a1505050505050565b60035460009060a060020a900460ff161515610b5457600160a060020a038086166000908152600760209081526040808320938816835292905220544211610eb057506000610f79565b600160a060020a038086166000908152600660209081526040808320938816835292905220600101544211801590610f0d5750600160a060020a038086166000908152600660209081526040808320938816835292905220548311155b15610b54578115610f7557600160a060020a03808616600090815260066020908152604080832093881683529290522054610f4e908463ffffffff6116c416565b600160a060020a038087166000908152600660209081526040808320938916835292905220555b5060025b949350505050565b600080516020611787833981519152600080600160009054906101000a9004600160a060020a0316600160a060020a0316638da5cb5b6040518163ffffffff1660e060020a028152600401602060405180830381600087803b158015610fe657600080fd5b505af1158015610ffa573d6000803e3d6000fd5b505050506040513d602081101561101057600080fd5b505160005433600160a060020a0392831681149450911614905081806110335750805b806110c357506001546040805160e060020a638658b8b9028152336004820152306024820152604481018690529051600160a060020a0390921691638658b8b9916064808201926020929091908290030181600087803b15801561109657600080fd5b505af11580156110aa573d6000803e3d6000fd5b505050506040513d60208110156110c057600080fd5b50515b1515611107576040805160e560020a62461bcd02815260206004820152601760248201526000805160206117a7833981519152604482015290519081900360640190fd5b600160a060020a0385161515611155576040805160e560020a62461bcd0281526020600482015260146024820152600080516020611747833981519152604482015290519081900360640190fd5b600160a060020a03841615156111a3576040805160e560020a62461bcd0281526020600482015260126024820152600080516020611767833981519152604482015290519081900360640190fd5b600160a060020a038086166000818152600660209081526040808320948916808452948252808320838155600101929092558151928352820192909252338183015290517f9b2aceb68830f5eb0ad13b4e30560c85439547deab0060ce984aae641d34b0069181900360600190a15050505050565b600160009054906101000a9004600160a060020a0316600160a060020a0316638da5cb5b6040518163ffffffff1660e060020a028152600401602060405180830381600087803b15801561126b57600080fd5b505af115801561127f573d6000803e3d6000fd5b505050506040513d602081101561129557600080fd5b5051600160a060020a031633146112f6576040805160e560020a62461bcd02815260206004820152601360248201527f53656e646572206973206e6f74206f776e657200000000000000000000000000604482015290519081900360640190fd5b6108376116d6565b60066020908152600092835260408084209091529082529020805460019091015482565b60008051602061178783398151915281565b600554600160a060020a031681565b600454600160a060020a031681565b600154600160a060020a031681565b604080516001808252818301909252606091829190602080830190803883390190505090506000805160206117878339815191528160008151811015156113a457fe5b60209081029091010152905090565b600054600160a060020a031681565b60025481565b600080516020611787833981519152600080600160009054906101000a9004600160a060020a0316600160a060020a0316638da5cb5b6040518163ffffffff1660e060020a028152600401602060405180830381600087803b15801561142d57600080fd5b505af1158015611441573d6000803e3d6000fd5b505050506040513d602081101561145757600080fd5b505160005433600160a060020a03928316811494509116149050818061147a5750805b8061150a57506001546040805160e060020a638658b8b9028152336004820152306024820152604481018690529051600160a060020a0390921691638658b8b9916064808201926020929091908290030181600087803b1580156114dd57600080fd5b505af11580156114f1573d6000803e3d6000fd5b505050506040513d602081101561150757600080fd5b50515b151561154e576040805160e560020a62461bcd02815260206004820152601760248201526000805160206117a7833981519152604482015290519081900360640190fd5b600160a060020a038516151561159c576040805160e560020a62461bcd0281526020600482015260146024820152600080516020611747833981519152604482015290519081900360640190fd5b600160a060020a03841615156115ea576040805160e560020a62461bcd0281526020600482015260126024820152600080516020611767833981519152604482015290519081900360640190fd5b600160a060020a038086166000818152600760209081526040808320948916808452948252808320929092558151928352820192909252338183015290517f1032078cb6646bf29e5931e893a691532173df464fbddfbe03d8f2da71c643bd9181900360600190a15050505050565b60035460a060020a900460ff16151561167157600080fd5b6003805474ff0000000000000000000000000000000000000000191690556040805142815290517faaa520fdd7d2c83061d632fa017b0432407e798818af63ea908589fceda39ab79181900360200190a1565b6000828211156116d057fe5b50900390565b60035460a060020a900460ff16156116ed57600080fd5b6003805474ff0000000000000000000000000000000000000000191660a060020a1790556040805142815290517f68b095021b1f40fe513109f513c66692f0b3219aee674a69f4efc57badb8201d9181900360200190a15600496e76616c69642066726f6d2061646472657373000000000000000000000000496e76616c696420746f206164647265737300000000000000000000000000005452414e534645525f415050524f56414c0000000000000000000000000000005065726d697373696f6e20636865636b206661696c6564000000000000000000a165627a7a723058202a642ac1feba3768bb399a2eee571ab56af5f0441e6f766d61d88871ee1171c90029",
  "source": "pragma solidity ^0.4.24;\n\nimport \"./ITransferManager.sol\";\nimport \"openzeppelin-solidity/contracts/math/SafeMath.sol\";\n\n/////////////////////\n// Module permissions\n/////////////////////\n//                                        Owner       TRANSFER_APPROVAL\n// addManualApproval                        X                 X\n// addManualBlocking                        X                 X\n// revokeManualApproval                     X                 X\n// revokeManualBlocking                     X                 X\n\n/**\n * @title Transfer Manager module for manually approving or blocking transactions between accounts\n */\ncontract ManualApprovalTransferManager is ITransferManager {\n    using SafeMath for uint256;\n\n    //Address from which issuances come\n    address public issuanceAddress = address(0);\n\n    //Address which can sign whitelist changes\n    address public signingAddress = address(0);\n\n    bytes32 public constant TRANSFER_APPROVAL = \"TRANSFER_APPROVAL\";\n\n    //Manual approval is an allowance (that has been approved) with an expiry time\n    struct ManualApproval {\n        uint256 allowance;\n        uint256 expiryTime;\n    }\n\n    //Manual blocking allows you to specify a list of blocked address pairs with an associated expiry time for the block\n    struct ManualBlocking {\n        uint256 expiryTime;\n    }\n\n    //Store mappings of address => address with ManualApprovals\n    mapping (address => mapping (address => ManualApproval)) public manualApprovals;\n\n    //Store mappings of address => address with ManualBlockings\n    mapping (address => mapping (address => ManualBlocking)) public manualBlockings;\n\n    event LogAddManualApproval(\n        address _from,\n        address _to,\n        uint256 _allowance,\n        uint256 _expiryTime,\n        address _addedBy\n    );\n\n    event LogAddManualBlocking(\n        address _from,\n        address _to,\n        uint256 _expiryTime,\n        address _addedBy\n    );\n\n    event LogRevokeManualApproval(\n        address _from,\n        address _to,\n        address _addedBy\n    );\n\n    event LogRevokeManualBlocking(\n        address _from,\n        address _to,\n        address _addedBy\n    );\n\n    /**\n     * @notice Constructor\n     * @param _securityToken Address of the security token\n     * @param _polyAddress Address of the polytoken\n     */\n    constructor (address _securityToken, address _polyAddress)\n    public\n    IModule(_securityToken, _polyAddress)\n    {\n    }\n\n    /**\n     * @notice This function returns the signature of configure function\n     */\n    function getInitFunction() public returns(bytes4) {\n        return bytes4(0);\n    }\n\n    /**\n    * @notice default implementation of verifyTransfer used by SecurityToken\n    * If the transfer request comes from the STO, it only checks that the investor is in the whitelist\n    * If the transfer request comes from a token holder, it checks that:\n    * a) Both are on the whitelist\n    * b) Seller's sale lockup period is over\n    * c) Buyer's purchase lockup is over\n    */\n    function verifyTransfer(address _from, address _to, uint256 _amount, bool _isTransfer) public returns(Result) {\n        // manual blocking takes precidence over manual approval\n        if (!paused) {\n            if (manualBlockings[_from][_to].expiryTime >= now) {\n                return Result.INVALID;\n            }\n            if ((manualApprovals[_from][_to].expiryTime >= now) && (manualApprovals[_from][_to].allowance >= _amount)) {\n                if (_isTransfer) {\n                    manualApprovals[_from][_to].allowance = manualApprovals[_from][_to].allowance.sub(_amount);\n                }\n                return Result.VALID;\n            }\n        }\n        return Result.NA;\n    }\n\n    /**\n    * @notice adds a pair of addresses to manual approvals\n    * @param _from is the address from which transfers are approved\n    * @param _to is the address to which transfers are approved\n    * @param _allowance is the approved amount of tokens\n    * @param _expiryTime is the time until which the transfer is allowed\n    */\n    function addManualApproval(address _from, address _to, uint256 _allowance, uint256 _expiryTime) public withPerm(TRANSFER_APPROVAL) {\n        //Passing a _expiryTime == 0 into this function, is equivalent to removing the manual approval.\n        require(_from != address(0), \"Invalid from address\");\n        require(_to != address(0), \"Invalid to address\");\n        require(_expiryTime > now, \"Invalid expiry time\");\n        manualApprovals[_from][_to] = ManualApproval(_allowance, _expiryTime);\n        emit LogAddManualApproval(_from, _to, _allowance, _expiryTime, msg.sender);\n    }\n\n    /**\n    * @notice adds a pair of addresses to manual blockings\n    * @param _from is the address from which transfers are blocked\n    * @param _to is the address to which transfers are blocked\n    * @param _expiryTime is the time until which the transfer is blocked\n    */\n    function addManualBlocking(address _from, address _to, uint256 _expiryTime) public withPerm(TRANSFER_APPROVAL) {\n        //Passing a _expiryTime == 0 into this function, is equivalent to removing the manual blocking.\n        require(_from != address(0), \"Invalid from address\");\n        require(_to != address(0), \"Invalid to address\");\n        require(_expiryTime > now, \"Invalid expiry time\");\n        manualBlockings[_from][_to] = ManualBlocking(_expiryTime);\n        emit LogAddManualBlocking(_from, _to, _expiryTime, msg.sender);\n    }\n\n    /**\n    * @notice removes a pairs of addresses from manual approvals\n    * @param _from is the address from which transfers are approved\n    * @param _to is the address to which transfers are approved\n    */\n    function revokeManualApproval(address _from, address _to) public withPerm(TRANSFER_APPROVAL) {\n        require(_from != address(0), \"Invalid from address\");\n        require(_to != address(0), \"Invalid to address\");\n        delete manualApprovals[_from][_to];\n        emit LogRevokeManualApproval(_from, _to, msg.sender);\n    }\n\n    /**\n    * @notice removes a pairs of addresses from manual approvals\n    * @param _from is the address from which transfers are approved\n    * @param _to is the address to which transfers are approved\n    */\n    function revokeManualBlocking(address _from, address _to) public withPerm(TRANSFER_APPROVAL) {\n        require(_from != address(0), \"Invalid from address\");\n        require(_to != address(0), \"Invalid to address\");\n        delete manualBlockings[_from][_to];\n        emit LogRevokeManualBlocking(_from, _to, msg.sender);\n    }\n\n    /**\n     * @notice Return the permissions flag that are associated with ManualApproval transfer manager\n     */\n    function getPermissions() public view returns(bytes32[]) {\n        bytes32[] memory allPermissions = new bytes32[](1);\n        allPermissions[0] = TRANSFER_APPROVAL;\n        return allPermissions;\n    }\n}\n",
  "sourcePath": "/Users/Yihan/st/contracts/modules/TransferManager/ManualApprovalTransferManager.sol",
  "compiler": {
    "name": "solc",
    "version": "0.4.24+commit.e67f0147.Emscripten.clang"
  },
  "schemaVersion": "2.0.0",
  "updatedAt": "2018-07-09T19:15:50.956Z"
}