{
  "contractName": "MockFactory",
  "abi": [
    {
      "constant": true,
      "inputs": [],
      "name": "monthlySubscriptionCost",
      "outputs": [
        {
          "name": "",
          "type": "uint256"
        }
      ],
      "payable": false,
      "stateMutability": "view",
      "type": "function"
    },
    {
      "constant": false,
      "inputs": [
        {
          "name": "_newSubscriptionCost",
          "type": "uint256"
        }
      ],
      "name": "changeFactorySubscriptionFee",
      "outputs": [],
      "payable": false,
      "stateMutability": "nonpayable",
      "type": "function"
    },
    {
      "constant": false,
      "inputs": [
        {
          "name": "_newSetupCost",
          "type": "uint256"
        }
      ],
      "name": "changeFactorySetupFee",
      "outputs": [],
      "payable": false,
      "stateMutability": "nonpayable",
      "type": "function"
    },
    {
      "constant": true,
      "inputs": [],
      "name": "polyToken",
      "outputs": [
        {
          "name": "",
          "type": "address"
        }
      ],
      "payable": false,
      "stateMutability": "view",
      "type": "function"
    },
    {
      "constant": false,
      "inputs": [],
      "name": "renounceOwnership",
      "outputs": [],
      "payable": false,
      "stateMutability": "nonpayable",
      "type": "function"
    },
    {
      "constant": true,
      "inputs": [],
      "name": "setupCost",
      "outputs": [
        {
          "name": "",
          "type": "uint256"
        }
      ],
      "payable": false,
      "stateMutability": "view",
      "type": "function"
    },
    {
      "constant": true,
      "inputs": [],
      "name": "owner",
      "outputs": [
        {
          "name": "",
          "type": "address"
        }
      ],
      "payable": false,
      "stateMutability": "view",
      "type": "function"
    },
    {
      "constant": false,
      "inputs": [
        {
          "name": "_newUsageCost",
          "type": "uint256"
        }
      ],
      "name": "changeFactoryUsageFee",
      "outputs": [],
      "payable": false,
      "stateMutability": "nonpayable",
      "type": "function"
    },
    {
      "constant": true,
      "inputs": [],
      "name": "usageCost",
      "outputs": [
        {
          "name": "",
          "type": "uint256"
        }
      ],
      "payable": false,
      "stateMutability": "view",
      "type": "function"
    },
    {
      "constant": false,
      "inputs": [
        {
          "name": "_newOwner",
          "type": "address"
        }
      ],
      "name": "transferOwnership",
      "outputs": [],
      "payable": false,
      "stateMutability": "nonpayable",
      "type": "function"
    },
    {
      "inputs": [
        {
          "name": "_polyAddress",
          "type": "address"
        },
        {
          "name": "_setupCost",
          "type": "uint256"
        },
        {
          "name": "_usageCost",
          "type": "uint256"
        },
        {
          "name": "_subscriptionCost",
          "type": "uint256"
        }
      ],
      "payable": false,
      "stateMutability": "nonpayable",
      "type": "constructor"
    },
    {
      "anonymous": false,
      "inputs": [
        {
          "indexed": false,
          "name": "_oldSetupcost",
          "type": "uint256"
        },
        {
          "indexed": false,
          "name": "_newSetupCost",
          "type": "uint256"
        },
        {
          "indexed": false,
          "name": "_moduleFactory",
          "type": "address"
        }
      ],
      "name": "LogChangeFactorySetupFee",
      "type": "event"
    },
    {
      "anonymous": false,
      "inputs": [
        {
          "indexed": false,
          "name": "_oldUsageCost",
          "type": "uint256"
        },
        {
          "indexed": false,
          "name": "_newUsageCost",
          "type": "uint256"
        },
        {
          "indexed": false,
          "name": "_moduleFactory",
          "type": "address"
        }
      ],
      "name": "LogChangeFactoryUsageFee",
      "type": "event"
    },
    {
      "anonymous": false,
      "inputs": [
        {
          "indexed": false,
          "name": "_oldSubscriptionCost",
          "type": "uint256"
        },
        {
          "indexed": false,
          "name": "_newMonthlySubscriptionCost",
          "type": "uint256"
        },
        {
          "indexed": false,
          "name": "_moduleFactory",
          "type": "address"
        }
      ],
      "name": "LogChangeFactorySubscriptionFee",
      "type": "event"
    },
    {
      "anonymous": false,
      "inputs": [
        {
          "indexed": false,
          "name": "_module",
          "type": "address"
        },
        {
          "indexed": true,
          "name": "_moduleName",
          "type": "bytes32"
        },
        {
          "indexed": true,
          "name": "_moduleFactory",
          "type": "address"
        },
        {
          "indexed": false,
          "name": "_creator",
          "type": "address"
        },
        {
          "indexed": false,
          "name": "_timestamp",
          "type": "uint256"
        }
      ],
      "name": "LogGenerateModuleFromFactory",
      "type": "event"
    },
    {
      "anonymous": false,
      "inputs": [
        {
          "indexed": true,
          "name": "previousOwner",
          "type": "address"
        }
      ],
      "name": "OwnershipRenounced",
      "type": "event"
    },
    {
      "anonymous": false,
      "inputs": [
        {
          "indexed": true,
          "name": "previousOwner",
          "type": "address"
        },
        {
          "indexed": true,
          "name": "newOwner",
          "type": "address"
        }
      ],
      "name": "OwnershipTransferred",
      "type": "event"
    },
    {
      "constant": false,
      "inputs": [
        {
          "name": "_data",
          "type": "bytes"
        }
      ],
      "name": "deploy",
      "outputs": [
        {
          "name": "",
          "type": "address"
        }
      ],
      "payable": false,
      "stateMutability": "nonpayable",
      "type": "function"
    },
    {
      "constant": true,
      "inputs": [],
      "name": "getType",
      "outputs": [
        {
          "name": "",
          "type": "uint8"
        }
      ],
      "payable": false,
      "stateMutability": "view",
      "type": "function"
    },
    {
      "constant": true,
      "inputs": [],
      "name": "getName",
      "outputs": [
        {
          "name": "",
          "type": "bytes32"
        }
      ],
      "payable": false,
      "stateMutability": "view",
      "type": "function"
    },
    {
      "constant": true,
      "inputs": [],
      "name": "getDescription",
      "outputs": [
        {
          "name": "",
          "type": "string"
        }
      ],
      "payable": false,
      "stateMutability": "view",
      "type": "function"
    },
    {
      "constant": true,
      "inputs": [],
      "name": "getTitle",
      "outputs": [
        {
          "name": "",
          "type": "string"
        }
      ],
      "payable": false,
      "stateMutability": "view",
      "type": "function"
    },
    {
      "constant": true,
      "inputs": [],
      "name": "getInstructions",
      "outputs": [
        {
          "name": "",
          "type": "string"
        }
      ],
      "payable": false,
      "stateMutability": "view",
      "type": "function"
    },
    {
      "constant": true,
      "inputs": [],
      "name": "getTags",
      "outputs": [
        {
          "name": "",
          "type": "bytes32[]"
        }
      ],
      "payable": false,
      "stateMutability": "view",
      "type": "function"
    }
  ],
  "bytecode": "0x608060405234801561001057600080fd5b50604051608080612030833981016040908152815160208301519183015160609093015160008054600160a060020a0319908116331790915560018054600160a060020a039094169390911692909217909155600291909155600391909155600455611faf806100816000396000f3006080604052600436106100d65763ffffffff60e060020a60003504166277436081146100db57806306184a251461011757806315dae03e1461013e57806317d7de7c146101695780631a0925411461017e5780633ae192bd1461020857806358a191c3146102225780636faa22a51461023a578063715018a61461024f5780637e363ffa146102645780638da5cb5b14610279578063995d9ab71461028e578063aac67b05146102f3578063d54c47261461030b578063e0d5497014610320578063f2fde38b14610335578063ff3c1a8f14610356575b600080fd5b3480156100e757600080fd5b506100fb600480356024810191013561036b565b60408051600160a060020a039092168252519081900360200190f35b34801561012357600080fd5b5061012c61071b565b60408051918252519081900360200190f35b34801561014a57600080fd5b50610153610721565b6040805160ff9092168252519081900360200190f35b34801561017557600080fd5b5061012c610726565b34801561018a57600080fd5b5061019361074a565b6040805160208082528351818301528351919283929083019185019080838360005b838110156101cd5781810151838201526020016101b5565b50505050905090810190601f1680156101fa5780820380516001836020036101000a031916815260200191505b509250505060405180910390f35b34801561021457600080fd5b50610220600435610781565b005b34801561022e57600080fd5b506102206004356107e5565b34801561024657600080fd5b506100fb610849565b34801561025b57600080fd5b50610220610858565b34801561027057600080fd5b5061012c6108c4565b34801561028557600080fd5b506100fb6108ca565b34801561029a57600080fd5b506102a36108d9565b60408051602080825283518183015283519192839290830191858101910280838360005b838110156102df5781810151838201526020016102c7565b505050509050019250505060405180910390f35b3480156102ff57600080fd5b5061022060043561093e565b34801561031757600080fd5b5061012c6109a2565b34801561032c57600080fd5b506101936109a8565b34801561034157600080fd5b50610220600160a060020a0360043516610a07565b34801561036257600080fd5b50610193610a2a565b600080600060025411156104dd5760015460008054600254604080517f23b872dd000000000000000000000000000000000000000000000000000000008152336004820152600160a060020a03938416602482015260448101929092525191909316926323b872dd9260648083019360209390929083900390910190829087803b1580156103f857600080fd5b505af115801561040c573d6000803e3d6000fd5b505050506040513d602081101561042257600080fd5b505115156104dd57604080517f08c379a000000000000000000000000000000000000000000000000000000000815260206004820152604260248201527f4661696c6564207472616e7366657246726f6d2062656361757365206f66207360448201527f7566666963656e7420416c6c6f77616e6365206973206e6f742070726f76696460648201527f6564000000000000000000000000000000000000000000000000000000000000608482015290519081900360a40190fd5b6001543390600160a060020a03166104f3610b5f565b600160a060020a03928316815291166020820152604080519182900301906000f080158015610526573d6000803e3d6000fd5b50905080600160a060020a0316631613ec9d6040518163ffffffff1660e060020a028152600401602060405180830381600087803b15801561056757600080fd5b505af115801561057b573d6000803e3d6000fd5b505050506040513d602081101561059157600080fd5b5051604080516020601f87018190048102820181019092528581527bffffffffffffffffffffffffffffffffffffffffffffffffffffffff19909216916105ec91879087908190840183828082843750610a61945050505050565b7bffffffffffffffffffffffffffffffffffffffffffffffffffffffff19161461067757604080517f08c379a000000000000000000000000000000000000000000000000000000000815260206004820152601a60248201527f50726f76696465642064617461206973206e6f742076616c6964000000000000604482015290519081900360640190fd5b80600160a060020a03168484604051808383808284378201915050925050506000604051808303816000865af1915050151561071457604080517f08c379a000000000000000000000000000000000000000000000000000000000815260206004820152601360248201527f556e2d7375636365737366756c6c2063616c6c00000000000000000000000000604482015290519081900360640190fd5b9392505050565b60045481565b600090565b7f4d6f636b0000000000000000000000000000000000000000000000000000000090565b60408051808201909152600b81527f4d6f636b4d616e61676572000000000000000000000000000000000000000000602082015290565b60008054600160a060020a0316331461079957600080fd5b5060048054908290556040805182815260208101849052308183015290517fc15ef5ae01a170635c048bc2ddb0e834fe5d866424709f0a7398496a80852ec89181900360600190a15050565b60008054600160a060020a031633146107fd57600080fd5b5060028054908290556040805182815260208101849052308183015290517ff9c53ed8f7f318ac63991d13acab4cf653984ce56b7dc1b3a2083af3f412262d9181900360600190a15050565b600154600160a060020a031681565b600054600160a060020a0316331461086f57600080fd5b60008054604051600160a060020a03909116917ff8df31144d9c2f0f6b59d69b8b98abd5459d07f2742c4df920b25aae33c6482091a26000805473ffffffffffffffffffffffffffffffffffffffff19169055565b60025481565b600054600160a060020a031681565b60408051600480825260a08201909252606091829190602082016080803883390190505090507f4d6f636b0000000000000000000000000000000000000000000000000000000081600081518110151561092f57fe5b60209081029091010152905090565b60008054600160a060020a0316331461095657600080fd5b5060038054908290556040805182815260208101849052308183015290517fff5bf6a8d25c4e30ad5778be1e2a41c7c45173313279bcbba6e2bb1b1bf7a6db9181900360600190a15050565b60035481565b60408051606081018252602581527f4d6f636b204d616e61676572202d2054686973206973206d6f636b20696e206e60208201527f61747572650000000000000000000000000000000000000000000000000000009181019190915290565b600054600160a060020a03163314610a1e57600080fd5b610a2781610ae2565b50565b60408051808201909152600c81527f4d6f636b204d616e616765720000000000000000000000000000000000000000602082015290565b60008060006004845110610a76576004610a79565b83515b9150600090505b81811015610adb5780600183030360080260020a8482815181101515610aa257fe5b90602001015160f860020a900460f860020a0260f860020a9004028360e060020a90040160e060020a0292508080600101915050610a80565b5050919050565b600160a060020a0381161515610af757600080fd5b60008054604051600160a060020a03808516939216917f8be0079c531659141344cd1fd0a4f28419497f9722a3daafe3b4186f6b6457e091a36000805473ffffffffffffffffffffffffffffffffffffffff1916600160a060020a0392909216919091179055565b60405161141480610b7083390190560060806040527f4645455f41444d494e00000000000000000000000000000000000000000000006002556003805460a060020a60ff021916905534801561004457600080fd5b5060405160408061141483398101604052805160209091015160018054600160a060020a03938416600160a060020a031991821617909155600080548216331790556003805493909216921691909117905561136f806100a56000396000f30060806040526004361061012f5763ffffffff60e060020a6000350416631613ec9d81146101345780632a0acc6a1461017e5780633197cbb6146101a5578063355274ea146101ba57806335ff3a51146101cf57806338c59de9146101e45780635c975abb146101f95780635f7619a4146102225780636f7bc9be1461023a5780636faa22a51461025b57806378e979251461028c578063827f32c0146102a15780638456cb59146102c75780638905fd4f146102dc5780638b310079146102fd578063a3fb8f15146101cf578063a412f87c14610360578063b84dfbd214610384578063c3a07df614610399578063c45a0155146103fe578063d0d832ad14610413578063d70afa961461044c578063d7e64c0014610461578063e7a96f6d14610476578063fabc1cbc14610500575b600080fd5b34801561014057600080fd5b50610149610518565b604080517fffffffff000000000000000000000000000000000000000000000000000000009092168252519081900360200190f35b34801561018a57600080fd5b50610193610574565b60408051918252519081900360200190f35b3480156101b157600080fd5b50610193610598565b3480156101c657600080fd5b5061019361059e565b3480156101db57600080fd5b506101936105a4565b3480156101f057600080fd5b506101936105a9565b34801561020557600080fd5b5061020e6105af565b604080519115158252519081900360200190f35b34801561022e57600080fd5b5061020e6004356105bf565b34801561024657600080fd5b50610193600160a060020a03600435166108e0565b34801561026757600080fd5b506102706108f2565b60408051600160a060020a039092168252519081900360200190f35b34801561029857600080fd5b50610193610901565b3480156102ad57600080fd5b506102c5600160a060020a0360043516602435610907565b005b3480156102d357600080fd5b506102c5610b62565b3480156102e857600080fd5b506102c5600160a060020a0360043516610c46565b34801561030957600080fd5b50604080516020601f6064356004818101359283018490048402850184019095528184526102c59480359460248035956044359536956084949301918190840183828082843750949750610e629650505050505050565b34801561036c57600080fd5b5061020e600160a060020a0360043516602435610eed565b34801561039057600080fd5b50610270610f91565b3480156103a557600080fd5b506103ae610fa0565b60408051602080825283518183015283519192839290830191858101910280838360005b838110156103ea5781810151838201526020016103d2565b505050509050019250505060405180910390f35b34801561040a57600080fd5b50610270611007565b34801561041f57600080fd5b50610428611016565b6040518082600181111561043857fe5b60ff16815260200191505060405180910390f35b34801561045857600080fd5b50610193611038565b34801561046d57600080fd5b5061019361103e565b34801561048257600080fd5b5061048b611044565b6040805160208082528351818301528351919283929083019185019080838360005b838110156104c55781810151838201526020016104ad565b50505050905090810190601f1680156104f25780820380516001836020036101000a031916815260200191505b509250505060405180910390f35b34801561050c57600080fd5b506102c56004356110d2565b604080517f636f6e6669677572652875696e743235362c75696e743235362c75696e74323581527f362c737472696e67290000000000000000000000000000000000000000000000602082015290519081900360290190205b90565b7f41444d494e00000000000000000000000000000000000000000000000000000081565b60055481565b60075481565b600090565b60065490565b60035460a060020a900460ff1681565b6000600254600080600160009054906101000a9004600160a060020a0316600160a060020a0316638da5cb5b6040518163ffffffff1660e060020a028152600401602060405180830381600087803b15801561061a57600080fd5b505af115801561062e573d6000803e3d6000fd5b505050506040513d602081101561064457600080fd5b505160005433600160a060020a0392831681149450911614905081806106675750805b8061070d5750600154604080517f8658b8b9000000000000000000000000000000000000000000000000000000008152336004820152306024820152604481018690529051600160a060020a0390921691638658b8b9916064808201926020929091908290030181600087803b1580156106e057600080fd5b505af11580156106f4573d6000803e3d6000fd5b505050506040513d602081101561070a57600080fd5b50515b1515610763576040805160e560020a62461bcd02815260206004820152601760248201527f5065726d697373696f6e20636865636b206661696c6564000000000000000000604482015290519081900360640190fd5b60035460008054604080517f8da5cb5b0000000000000000000000000000000000000000000000000000000081529051600160a060020a03948516946323b872dd94309490911692638da5cb5b9260048083019360209383900390910190829087803b1580156107d257600080fd5b505af11580156107e6573d6000803e3d6000fd5b505050506040513d60208110156107fc57600080fd5b50516040805160e060020a63ffffffff8616028152600160a060020a039384166004820152929091166024830152604482018990525160648083019260209291908290030181600087803b15801561085357600080fd5b505af1158015610867573d6000803e3d6000fd5b505050506040513d602081101561087d57600080fd5b505115156108d5576040805160e560020a62461bcd02815260206004820152601260248201527f556e61626c6520746f2074616b65206665650000000000000000000000000000604482015290519081900360640190fd5b506001949350505050565b60096020526000908152604090205481565b600354600160a060020a031681565b60045481565b600160009054906101000a9004600160a060020a0316600160a060020a0316638da5cb5b6040518163ffffffff1660e060020a028152600401602060405180830381600087803b15801561095a57600080fd5b505af115801561096e573d6000803e3d6000fd5b505050506040513d602081101561098457600080fd5b5051600160a060020a031633146109d3576040805160e560020a62461bcd0281526020600482015260136024820152600080516020611324833981519152604482015290519081900360640190fd5b60035460a060020a900460ff16156109ea57600080fd5b60008111610a42576040805160e560020a62461bcd02815260206004820152601f60248201527f416d6f756e742073686f756c642062652067726561746572207468616e203000604482015290519081900360640190fd5b600154604080517f40c10f19000000000000000000000000000000000000000000000000000000008152600160a060020a03858116600483015260248201859052915191909216916340c10f199160448083019260209291908290030181600087803b158015610ab157600080fd5b505af1158015610ac5573d6000803e3d6000fd5b505050506040513d6020811015610adb57600080fd5b5050600160a060020a0382166000908152600960205260409020541515610b06576006805460010190555b600160a060020a0382166000818152600960209081526040918290208054850190558151928352820183905280517f1de621a3656e198085de9765650db7426a90c14ebced44f84f9a8c5d4660d6f49281900390910190a15050565b600160009054906101000a9004600160a060020a0316600160a060020a0316638da5cb5b6040518163ffffffff1660e060020a028152600401602060405180830381600087803b158015610bb557600080fd5b505af1158015610bc9573d6000803e3d6000fd5b505050506040513d6020811015610bdf57600080fd5b5051600160a060020a03163314610c2e576040805160e560020a62461bcd0281526020600482015260136024820152600080516020611324833981519152604482015290519081900360640190fd5b6005544210610c3c57600080fd5b610c446111ba565b565b600080600160009054906101000a9004600160a060020a0316600160a060020a0316638da5cb5b6040518163ffffffff1660e060020a028152600401602060405180830381600087803b158015610c9c57600080fd5b505af1158015610cb0573d6000803e3d6000fd5b505050506040513d6020811015610cc657600080fd5b5051600160a060020a03163314610d15576040805160e560020a62461bcd0281526020600482015260136024820152600080516020611324833981519152604482015290519081900360640190fd5b600160a060020a0383161515610d2a57600080fd5b604080517f70a082310000000000000000000000000000000000000000000000000000000081523060048201529051849350600160a060020a038416916370a082319160248083019260209291908290030181600087803b158015610d8e57600080fd5b505af1158015610da2573d6000803e3d6000fd5b505050506040513d6020811015610db857600080fd5b5051604080517fa9059cbb000000000000000000000000000000000000000000000000000000008152336004820152602481018390529051919250600160a060020a0384169163a9059cbb916044808201926020929091908290030181600087803b158015610e2657600080fd5b505af1158015610e3a573d6000803e3d6000fd5b505050506040513d6020811015610e5057600080fd5b50511515610e5d57600080fd5b505050565b600054600160a060020a03163314610ec4576040805160e560020a62461bcd02815260206004820152601560248201527f53656e646572206973206e6f7420666163746f72790000000000000000000000604482015290519081900360640190fd5b6004849055600583905560078290558051610ee6906008906020840190611295565b5050505050565b600354604080517fdd62ed3e000000000000000000000000000000000000000000000000000000008152600160a060020a03858116600483015230602483015291516000938593169163dd62ed3e91604480830192602092919082900301818887803b158015610f5c57600080fd5b505af1158015610f70573d6000803e3d6000fd5b505050506040513d6020811015610f8657600080fd5b505110159392505050565b600154600160a060020a031681565b604080516001808252818301909252606091829190602080830190803883390190505090507f41444d494e000000000000000000000000000000000000000000000000000000816000815181101515610ff557fe5b602090810290910101529050805b5090565b600054600160a060020a031681565b6003547501000000000000000000000000000000000000000000900460ff1681565b60025481565b60065481565b6008805460408051602060026001851615610100026000190190941693909304601f810184900484028201840190925281815292918301828280156110ca5780601f1061109f576101008083540402835291602001916110ca565b820191906000526020600020905b8154815290600101906020018083116110ad57829003601f168201915b505050505081565b600160009054906101000a9004600160a060020a0316600160a060020a0316638da5cb5b6040518163ffffffff1660e060020a028152600401602060405180830381600087803b15801561112557600080fd5b505af1158015611139573d6000803e3d6000fd5b505050506040513d602081101561114f57600080fd5b5051600160a060020a0316331461119e576040805160e560020a62461bcd0281526020600482015260136024820152600080516020611324833981519152604482015290519081900360640190fd5b6005548110156111ad57600080fd5b6111b561122a565b600555565b60035460a060020a900460ff16156111d157600080fd5b6003805474ff0000000000000000000000000000000000000000191660a060020a1790556040805142815290517f68b095021b1f40fe513109f513c66692f0b3219aee674a69f4efc57badb8201d9181900360200190a1565b60035460a060020a900460ff16151561124257600080fd5b6003805474ff0000000000000000000000000000000000000000191690556040805142815290517faaa520fdd7d2c83061d632fa017b0432407e798818af63ea908589fceda39ab79181900360200190a1565b828054600181600116156101000203166002900490600052602060002090601f016020900481019282601f106112d657805160ff1916838001178555611303565b82800160010185558215611303579182015b828111156113035782518255916020019190600101906112e8565b50611003926105719250905b80821115611003576000815560010161130f560053656e646572206973206e6f74206f776e657200000000000000000000000000a165627a7a72305820a78e1798f829e05435595463a0b1855dad46a16e74b09c11571508597596d87e0029a165627a7a72305820d75b5b0a904b2aed2f5dfe8806f0919356150ff6bb5568b080f6d756e32bf0d10029",
  "source": "pragma solidity ^0.4.24;\n\nimport \"../modules/STO/DummySTO.sol\";\nimport \"../interfaces/IModuleFactory.sol\";\nimport \"../interfaces/IModule.sol\";\n\n\ncontract MockFactory is IModuleFactory {\n\n     /**\n     * @notice Constructor\n     * @param _polyAddress Address of the polytoken\n     */\n    constructor (address _polyAddress, uint256 _setupCost, uint256 _usageCost, uint256 _subscriptionCost) public\n      IModuleFactory(_polyAddress, _setupCost, _usageCost, _subscriptionCost)\n    {\n\n    }\n\n    /**\n     * @notice used to launch the Module with the help of factory\n     * @param _data Data used for the intialization of the module factory variables\n     * @return address Contract address of the Module\n     */\n    function deploy(bytes _data) external returns(address) {\n        if(setupCost > 0)\n            require(polyToken.transferFrom(msg.sender, owner, setupCost), \"Failed transferFrom because of sufficent Allowance is not provided\");\n        //Check valid bytes - can only call module init function\n        DummySTO dummySTO = new DummySTO(msg.sender, address(polyToken));\n        //Checks that _data is valid (not calling anything it shouldn't)\n        require(getSig(_data) == dummySTO.getInitFunction(), \"Provided data is not valid\");\n        require(address(dummySTO).call(_data), \"Un-successfull call\");\n        return address(dummySTO);\n    }\n\n    /**\n     * @notice Type of the Module factory\n     */\n    function getType() public view returns(uint8) {\n        return 0;\n    }\n\n    /**\n     * @notice Get the name of the Module\n     */\n    function getName() public view returns(bytes32) {\n        return \"Mock\";\n    }\n\n    /**\n     * @notice Get the description of the Module \n     */\n    function getDescription() public view returns(string) {\n        return \"MockManager\";\n    }\n\n    /**\n     * @notice Get the title of the Module\n     */\n    function getTitle() public view returns(string) {\n        return \"Mock Manager\";\n    }\n\n    /**\n     * @notice Get the Instructions that helped to used the module\n     */\n    function getInstructions() public view returns(string) {\n        return \"Mock Manager - This is mock in nature\";\n    }\n\n    /**\n     * @notice Get the tags related to the module factory\n     */\n    function getTags() public view returns(bytes32[]) {\n        bytes32[] memory availableTags = new bytes32[](4);\n        availableTags[0] = \"Mock\";\n        return availableTags;\n    }\n\n}\n",
  "sourcePath": "/Users/Yihan/st/contracts/mocks/MockFactory.sol",
  "compiler": {
    "name": "solc",
    "version": "0.4.24+commit.e67f0147.Emscripten.clang"
  },
  "schemaVersion": "2.0.0",
  "updatedAt": "2018-07-09T19:15:50.903Z"
}