{
  "contractName": "ModuleRegistry",
  "abi": [
    {
      "constant": true,
      "inputs": [
        {
          "name": "",
          "type": "address"
        }
      ],
      "name": "registry",
      "outputs": [
        {
          "name": "",
          "type": "uint8"
        }
      ],
      "payable": false,
      "stateMutability": "view",
      "type": "function"
    },
    {
      "constant": true,
      "inputs": [
        {
          "name": "",
          "type": "address"
        }
      ],
      "name": "verified",
      "outputs": [
        {
          "name": "",
          "type": "bool"
        }
      ],
      "payable": false,
      "stateMutability": "view",
      "type": "function"
    },
    {
      "constant": true,
      "inputs": [
        {
          "name": "",
          "type": "uint8"
        },
        {
          "name": "",
          "type": "uint256"
        }
      ],
      "name": "moduleList",
      "outputs": [
        {
          "name": "",
          "type": "address"
        }
      ],
      "payable": false,
      "stateMutability": "view",
      "type": "function"
    },
    {
      "constant": false,
      "inputs": [],
      "name": "unpause",
      "outputs": [],
      "payable": false,
      "stateMutability": "nonpayable",
      "type": "function"
    },
    {
      "constant": true,
      "inputs": [
        {
          "name": "",
          "type": "address"
        },
        {
          "name": "",
          "type": "uint256"
        }
      ],
      "name": "reputation",
      "outputs": [
        {
          "name": "",
          "type": "address"
        }
      ],
      "payable": false,
      "stateMutability": "view",
      "type": "function"
    },
    {
      "constant": true,
      "inputs": [
        {
          "name": "",
          "type": "bytes32"
        }
      ],
      "name": "validAddressKeys",
      "outputs": [
        {
          "name": "",
          "type": "bool"
        }
      ],
      "payable": false,
      "stateMutability": "view",
      "type": "function"
    },
    {
      "constant": true,
      "inputs": [],
      "name": "paused",
      "outputs": [
        {
          "name": "",
          "type": "bool"
        }
      ],
      "payable": false,
      "stateMutability": "view",
      "type": "function"
    },
    {
      "constant": true,
      "inputs": [
        {
          "name": "",
          "type": "uint8"
        },
        {
          "name": "",
          "type": "uint256"
        }
      ],
      "name": "availableTags",
      "outputs": [
        {
          "name": "",
          "type": "bytes32"
        }
      ],
      "payable": false,
      "stateMutability": "view",
      "type": "function"
    },
    {
      "constant": true,
      "inputs": [
        {
          "name": "",
          "type": "bytes32"
        }
      ],
      "name": "storedAddresses",
      "outputs": [
        {
          "name": "",
          "type": "address"
        }
      ],
      "payable": false,
      "stateMutability": "view",
      "type": "function"
    },
    {
      "constant": false,
      "inputs": [],
      "name": "renounceOwnership",
      "outputs": [],
      "payable": false,
      "stateMutability": "nonpayable",
      "type": "function"
    },
    {
      "constant": false,
      "inputs": [],
      "name": "pause",
      "outputs": [],
      "payable": false,
      "stateMutability": "nonpayable",
      "type": "function"
    },
    {
      "constant": false,
      "inputs": [
        {
          "name": "_tokenContract",
          "type": "address"
        }
      ],
      "name": "reclaimERC20",
      "outputs": [],
      "payable": false,
      "stateMutability": "nonpayable",
      "type": "function"
    },
    {
      "constant": true,
      "inputs": [],
      "name": "owner",
      "outputs": [
        {
          "name": "",
          "type": "address"
        }
      ],
      "payable": false,
      "stateMutability": "view",
      "type": "function"
    },
    {
      "constant": false,
      "inputs": [
        {
          "name": "_nameKey",
          "type": "string"
        },
        {
          "name": "_newAddress",
          "type": "address"
        }
      ],
      "name": "changeAddress",
      "outputs": [],
      "payable": false,
      "stateMutability": "nonpayable",
      "type": "function"
    },
    {
      "constant": true,
      "inputs": [
        {
          "name": "_nameKey",
          "type": "string"
        }
      ],
      "name": "getAddress",
      "outputs": [
        {
          "name": "",
          "type": "address"
        }
      ],
      "payable": false,
      "stateMutability": "view",
      "type": "function"
    },
    {
      "constant": false,
      "inputs": [
        {
          "name": "_newOwner",
          "type": "address"
        }
      ],
      "name": "transferOwnership",
      "outputs": [],
      "payable": false,
      "stateMutability": "nonpayable",
      "type": "function"
    },
    {
      "anonymous": false,
      "inputs": [
        {
          "indexed": true,
          "name": "_moduleFactory",
          "type": "address"
        },
        {
          "indexed": true,
          "name": "_securityToken",
          "type": "address"
        }
      ],
      "name": "LogModuleUsed",
      "type": "event"
    },
    {
      "anonymous": false,
      "inputs": [
        {
          "indexed": true,
          "name": "_moduleFactory",
          "type": "address"
        },
        {
          "indexed": true,
          "name": "_owner",
          "type": "address"
        }
      ],
      "name": "LogModuleRegistered",
      "type": "event"
    },
    {
      "anonymous": false,
      "inputs": [
        {
          "indexed": true,
          "name": "_moduleFactory",
          "type": "address"
        },
        {
          "indexed": false,
          "name": "_verified",
          "type": "bool"
        }
      ],
      "name": "LogModuleVerified",
      "type": "event"
    },
    {
      "anonymous": false,
      "inputs": [
        {
          "indexed": false,
          "name": "_nameKey",
          "type": "string"
        },
        {
          "indexed": true,
          "name": "_oldAddress",
          "type": "address"
        },
        {
          "indexed": true,
          "name": "_newAddress",
          "type": "address"
        }
      ],
      "name": "LogChangeAddress",
      "type": "event"
    },
    {
      "anonymous": false,
      "inputs": [
        {
          "indexed": true,
          "name": "previousOwner",
          "type": "address"
        }
      ],
      "name": "OwnershipRenounced",
      "type": "event"
    },
    {
      "anonymous": false,
      "inputs": [
        {
          "indexed": true,
          "name": "previousOwner",
          "type": "address"
        },
        {
          "indexed": true,
          "name": "newOwner",
          "type": "address"
        }
      ],
      "name": "OwnershipTransferred",
      "type": "event"
    },
    {
      "anonymous": false,
      "inputs": [
        {
          "indexed": false,
          "name": "_timestammp",
          "type": "uint256"
        }
      ],
      "name": "Pause",
      "type": "event"
    },
    {
      "anonymous": false,
      "inputs": [
        {
          "indexed": false,
          "name": "_timestamp",
          "type": "uint256"
        }
      ],
      "name": "Unpause",
      "type": "event"
    },
    {
      "constant": false,
      "inputs": [
        {
          "name": "_moduleFactory",
          "type": "address"
        }
      ],
      "name": "useModule",
      "outputs": [],
      "payable": false,
      "stateMutability": "nonpayable",
      "type": "function"
    },
    {
      "constant": false,
      "inputs": [
        {
          "name": "_moduleFactory",
          "type": "address"
        }
      ],
      "name": "registerModule",
      "outputs": [
        {
          "name": "",
          "type": "bool"
        }
      ],
      "payable": false,
      "stateMutability": "nonpayable",
      "type": "function"
    },
    {
      "constant": false,
      "inputs": [
        {
          "name": "_moduleFactory",
          "type": "address"
        },
        {
          "name": "_verified",
          "type": "bool"
        }
      ],
      "name": "verifyModule",
      "outputs": [
        {
          "name": "",
          "type": "bool"
        }
      ],
      "payable": false,
      "stateMutability": "nonpayable",
      "type": "function"
    },
    {
      "constant": true,
      "inputs": [
        {
          "name": "_moduleType",
          "type": "uint8"
        }
      ],
      "name": "getTagByModuleType",
      "outputs": [
        {
          "name": "",
          "type": "bytes32[]"
        }
      ],
      "payable": false,
      "stateMutability": "view",
      "type": "function"
    },
    {
      "constant": false,
      "inputs": [
        {
          "name": "_moduleType",
          "type": "uint8"
        },
        {
          "name": "_tag",
          "type": "bytes32[]"
        }
      ],
      "name": "addTagByModuleType",
      "outputs": [],
      "payable": false,
      "stateMutability": "nonpayable",
      "type": "function"
    },
    {
      "constant": false,
      "inputs": [
        {
          "name": "_moduleType",
          "type": "uint8"
        },
        {
          "name": "_removedTags",
          "type": "bytes32[]"
        }
      ],
      "name": "removeTagByModuleType",
      "outputs": [],
      "payable": false,
      "stateMutability": "nonpayable",
      "type": "function"
    }
  ],
  "bytecode": "0x6080604052600080543361010002600160a860020a031990911617905561183f8061002b6000396000f30060806040526004361061010e5763ffffffff60e060020a600035041663038defd781146101135780630db065f41461014a5780631e79933f1461017f5780632cdc054c146101de5780633f4ba83a146102185780634b951cbe1461022d578063510389671461025157806356196dc9146102695780635c975abb146102d45780635e14fb35146102e95780636c47e36f14610319578063715018a6146103315780638456cb59146103465780638905fd4f1461035b5780638da5cb5b1461037c5780639b77d69f14610391578063a7dbb402146103ee578063ad64ae4b14610452578063bf40fac114610473578063dc659907146104cc578063eac5ab43146104ed578063f2fde38b14610513575b600080fd5b34801561011f57600080fd5b50610134600160a060020a0360043516610534565b6040805160ff9092168252519081900360200190f35b34801561015657600080fd5b5061016b600160a060020a0360043516610549565b604080519115158252519081900360200190f35b34801561018b57600080fd5b506040805160206004602480358281013584810280870186019097528086526101dc96843560ff169636966044959194909101929182918501908490808284375094975061055e9650505050505050565b005b3480156101ea57600080fd5b506101fc60ff60043516602435610650565b60408051600160a060020a039092168252519081900360200190f35b34801561022457600080fd5b506101dc610687565b34801561023957600080fd5b506101fc600160a060020a03600435166024356106ad565b34801561025d57600080fd5b5061016b6004356106c8565b34801561027557600080fd5b5061028460ff600435166106dd565b60408051602080825283518183015283519192839290830191858101910280838360005b838110156102c05781810151838201526020016102a8565b505050509050019250505060405180910390f35b3480156102e057600080fd5b5061016b610744565b3480156102f557600080fd5b5061030760ff6004351660243561074d565b60408051918252519081900360200190f35b34801561032557600080fd5b506101fc60043561077d565b34801561033d57600080fd5b506101dc610798565b34801561035257600080fd5b506101dc61080e565b34801561036757600080fd5b506101dc600160a060020a0360043516610832565b34801561038857600080fd5b506101fc6109ab565b34801561039d57600080fd5b506040805160206004602480358281013584810280870186019097528086526101dc96843560ff16963696604495919490910192918291850190849080828437509497506109bf9650505050505050565b3480156103fa57600080fd5b506040805160206004803580820135601f81018490048402850184019095528484526101dc94369492936024939284019190819084018382808284375094975050509235600160a060020a03169350610a3b92505050565b34801561045e57600080fd5b5061016b600160a060020a0360043516610c9d565b34801561047f57600080fd5b506040805160206004803580820135601f81018490048402850184019095528484526101fc9436949293602493928401919081908401838280828437509497506110689650505050505050565b3480156104d857600080fd5b506101dc600160a060020a0360043516611167565b3480156104f957600080fd5b5061016b600160a060020a03600435166024351515611504565b34801561051f57600080fd5b506101dc600160a060020a036004351661161e565b60036020526000908152604090205460ff1681565b60066020526000908152604090205460ff1681565b6000805481906101009004600160a060020a0316331461057d57600080fd5b600091505b60ff808516600090815260076020526040902054908316101561064a575060005b82518160ff16101561063f57828160ff168151811015156105c057fe5b9060200190602002015160001916600760008660ff1660ff1681526020019081526020016000208360ff168154811015156105f757fe5b60009182526020909120015414156106375760ff808516600090815260076020526040902080549091841690811061062b57fe5b60009182526020822001555b6001016105a3565b600190910190610582565b50505050565b60056020528160005260406000208181548110151561066b57fe5b600091825260209091200154600160a060020a03169150829050565b6000546101009004600160a060020a031633146106a357600080fd5b6106ab611643565b565b60046020528160005260406000208181548110151561066b57fe5b60026020526000908152604090205460ff1681565b60ff811660009081526007602090815260409182902080548351818402810184019094528084526060939283018282801561073857602002820191906000526020600020905b81548152600190910190602001808311610723575b50505050509050919050565b60005460ff1681565b60076020528160005260406000208181548110151561076857fe5b90600052602060002001600091509150505481565b600160205260009081526040902054600160a060020a031681565b6000546101009004600160a060020a031633146107b457600080fd5b60008054604051610100909104600160a060020a0316917ff8df31144d9c2f0f6b59d69b8b98abd5459d07f2742c4df920b25aae33c6482091a26000805474ffffffffffffffffffffffffffffffffffffffff0019169055565b6000546101009004600160a060020a0316331461082a57600080fd5b6106ab611693565b6000805481906101009004600160a060020a0316331461085157600080fd5b600160a060020a038316151561086657600080fd5b604080517f70a082310000000000000000000000000000000000000000000000000000000081523060048201529051849350600160a060020a038416916370a082319160248083019260209291908290030181600087803b1580156108ca57600080fd5b505af11580156108de573d6000803e3d6000fd5b505050506040513d60208110156108f457600080fd5b505160008054604080517fa9059cbb000000000000000000000000000000000000000000000000000000008152610100909204600160a060020a03908116600484015260248301859052905193945085169263a9059cbb92604480840193602093929083900390910190829087803b15801561096f57600080fd5b505af1158015610983573d6000803e3d6000fd5b505050506040513d602081101561099957600080fd5b505115156109a657600080fd5b505050565b6000546101009004600160a060020a031681565b600080546101009004600160a060020a031633146109dc57600080fd5b5060005b81518160ff1610156109a65760ff8084166000908152600760205260409020835190918491908416908110610a1157fe5b602090810290910181015182546001818101855560009485529290932090920191909155016109e0565b600080546101009004600160a060020a03163314610a5857600080fd5b60026000846040518082805190602001908083835b60208310610a8c5780518252601f199092019160209182019101610a6d565b51815160209384036101000a600019018019909216911617905260408051929094018290039091208652850195909552929092016000205460ff16159250610ae191505057610ada83611068565b9050610b62565b600160026000856040518082805190602001908083835b60208310610b175780518252601f199092019160209182019101610af8565b51815160209384036101000a60001901801990921691161790526040805192909401829003909120865285019590955292909201600020805460ff1916941515949094179093555050505b8160016000856040518082805190602001908083835b60208310610b975780518252601f199092019160209182019101610b78565b51815160209384036101000a60001901801990921691161790526040805192909401829003909120865285810196909652509283016000908120805473ffffffffffffffffffffffffffffffffffffffff1916600160a060020a0397881617905583518581528951818701528951898816978916967f38575ca154acfc441b9e175568ded9b32501025df333c637fb24985161f53981968c965092945084939284019290860191908190849084905b83811015610c5e578181015183820152602001610c46565b50505050905090810190601f168015610c8b5780820380516001836020036101000a031916815260200191505b509250505060405180910390a3505050565b60008054819060ff1615610cb057600080fd5b600160a060020a03831660009081526003602052604090205460ff1615610d47576040805160e560020a62461bcd02815260206004820152602b60248201527f4d6f64756c6520666163746f72792073686f756c64206e6f742062652070726560448201527f2d72656769737465726564000000000000000000000000000000000000000000606482015290519081900360840190fd5b82905080600160a060020a03166315dae03e6040518163ffffffff1660e060020a028152600401602060405180830381600087803b158015610d8857600080fd5b505af1158015610d9c573d6000803e3d6000fd5b505050506040513d6020811015610db257600080fd5b505160ff161515610e33576040805160e560020a62461bcd02815260206004820152602260248201527f466163746f727920747970652073686f756c64206e6f7420657175616c20746f60448201527f2030000000000000000000000000000000000000000000000000000000000000606482015290519081900360840190fd5b80600160a060020a03166315dae03e6040518163ffffffff1660e060020a028152600401602060405180830381600087803b158015610e7157600080fd5b505af1158015610e85573d6000803e3d6000fd5b505050506040513d6020811015610e9b57600080fd5b5051600160a060020a038481166000908152600360209081526040808320805460ff191660ff9096169590951790945583517f15dae03e000000000000000000000000000000000000000000000000000000008152935160059492938616926315dae03e92600480830193919282900301818787803b158015610f1d57600080fd5b505af1158015610f31573d6000803e3d6000fd5b505050506040513d6020811015610f4757600080fd5b505160ff16815260208082019290925260409081016000908120805460018101825590825283822001805473ffffffffffffffffffffffffffffffffffffffff1916600160a060020a038816908117909155825182815280850180855291835260049094529190209151610fbc92919061176d565b5080600160a060020a0316638da5cb5b6040518163ffffffff1660e060020a028152600401602060405180830381600087803b158015610ffb57600080fd5b505af115801561100f573d6000803e3d6000fd5b505050506040513d602081101561102557600080fd5b5051604051600160a060020a03918216918516907fae85ba22803e75ecc9115045a3a9e17c151fe6486fdb52acf6c0da16bbd38c1e90600090a350600192915050565b600060026000836040518082805190602001908083835b6020831061109e5780518252601f19909201916020918201910161107f565b51815160209384036101000a600019018019909216911617905260408051929094018290039091208652850195909552929092016000205460ff16151592506110e991505057600080fd5b60016000836040518082805190602001908083835b6020831061111d5780518252601f1990920191602091820191016110fe565b51815160209384036101000a6000190180199092169116179052604080519290940182900390912086528501959095529290920160002054600160a060020a031695945050505050565b6111a56040805190810160405280601581526020017f5365637572697479546f6b656e52656769737472790000000000000000000000815250611068565b600160a060020a031663d300a968336040518263ffffffff1660e060020a0281526004018082600160a060020a0316600160a060020a03168152602001915050602060405180830381600087803b1580156111ff57600080fd5b505af1158015611213573d6000803e3d6000fd5b505050506040513d602081101561122957600080fd5b50511561150157600160a060020a03811660009081526003602052604090205460ff1615156112c8576040805160e560020a62461bcd02815260206004820152602260248201527f4d6f64756c65466163746f727920747970652073686f756c64206e6f7420626560448201527f2030000000000000000000000000000000000000000000000000000000000000606482015290519081900360840190fd5b600160a060020a03811660009081526006602052604090205460ff16806113ea575033600160a060020a0316638da5cb5b6040518163ffffffff1660e060020a028152600401602060405180830381600087803b15801561132857600080fd5b505af115801561133c573d6000803e3d6000fd5b505050506040513d602081101561135257600080fd5b5051604080517f8da5cb5b0000000000000000000000000000000000000000000000000000000081529051600160a060020a0392831692841691638da5cb5b9160048083019260209291908290030181600087803b1580156113b357600080fd5b505af11580156113c7573d6000803e3d6000fd5b505050506040513d60208110156113dd57600080fd5b5051600160a060020a0316145b151561148c576040805160e560020a62461bcd02815260206004820152604160248201527f4d6f64756c6520666163746f7279206973206e6f74207665726966696564206160448201527f732077656c6c206173206e6f742063616c6c656420627920746865206f776e6560648201527f7200000000000000000000000000000000000000000000000000000000000000608482015290519081900360a40190fd5b600160a060020a03811660008181526004602090815260408083208054600181018255908452918320909101805473ffffffffffffffffffffffffffffffffffffffff19163390811790915590519092917f6a29bd0f4ad1fa11b5da542f2cbb7caccf3f8547d9126b6708f294154b19351a91a35b50565b600080546101009004600160a060020a0316331461152157600080fd5b600160a060020a03831660009081526003602052604090205460ff1615156115b9576040805160e560020a62461bcd02815260206004820152603260248201527f4d6f64756c6520666163746f72792073686f756c642068617665206265656e2060448201527f616c726561647920726567697374657265640000000000000000000000000000606482015290519081900360840190fd5b600160a060020a038316600081815260066020908152604091829020805460ff1916861515908117909155825190815291517f3023e432a59b6690d2e5f03154a5c5274aa8f3029a88625f964aaafbe9931e4e9281900390910190a250600192915050565b6000546101009004600160a060020a0316331461163a57600080fd5b611501816116e5565b60005460ff16151561165457600080fd5b6000805460ff191690556040805142815290517faaa520fdd7d2c83061d632fa017b0432407e798818af63ea908589fceda39ab79181900360200190a1565b60005460ff16156116a357600080fd5b6000805460ff191660011790556040805142815290517f68b095021b1f40fe513109f513c66692f0b3219aee674a69f4efc57badb8201d9181900360200190a1565b600160a060020a03811615156116fa57600080fd5b60008054604051600160a060020a038085169361010090930416917f8be0079c531659141344cd1fd0a4f28419497f9722a3daafe3b4186f6b6457e091a360008054600160a060020a039092166101000274ffffffffffffffffffffffffffffffffffffffff0019909216919091179055565b8280548282559060005260206000209081019282156117cf579160200282015b828111156117cf578251825473ffffffffffffffffffffffffffffffffffffffff1916600160a060020a0390911617825560209092019160019091019061178d565b506117db9291506117df565b5090565b61181091905b808211156117db57805473ffffffffffffffffffffffffffffffffffffffff191681556001016117e5565b905600a165627a7a72305820855da5fee9047177d2042b16120c42c68befb965b159105b5b42fed89f92f3c90029",
  "source": "pragma solidity ^0.4.24;\n\nimport \"./interfaces/IModuleRegistry.sol\";\nimport \"./interfaces/IModuleFactory.sol\";\nimport \"./interfaces/ISecurityToken.sol\";\nimport \"./interfaces/ISecurityTokenRegistry.sol\";\nimport \"./Registry.sol\";\n\n/**\n* @title Registry contract to store registered modules\n* @notice Anyone can register modules, but only those \"approved\" by Polymath will be available for issuers to add\n*/\ncontract ModuleRegistry is IModuleRegistry, Registry {\n\n    // Mapping used to hold the type of module factory corresponds to the address of the Module factory contract\n    mapping (address => uint8) public registry;\n    // Mapping used to hold the reputation of the factory\n    mapping (address => address[]) public reputation;\n    // Mapping contain the list of addresses of Module factory for a particular type\n    mapping (uint8 => address[]) public moduleList;\n    // contains the list of verified modules\n    mapping (address => bool) public verified;\n    // Contains the list of the available tags corresponds to the module type\n    mapping (uint8 => bytes32[]) public availableTags;\n\n    // Emit when Module been used by the securityToken\n    event LogModuleUsed(address indexed _moduleFactory, address indexed _securityToken);\n    // Emit when the Module Factory get registered with the ModuleRegistry contract\n    event LogModuleRegistered(address indexed _moduleFactory, address indexed _owner);\n    // Emit when the module get verified by the Polymath team\n    event LogModuleVerified(address indexed _moduleFactory, bool _verified);\n\n    /**\n    * @notice Called by a security token to notify the registry it is using a module\n    * @param _moduleFactory is the address of the relevant module factory\n    */\n    function useModule(address _moduleFactory) external {\n        //If caller is a registered security token, then register module usage\n        if (ISecurityTokenRegistry(getAddress(\"SecurityTokenRegistry\")).isSecurityToken(msg.sender)) {\n            require(registry[_moduleFactory] != 0, \"ModuleFactory type should not be 0\");\n            //To use a module, either it must be verified, or owned by the ST owner\n            require(verified[_moduleFactory]||(IModuleFactory(_moduleFactory).owner() == ISecurityToken(msg.sender).owner()),\n              \"Module factory is not verified as well as not called by the owner\");\n            reputation[_moduleFactory].push(msg.sender);\n            emit LogModuleUsed (_moduleFactory, msg.sender);\n        }\n    }\n\n    /**\n    * @notice Called by moduleFactory owner to register new modules for SecurityToken to use\n    * @param _moduleFactory is the address of the module factory to be registered\n    * @return bool\n    */\n    function registerModule(address _moduleFactory) external whenNotPaused returns(bool) {\n        require(registry[_moduleFactory] == 0, \"Module factory should not be pre-registered\");\n        IModuleFactory moduleFactory = IModuleFactory(_moduleFactory);\n        require(moduleFactory.getType() != 0, \"Factory type should not equal to 0\");\n        registry[_moduleFactory] = moduleFactory.getType();\n        moduleList[moduleFactory.getType()].push(_moduleFactory);\n        reputation[_moduleFactory] = new address[](0);\n        emit LogModuleRegistered (_moduleFactory, moduleFactory.owner());\n        return true;\n    }\n\n    /**\n    * @notice Called by Polymath to verify modules for SecurityToken to use.\n    * @notice A module can not be used by an ST unless first approved/verified by Polymath\n    * @notice (The only exception to this is that the author of the module is the owner of the ST)\n    * @param _moduleFactory is the address of the module factory to be registered\n    * @return bool\n    */\n    function verifyModule(address _moduleFactory, bool _verified) external onlyOwner returns(bool) {\n        //Must already have been registered\n        require(registry[_moduleFactory] != 0, \"Module factory should have been already registered\");\n        verified[_moduleFactory] = _verified;\n        emit LogModuleVerified(_moduleFactory, _verified);\n        return true;\n    }\n\n    /**\n     * @notice Use to get all the tags releated to the functionality of the Module Factory.\n     * @param _moduleType Type of module\n     * @return bytes32 array\n     */\n    function getTagByModuleType(uint8 _moduleType) public view returns(bytes32[]) {\n        return availableTags[_moduleType];\n    }\n\n    /**\n     * @notice Add the tag for specified Module Factory\n     * @param _moduleType Type of module.\n     * @param _tag List of tags\n     */\n     function addTagByModuleType(uint8 _moduleType, bytes32[] _tag) public onlyOwner {\n         for (uint8 i = 0; i < _tag.length; i++) {\n             availableTags[_moduleType].push(_tag[i]);\n         }\n     }\n\n    /**\n     * @notice remove the tag for specified Module Factory\n     * @param _moduleType Type of module.\n     * @param _removedTags List of tags\n     */\n     function removeTagByModuleType(uint8 _moduleType, bytes32[] _removedTags) public onlyOwner {\n         for (uint8 i = 0; i < availableTags[_moduleType].length; i++) {\n            for (uint8 j = 0; j < _removedTags.length; j++) {\n                if (availableTags[_moduleType][i] == _removedTags[j]) {\n                    delete availableTags[_moduleType][i];\n                }\n            }\n        }\n     }\n\n}\n",
  "sourcePath": "/Users/Yihan/st/contracts/ModuleRegistry.sol",
  "compiler": {
    "name": "solc",
    "version": "0.4.24+commit.e67f0147.Emscripten.clang"
  },
  "schemaVersion": "2.0.0",
  "updatedAt": "2018-07-09T19:49:16.612Z"
}