{
  "contractName": "PercentageTransferManager",
  "abi": [
    {
      "constant": true,
      "inputs": [],
      "name": "WHITELIST",
      "outputs": [
        {
          "name": "",
          "type": "bytes32"
        }
      ],
      "payable": false,
      "stateMutability": "view",
      "type": "function"
    },
    {
      "constant": true,
      "inputs": [],
      "name": "maxHolderPercentage",
      "outputs": [
        {
          "name": "",
          "type": "uint256"
        }
      ],
      "payable": false,
      "stateMutability": "view",
      "type": "function"
    },
    {
      "constant": false,
      "inputs": [],
      "name": "unpause",
      "outputs": [],
      "payable": false,
      "stateMutability": "nonpayable",
      "type": "function"
    },
    {
      "constant": true,
      "inputs": [],
      "name": "paused",
      "outputs": [
        {
          "name": "",
          "type": "bool"
        }
      ],
      "payable": false,
      "stateMutability": "view",
      "type": "function"
    },
    {
      "constant": false,
      "inputs": [
        {
          "name": "_amount",
          "type": "uint256"
        }
      ],
      "name": "takeFee",
      "outputs": [
        {
          "name": "",
          "type": "bool"
        }
      ],
      "payable": false,
      "stateMutability": "nonpayable",
      "type": "function"
    },
    {
      "constant": true,
      "inputs": [],
      "name": "polyToken",
      "outputs": [
        {
          "name": "",
          "type": "address"
        }
      ],
      "payable": false,
      "stateMutability": "view",
      "type": "function"
    },
    {
      "constant": false,
      "inputs": [],
      "name": "pause",
      "outputs": [],
      "payable": false,
      "stateMutability": "nonpayable",
      "type": "function"
    },
    {
      "constant": true,
      "inputs": [
        {
          "name": "",
          "type": "address"
        }
      ],
      "name": "whitelist",
      "outputs": [
        {
          "name": "",
          "type": "bool"
        }
      ],
      "payable": false,
      "stateMutability": "view",
      "type": "function"
    },
    {
      "constant": true,
      "inputs": [],
      "name": "securityToken",
      "outputs": [
        {
          "name": "",
          "type": "address"
        }
      ],
      "payable": false,
      "stateMutability": "view",
      "type": "function"
    },
    {
      "constant": true,
      "inputs": [],
      "name": "factory",
      "outputs": [
        {
          "name": "",
          "type": "address"
        }
      ],
      "payable": false,
      "stateMutability": "view",
      "type": "function"
    },
    {
      "constant": true,
      "inputs": [],
      "name": "FEE_ADMIN",
      "outputs": [
        {
          "name": "",
          "type": "bytes32"
        }
      ],
      "payable": false,
      "stateMutability": "view",
      "type": "function"
    },
    {
      "inputs": [
        {
          "name": "_securityToken",
          "type": "address"
        },
        {
          "name": "_polyAddress",
          "type": "address"
        }
      ],
      "payable": false,
      "stateMutability": "nonpayable",
      "type": "constructor"
    },
    {
      "anonymous": false,
      "inputs": [
        {
          "indexed": false,
          "name": "_oldHolderPercentage",
          "type": "uint256"
        },
        {
          "indexed": false,
          "name": "_newHolderPercentage",
          "type": "uint256"
        }
      ],
      "name": "LogModifyHolderPercentage",
      "type": "event"
    },
    {
      "anonymous": false,
      "inputs": [
        {
          "indexed": false,
          "name": "_investor",
          "type": "address"
        },
        {
          "indexed": false,
          "name": "_dateAdded",
          "type": "uint256"
        },
        {
          "indexed": false,
          "name": "_addedBy",
          "type": "address"
        }
      ],
      "name": "LogModifyWhitelist",
      "type": "event"
    },
    {
      "anonymous": false,
      "inputs": [
        {
          "indexed": false,
          "name": "_timestammp",
          "type": "uint256"
        }
      ],
      "name": "Pause",
      "type": "event"
    },
    {
      "anonymous": false,
      "inputs": [
        {
          "indexed": false,
          "name": "_timestamp",
          "type": "uint256"
        }
      ],
      "name": "Unpause",
      "type": "event"
    },
    {
      "constant": false,
      "inputs": [
        {
          "name": "",
          "type": "address"
        },
        {
          "name": "_to",
          "type": "address"
        },
        {
          "name": "_amount",
          "type": "uint256"
        },
        {
          "name": "",
          "type": "bool"
        }
      ],
      "name": "verifyTransfer",
      "outputs": [
        {
          "name": "",
          "type": "uint8"
        }
      ],
      "payable": false,
      "stateMutability": "nonpayable",
      "type": "function"
    },
    {
      "constant": false,
      "inputs": [
        {
          "name": "_maxHolderPercentage",
          "type": "uint256"
        }
      ],
      "name": "configure",
      "outputs": [],
      "payable": false,
      "stateMutability": "nonpayable",
      "type": "function"
    },
    {
      "constant": false,
      "inputs": [],
      "name": "getInitFunction",
      "outputs": [
        {
          "name": "",
          "type": "bytes4"
        }
      ],
      "payable": false,
      "stateMutability": "nonpayable",
      "type": "function"
    },
    {
      "constant": false,
      "inputs": [
        {
          "name": "_maxHolderPercentage",
          "type": "uint256"
        }
      ],
      "name": "changeHolderPercentage",
      "outputs": [],
      "payable": false,
      "stateMutability": "nonpayable",
      "type": "function"
    },
    {
      "constant": false,
      "inputs": [
        {
          "name": "_investor",
          "type": "address"
        },
        {
          "name": "_valid",
          "type": "bool"
        }
      ],
      "name": "modifyWhitelist",
      "outputs": [],
      "payable": false,
      "stateMutability": "nonpayable",
      "type": "function"
    },
    {
      "constant": true,
      "inputs": [],
      "name": "getPermissions",
      "outputs": [
        {
          "name": "",
          "type": "bytes32[]"
        }
      ],
      "payable": false,
      "stateMutability": "view",
      "type": "function"
    }
  ],
  "bytecode": "0x60806040527f4645455f41444d494e00000000000000000000000000000000000000000000006002556003805460a060020a60ff021916905534801561004457600080fd5b506040516040806110dc83398101604052805160209091015160018054600160a060020a03938416600160a060020a0319918216179091556000805482163317905560038054939092169216919091179055611037806100a56000396000f3006080604052600436106100d75763ffffffff60e060020a600035041663060d206e81146100dc5780631613ec9d146101045780631bb7cc991461014e5780631eb25e0a1461017557806334dee40f1461018d5780633f4ba83a146101a25780635c975abb146101b75780635f7619a4146101e057806366ffebb8146101f85780636faa22a5146102105780637915c9e0146102415780638456cb59146102945780639b19251a146102a9578063b84dfbd2146102ca578063c3a07df6146102df578063c45a015514610344578063d70afa9614610359575b600080fd5b3480156100e857600080fd5b50610102600160a060020a0360043516602435151561036e565b005b34801561011057600080fd5b50610119610598565b604080517fffffffff000000000000000000000000000000000000000000000000000000009092168252519081900360200190f35b34801561015a57600080fd5b506101636105cd565b60408051918252519081900360200190f35b34801561018157600080fd5b506101026004356105f1565b34801561019957600080fd5b50610163610658565b3480156101ae57600080fd5b5061010261065e565b3480156101c357600080fd5b506101cc610746565b604080519115158252519081900360200190f35b3480156101ec57600080fd5b506101cc600435610756565b34801561020457600080fd5b50610102600435610a77565b34801561021c57600080fd5b50610225610b97565b60408051600160a060020a039092168252519081900360200190f35b34801561024d57600080fd5b50610270600160a060020a03600435811690602435166044356064351515610ba6565b6040518082600381111561028057fe5b60ff16815260200191505060405180910390f35b3480156102a057600080fd5b50610102610d5c565b3480156102b557600080fd5b506101cc600160a060020a0360043516610e42565b3480156102d657600080fd5b50610225610e57565b3480156102eb57600080fd5b506102f4610e66565b60408051602080825283518183015283519192839290830191858101910280838360005b83811015610330578181015183820152602001610318565b505050509050019250505060405180910390f35b34801561035057600080fd5b50610225610eca565b34801561036557600080fd5b50610163610ed9565b7f57484954454c4953540000000000000000000000000000000000000000000000600080600160009054906101000a9004600160a060020a0316600160a060020a0316638da5cb5b6040518163ffffffff1660e060020a028152600401602060405180830381600087803b1580156103e557600080fd5b505af11580156103f9573d6000803e3d6000fd5b505050506040513d602081101561040f57600080fd5b505160005433600160a060020a0392831681149450911614905081806104325750805b806104d85750600154604080517f8658b8b9000000000000000000000000000000000000000000000000000000008152336004820152306024820152604481018690529051600160a060020a0390921691638658b8b9916064808201926020929091908290030181600087803b1580156104ab57600080fd5b505af11580156104bf573d6000803e3d6000fd5b505050506040513d60208110156104d557600080fd5b50515b151561052e576040805160e560020a62461bcd02815260206004820152601760248201527f5065726d697373696f6e20636865636b206661696c6564000000000000000000604482015290519081900360640190fd5b600160a060020a038516600081815260056020908152604091829020805460ff1916881515179055815192835242908301523382820152517fae959e8245e5786ca650d5652d43b0224121c82a273a0edd13e922e5b260035d916060908290030190a15050505050565b604080517f636f6e6669677572652875696e743235362900000000000000000000000000008152905190819003601201902090565b7f57484954454c495354000000000000000000000000000000000000000000000081565b600054600160a060020a03163314610653576040805160e560020a62461bcd02815260206004820152601560248201527f53656e646572206973206e6f7420666163746f72790000000000000000000000604482015290519081900360640190fd5b600455565b60045481565b600160009054906101000a9004600160a060020a0316600160a060020a0316638da5cb5b6040518163ffffffff1660e060020a028152600401602060405180830381600087803b1580156106b157600080fd5b505af11580156106c5573d6000803e3d6000fd5b505050506040513d60208110156106db57600080fd5b5051600160a060020a0316331461073c576040805160e560020a62461bcd02815260206004820152601360248201527f53656e646572206973206e6f74206f776e657200000000000000000000000000604482015290519081900360640190fd5b610744610edf565b565b60035460a060020a900460ff1681565b6000600254600080600160009054906101000a9004600160a060020a0316600160a060020a0316638da5cb5b6040518163ffffffff1660e060020a028152600401602060405180830381600087803b1580156107b157600080fd5b505af11580156107c5573d6000803e3d6000fd5b505050506040513d60208110156107db57600080fd5b505160005433600160a060020a0392831681149450911614905081806107fe5750805b806108a45750600154604080517f8658b8b9000000000000000000000000000000000000000000000000000000008152336004820152306024820152604481018690529051600160a060020a0390921691638658b8b9916064808201926020929091908290030181600087803b15801561087757600080fd5b505af115801561088b573d6000803e3d6000fd5b505050506040513d60208110156108a157600080fd5b50515b15156108fa576040805160e560020a62461bcd02815260206004820152601760248201527f5065726d697373696f6e20636865636b206661696c6564000000000000000000604482015290519081900360640190fd5b60035460008054604080517f8da5cb5b0000000000000000000000000000000000000000000000000000000081529051600160a060020a03948516946323b872dd94309490911692638da5cb5b9260048083019360209383900390910190829087803b15801561096957600080fd5b505af115801561097d573d6000803e3d6000fd5b505050506040513d602081101561099357600080fd5b50516040805160e060020a63ffffffff8616028152600160a060020a039384166004820152929091166024830152604482018990525160648083019260209291908290030181600087803b1580156109ea57600080fd5b505af11580156109fe573d6000803e3d6000fd5b505050506040513d6020811015610a1457600080fd5b50511515610a6c576040805160e560020a62461bcd02815260206004820152601260248201527f556e61626c6520746f2074616b65206665650000000000000000000000000000604482015290519081900360640190fd5b506001949350505050565b600160009054906101000a9004600160a060020a0316600160a060020a0316638da5cb5b6040518163ffffffff1660e060020a028152600401602060405180830381600087803b158015610aca57600080fd5b505af1158015610ade573d6000803e3d6000fd5b505050506040513d6020811015610af457600080fd5b5051600160a060020a03163314610b55576040805160e560020a62461bcd02815260206004820152601360248201527f53656e646572206973206e6f74206f776e657200000000000000000000000000604482015290519081900360640190fd5b600454604080519182526020820183905280517f5e1376565b86c90c6291f3905cefa4a3c34472b6c5bf57f935d6c5b6de95e4979281900390910190a1600455565b600354600160a060020a031681565b600354600090819060a060020a900460ff161515610d4e57600160a060020a03851660009081526005602052604090205460ff1615610be85760019150610d53565b600154604080517f70a08231000000000000000000000000000000000000000000000000000000008152600160a060020a0388811660048301529151610c8b93889316916370a082319160248083019260209291908290030181600087803b158015610c5357600080fd5b505af1158015610c67573d6000803e3d6000fd5b505050506040513d6020811015610c7d57600080fd5b50519063ffffffff610f4a16565b9050600454610d36600160009054906101000a9004600160a060020a0316600160a060020a03166318160ddd6040518163ffffffff1660e060020a028152600401602060405180830381600087803b158015610ce657600080fd5b505af1158015610cfa573d6000803e3d6000fd5b505050506040513d6020811015610d1057600080fd5b5051610d2a84670de0b6b3a764000063ffffffff610f5d16565b9063ffffffff610f8616565b1115610d455760009150610d53565b60019150610d53565b600191505b50949350505050565b600160009054906101000a9004600160a060020a0316600160a060020a0316638da5cb5b6040518163ffffffff1660e060020a028152600401602060405180830381600087803b158015610daf57600080fd5b505af1158015610dc3573d6000803e3d6000fd5b505050506040513d6020811015610dd957600080fd5b5051600160a060020a03163314610e3a576040805160e560020a62461bcd02815260206004820152601360248201527f53656e646572206973206e6f74206f776e657200000000000000000000000000604482015290519081900360640190fd5b610744610f9b565b60056020526000908152604090205460ff1681565b600154600160a060020a031681565b604080516001808252818301909252606091829190602080830190803883390190505090507f57484954454c4953540000000000000000000000000000000000000000000000816000815181101515610ebb57fe5b60209081029091010152905090565b600054600160a060020a031681565b60025481565b60035460a060020a900460ff161515610ef757600080fd5b6003805474ff0000000000000000000000000000000000000000191690556040805142815290517faaa520fdd7d2c83061d632fa017b0432407e798818af63ea908589fceda39ab79181900360200190a1565b81810182811015610f5757fe5b92915050565b6000821515610f6e57506000610f57565b50818102818382811515610f7e57fe5b0414610f5757fe5b60008183811515610f9357fe5b049392505050565b60035460a060020a900460ff1615610fb257600080fd5b6003805474ff0000000000000000000000000000000000000000191660a060020a1790556040805142815290517f68b095021b1f40fe513109f513c66692f0b3219aee674a69f4efc57badb8201d9181900360200190a15600a165627a7a72305820c3cb1ad63500dfc29025438d919b938a2a7d940b5a812a6d5b4d391244fe1bfc0029",
  "source": "pragma solidity ^0.4.24;\n\nimport \"./ITransferManager.sol\";\nimport \"openzeppelin-solidity/contracts/math/SafeMath.sol\";\n\n/////////////////////\n// Module permissions\n/////////////////////\n//                                        Owner       WHITELIST      FLAGS\n// modifyWhitelist                          X             X\n// modifyWhitelistMulti                     X             X\n\n/**\n * @title Transfer Manager module for limiting percentage of token supply a single address can hold\n */\ncontract PercentageTransferManager is ITransferManager {\n    using SafeMath for uint256;\n\n    // Permission key for modifying the whitelist\n    bytes32 public constant WHITELIST = \"WHITELIST\";\n\n    // Maximum percentage that any holder can have, multiplied by 10**16 - e.g. 20% is 20 * 10**16\n    uint256 public maxHolderPercentage;\n\n    // Addresses on this list are always able to send / receive tokens\n    mapping (address => bool) public whitelist;\n\n    event LogModifyHolderPercentage(uint256 _oldHolderPercentage, uint256 _newHolderPercentage);\n    event LogModifyWhitelist(\n        address _investor,\n        uint256 _dateAdded,\n        address _addedBy\n    );\n\n    /**\n     * @notice Constructor\n     * @param _securityToken Address of the security token\n     * @param _polyAddress Address of the polytoken\n     */\n    constructor (address _securityToken, address _polyAddress)\n    public\n    IModule(_securityToken, _polyAddress)\n    {\n    }\n\n    /// @notice Used to verify the transfer transaction according to the rule implemented in the trnasfer managers\n    function verifyTransfer(address /* _from */, address _to, uint256 _amount, bool /* _isTransfer */) public returns(Result) {\n        if (!paused) {\n            // If an address is on the whitelist, it is allowed to hold more than maxHolderPercentage of the tokens.\n            if (whitelist[_to]) {\n                return Result.NA;\n            }\n            uint256 newBalance = ISecurityToken(securityToken).balanceOf(_to).add(_amount);\n            if (newBalance.mul(10**18).div(ISecurityToken(securityToken).totalSupply()) > maxHolderPercentage) {\n                return Result.INVALID;\n            }\n            return Result.NA;\n        }\n        return Result.NA;\n    }\n\n    /**\n     * @notice Used to intialize the variables of the contract\n     * @param _maxHolderPercentage Maximum amount of ST20 tokens(in %) can hold by the investor\n     */\n    function configure(uint256 _maxHolderPercentage) public onlyFactory {\n        maxHolderPercentage = _maxHolderPercentage;\n    }\n\n    /**\n     * @notice This function returns the signature of configure function\n     */\n    function getInitFunction() public returns(bytes4) {\n        return bytes4(keccak256(\"configure(uint256)\"));\n    }\n\n    /**\n    * @notice sets the maximum percentage that an individual token holder can hold\n    * @param _maxHolderPercentage is the new maximum percentage (multiplied by 10**16)\n    */\n    function changeHolderPercentage(uint256 _maxHolderPercentage) public onlyOwner {\n        emit LogModifyHolderPercentage(maxHolderPercentage, _maxHolderPercentage);\n        maxHolderPercentage = _maxHolderPercentage;\n    }\n\n    /**\n    * @notice adds or removes addresses from the whitelist.\n    * @param _investor is the address to whitelist\n    * @param _valid whether or not the address it to be added or removed from the whitelist\n    */\n    function modifyWhitelist(address _investor, bool _valid) public withPerm(WHITELIST) {\n        whitelist[_investor] = _valid;\n        emit LogModifyWhitelist(_investor, now, msg.sender);\n    }\n\n    /**\n     * @notice Return the permissions flag that are associated with Percentage transfer Manager\n     */\n    function getPermissions() public view returns(bytes32[]) {\n        bytes32[] memory allPermissions = new bytes32[](1);\n        allPermissions[0] = WHITELIST;\n        return allPermissions;\n    }\n\n}\n",
  "sourcePath": "/Users/Yihan/st/contracts/modules/TransferManager/PercentageTransferManager.sol",
  "compiler": {
    "name": "solc",
    "version": "0.4.24+commit.e67f0147.Emscripten.clang"
  },
  "schemaVersion": "2.0.0",
  "updatedAt": "2018-07-09T19:15:50.962Z"
}