{
  "contractName": "PreSaleSTO",
  "abi": [
    {
      "constant": true,
      "inputs": [],
      "name": "endTime",
      "outputs": [
        {
          "name": "",
          "type": "uint256"
        }
      ],
      "payable": false,
      "stateMutability": "view",
      "type": "function"
    },
    {
      "constant": true,
      "inputs": [],
      "name": "PRE_SALE_ADMIN",
      "outputs": [
        {
          "name": "",
          "type": "bytes32"
        }
      ],
      "payable": false,
      "stateMutability": "view",
      "type": "function"
    },
    {
      "constant": true,
      "inputs": [],
      "name": "paused",
      "outputs": [
        {
          "name": "",
          "type": "bool"
        }
      ],
      "payable": false,
      "stateMutability": "view",
      "type": "function"
    },
    {
      "constant": false,
      "inputs": [
        {
          "name": "_amount",
          "type": "uint256"
        }
      ],
      "name": "takeFee",
      "outputs": [
        {
          "name": "",
          "type": "bool"
        }
      ],
      "payable": false,
      "stateMutability": "nonpayable",
      "type": "function"
    },
    {
      "constant": true,
      "inputs": [
        {
          "name": "",
          "type": "address"
        }
      ],
      "name": "investors",
      "outputs": [
        {
          "name": "",
          "type": "uint256"
        }
      ],
      "payable": false,
      "stateMutability": "view",
      "type": "function"
    },
    {
      "constant": true,
      "inputs": [],
      "name": "polyToken",
      "outputs": [
        {
          "name": "",
          "type": "address"
        }
      ],
      "payable": false,
      "stateMutability": "view",
      "type": "function"
    },
    {
      "constant": true,
      "inputs": [],
      "name": "startTime",
      "outputs": [
        {
          "name": "",
          "type": "uint256"
        }
      ],
      "payable": false,
      "stateMutability": "view",
      "type": "function"
    },
    {
      "constant": false,
      "inputs": [],
      "name": "pause",
      "outputs": [],
      "payable": false,
      "stateMutability": "nonpayable",
      "type": "function"
    },
    {
      "constant": false,
      "inputs": [
        {
          "name": "_tokenContract",
          "type": "address"
        }
      ],
      "name": "reclaimERC20",
      "outputs": [],
      "payable": false,
      "stateMutability": "nonpayable",
      "type": "function"
    },
    {
      "constant": true,
      "inputs": [
        {
          "name": "_beneficiary",
          "type": "address"
        },
        {
          "name": "_fundsAmount",
          "type": "uint256"
        }
      ],
      "name": "verifyInvestment",
      "outputs": [
        {
          "name": "",
          "type": "bool"
        }
      ],
      "payable": false,
      "stateMutability": "view",
      "type": "function"
    },
    {
      "constant": true,
      "inputs": [],
      "name": "securityToken",
      "outputs": [
        {
          "name": "",
          "type": "address"
        }
      ],
      "payable": false,
      "stateMutability": "view",
      "type": "function"
    },
    {
      "constant": true,
      "inputs": [],
      "name": "polyRaised",
      "outputs": [
        {
          "name": "",
          "type": "uint256"
        }
      ],
      "payable": false,
      "stateMutability": "view",
      "type": "function"
    },
    {
      "constant": true,
      "inputs": [],
      "name": "factory",
      "outputs": [
        {
          "name": "",
          "type": "address"
        }
      ],
      "payable": false,
      "stateMutability": "view",
      "type": "function"
    },
    {
      "constant": true,
      "inputs": [],
      "name": "etherRaised",
      "outputs": [
        {
          "name": "",
          "type": "uint256"
        }
      ],
      "payable": false,
      "stateMutability": "view",
      "type": "function"
    },
    {
      "constant": true,
      "inputs": [],
      "name": "fundraiseType",
      "outputs": [
        {
          "name": "",
          "type": "uint8"
        }
      ],
      "payable": false,
      "stateMutability": "view",
      "type": "function"
    },
    {
      "constant": true,
      "inputs": [],
      "name": "FEE_ADMIN",
      "outputs": [
        {
          "name": "",
          "type": "bytes32"
        }
      ],
      "payable": false,
      "stateMutability": "view",
      "type": "function"
    },
    {
      "constant": true,
      "inputs": [],
      "name": "investorCount",
      "outputs": [
        {
          "name": "",
          "type": "uint256"
        }
      ],
      "payable": false,
      "stateMutability": "view",
      "type": "function"
    },
    {
      "constant": false,
      "inputs": [
        {
          "name": "_newEndDate",
          "type": "uint256"
        }
      ],
      "name": "unpause",
      "outputs": [],
      "payable": false,
      "stateMutability": "nonpayable",
      "type": "function"
    },
    {
      "inputs": [
        {
          "name": "_securityToken",
          "type": "address"
        },
        {
          "name": "_polyAddress",
          "type": "address"
        }
      ],
      "payable": false,
      "stateMutability": "nonpayable",
      "type": "constructor"
    },
    {
      "anonymous": false,
      "inputs": [
        {
          "indexed": false,
          "name": "_investor",
          "type": "address"
        },
        {
          "indexed": false,
          "name": "_amount",
          "type": "uint256"
        }
      ],
      "name": "TokensAllocated",
      "type": "event"
    },
    {
      "anonymous": false,
      "inputs": [
        {
          "indexed": false,
          "name": "_timestammp",
          "type": "uint256"
        }
      ],
      "name": "Pause",
      "type": "event"
    },
    {
      "anonymous": false,
      "inputs": [
        {
          "indexed": false,
          "name": "_timestamp",
          "type": "uint256"
        }
      ],
      "name": "Unpause",
      "type": "event"
    },
    {
      "constant": false,
      "inputs": [
        {
          "name": "_endTime",
          "type": "uint256"
        }
      ],
      "name": "configure",
      "outputs": [],
      "payable": false,
      "stateMutability": "nonpayable",
      "type": "function"
    },
    {
      "constant": false,
      "inputs": [],
      "name": "getInitFunction",
      "outputs": [
        {
          "name": "",
          "type": "bytes4"
        }
      ],
      "payable": false,
      "stateMutability": "nonpayable",
      "type": "function"
    },
    {
      "constant": true,
      "inputs": [],
      "name": "getRaisedEther",
      "outputs": [
        {
          "name": "",
          "type": "uint256"
        }
      ],
      "payable": false,
      "stateMutability": "view",
      "type": "function"
    },
    {
      "constant": true,
      "inputs": [],
      "name": "getRaisedPOLY",
      "outputs": [
        {
          "name": "",
          "type": "uint256"
        }
      ],
      "payable": false,
      "stateMutability": "view",
      "type": "function"
    },
    {
      "constant": true,
      "inputs": [],
      "name": "getNumberInvestors",
      "outputs": [
        {
          "name": "",
          "type": "uint256"
        }
      ],
      "payable": false,
      "stateMutability": "view",
      "type": "function"
    },
    {
      "constant": true,
      "inputs": [],
      "name": "getPermissions",
      "outputs": [
        {
          "name": "",
          "type": "bytes32[]"
        }
      ],
      "payable": false,
      "stateMutability": "view",
      "type": "function"
    },
    {
      "constant": false,
      "inputs": [
        {
          "name": "_investor",
          "type": "address"
        },
        {
          "name": "_amount",
          "type": "uint256"
        },
        {
          "name": "_etherContributed",
          "type": "uint256"
        },
        {
          "name": "_polyContributed",
          "type": "uint256"
        }
      ],
      "name": "allocateTokens",
      "outputs": [],
      "payable": false,
      "stateMutability": "nonpayable",
      "type": "function"
    },
    {
      "constant": false,
      "inputs": [
        {
          "name": "_investors",
          "type": "address[]"
        },
        {
          "name": "_amounts",
          "type": "uint256[]"
        },
        {
          "name": "_etherContributed",
          "type": "uint256"
        },
        {
          "name": "_polyContributed",
          "type": "uint256"
        }
      ],
      "name": "allocateTokensMulti",
      "outputs": [],
      "payable": false,
      "stateMutability": "nonpayable",
      "type": "function"
    }
  ],
  "bytecode": "0x60806040527f4645455f41444d494e00000000000000000000000000000000000000000000006002556003805460a060020a60ff021916905534801561004457600080fd5b5060405160408061161b83398101604052805160209091015160018054600160a060020a03938416600160a060020a0319918216179091556000805482163317905560038054939092169216919091179055611576806100a56000396000f30060806040526004361061013a5763ffffffff60e060020a6000350416631613ec9d811461013f5780631eb25e0a146101895780633197cbb6146101a357806335ff3a51146101ca57806338c59de9146101df57806348bc2627146101f457806351eea7751461028b5780635c975abb146102a05780635f7619a4146102c95780636f7bc9be146102e15780636faa22a51461030257806378e97925146103335780638456cb59146103485780638905fd4f1461035d5780639a903ca71461037e578063a3fb8f15146103a8578063a412f87c146103bd578063b84dfbd2146103e1578063be16338c146103f6578063c3a07df61461040b578063c45a015514610470578063cd72ab6914610485578063d0d832ad1461049a578063d70afa96146104d3578063d7e64c00146104e8578063fabc1cbc146104fd575b600080fd5b34801561014b57600080fd5b50610154610515565b604080517fffffffff000000000000000000000000000000000000000000000000000000009092168252519081900360200190f35b34801561019557600080fd5b506101a160043561054a565b005b3480156101af57600080fd5b506101b86105bd565b60408051918252519081900360200190f35b3480156101d657600080fd5b506101b86105c3565b3480156101eb57600080fd5b506101b86105c9565b34801561020057600080fd5b50604080516020600480358082013583810280860185019096528085526101a195369593946024949385019291829185019084908082843750506040805187358901803560208181028481018201909552818452989b9a9989019892975090820195509350839250850190849080828437509497505084359550505060209092013591506105cf9050565b34801561029757600080fd5b506101b86107ea565b3480156102ac57600080fd5b506102b56107fc565b604080519115158252519081900360200190f35b3480156102d557600080fd5b506102b560043561081d565b3480156102ed57600080fd5b506101b8600160a060020a0360043516610b3e565b34801561030e57600080fd5b50610317610b50565b60408051600160a060020a039092168252519081900360200190f35b34801561033f57600080fd5b506101b8610b5f565b34801561035457600080fd5b506101a1610b65565b34801561036957600080fd5b506101a1600160a060020a0360043516610c5b565b34801561038a57600080fd5b506101a1600160a060020a0360043516602435604435606435610e89565b3480156103b457600080fd5b506101b86111c0565b3480156103c957600080fd5b506102b5600160a060020a03600435166024356111c6565b3480156103ed57600080fd5b5061031761126a565b34801561040257600080fd5b506101b8611279565b34801561041757600080fd5b5061042061127f565b60408051602080825283518183015283519192839290830191858101910280838360005b8381101561045c578181015183820152602001610444565b505050509050019250505060405180910390f35b34801561047c57600080fd5b506103176112d1565b34801561049157600080fd5b506101b86112e0565b3480156104a657600080fd5b506104af6112e6565b604051808260018111156104bf57fe5b60ff16815260200191505060405180910390f35b3480156104df57600080fd5b506101b8611308565b3480156104f457600080fd5b506101b861130e565b34801561050957600080fd5b506101a1600435611314565b604080517f636f6e6669677572652875696e743235362900000000000000000000000000008152905190819003601201902090565b600054600160a060020a031633146105ac576040805160e560020a62461bcd02815260206004820152601560248201527f53656e646572206973206e6f7420666163746f72790000000000000000000000604482015290519081900360640190fd5b8015156105b857600080fd5b600555565b60055481565b60085490565b60075490565b600060008051602061152b833981519152600080600160009054906101000a9004600160a060020a0316600160a060020a0316638da5cb5b6040518163ffffffff1660e060020a028152600401602060405180830381600087803b15801561063657600080fd5b505af115801561064a573d6000803e3d6000fd5b505050506040513d602081101561066057600080fd5b505160005433600160a060020a0392831681149450911614905081806106835750805b806107295750600154604080517f8658b8b9000000000000000000000000000000000000000000000000000000008152336004820152306024820152604481018690529051600160a060020a0390921691638658b8b9916064808201926020929091908290030181600087803b1580156106fc57600080fd5b505af1158015610710573d6000803e3d6000fd5b505050506040513d602081101561072657600080fd5b50515b151561077f576040805160e560020a62461bcd02815260206004820152601760248201527f5065726d697373696f6e20636865636b206661696c6564000000000000000000604482015290519081900360640190fd5b865188511461078d57600080fd5b600093505b87518410156107e0576107d588858151811015156107ac57fe5b9060200190602002015188868151811015156107c457fe5b906020019060200201518888610e89565b600190930192610792565b5050505050505050565b60008051602061152b83398151915281565b60035474010000000000000000000000000000000000000000900460ff1681565b6000600254600080600160009054906101000a9004600160a060020a0316600160a060020a0316638da5cb5b6040518163ffffffff1660e060020a028152600401602060405180830381600087803b15801561087857600080fd5b505af115801561088c573d6000803e3d6000fd5b505050506040513d60208110156108a257600080fd5b505160005433600160a060020a0392831681149450911614905081806108c55750805b8061096b5750600154604080517f8658b8b9000000000000000000000000000000000000000000000000000000008152336004820152306024820152604481018690529051600160a060020a0390921691638658b8b9916064808201926020929091908290030181600087803b15801561093e57600080fd5b505af1158015610952573d6000803e3d6000fd5b505050506040513d602081101561096857600080fd5b50515b15156109c1576040805160e560020a62461bcd02815260206004820152601760248201527f5065726d697373696f6e20636865636b206661696c6564000000000000000000604482015290519081900360640190fd5b60035460008054604080517f8da5cb5b0000000000000000000000000000000000000000000000000000000081529051600160a060020a03948516946323b872dd94309490911692638da5cb5b9260048083019360209383900390910190829087803b158015610a3057600080fd5b505af1158015610a44573d6000803e3d6000fd5b505050506040513d6020811015610a5a57600080fd5b50516040805160e060020a63ffffffff8616028152600160a060020a039384166004820152929091166024830152604482018990525160648083019260209291908290030181600087803b158015610ab157600080fd5b505af1158015610ac5573d6000803e3d6000fd5b505050506040513d6020811015610adb57600080fd5b50511515610b33576040805160e560020a62461bcd02815260206004820152601260248201527f556e61626c6520746f2074616b65206665650000000000000000000000000000604482015290519081900360640190fd5b506001949350505050565b60066020526000908152604090205481565b600354600160a060020a031681565b60045481565b600160009054906101000a9004600160a060020a0316600160a060020a0316638da5cb5b6040518163ffffffff1660e060020a028152600401602060405180830381600087803b158015610bb857600080fd5b505af1158015610bcc573d6000803e3d6000fd5b505050506040513d6020811015610be257600080fd5b5051600160a060020a03163314610c43576040805160e560020a62461bcd02815260206004820152601360248201527f53656e646572206973206e6f74206f776e657200000000000000000000000000604482015290519081900360640190fd5b6005544210610c5157600080fd5b610c59611409565b565b600080600160009054906101000a9004600160a060020a0316600160a060020a0316638da5cb5b6040518163ffffffff1660e060020a028152600401602060405180830381600087803b158015610cb157600080fd5b505af1158015610cc5573d6000803e3d6000fd5b505050506040513d6020811015610cdb57600080fd5b5051600160a060020a03163314610d3c576040805160e560020a62461bcd02815260206004820152601360248201527f53656e646572206973206e6f74206f776e657200000000000000000000000000604482015290519081900360640190fd5b600160a060020a0383161515610d5157600080fd5b604080517f70a082310000000000000000000000000000000000000000000000000000000081523060048201529051849350600160a060020a038416916370a082319160248083019260209291908290030181600087803b158015610db557600080fd5b505af1158015610dc9573d6000803e3d6000fd5b505050506040513d6020811015610ddf57600080fd5b5051604080517fa9059cbb000000000000000000000000000000000000000000000000000000008152336004820152602481018390529051919250600160a060020a0384169163a9059cbb916044808201926020929091908290030181600087803b158015610e4d57600080fd5b505af1158015610e61573d6000803e3d6000fd5b505050506040513d6020811015610e7757600080fd5b50511515610e8457600080fd5b505050565b60008051602061152b833981519152600080600160009054906101000a9004600160a060020a0316600160a060020a0316638da5cb5b6040518163ffffffff1660e060020a028152600401602060405180830381600087803b158015610eee57600080fd5b505af1158015610f02573d6000803e3d6000fd5b505050506040513d6020811015610f1857600080fd5b505160005433600160a060020a039283168114945091161490508180610f3b5750805b80610fe15750600154604080517f8658b8b9000000000000000000000000000000000000000000000000000000008152336004820152306024820152604481018690529051600160a060020a0390921691638658b8b9916064808201926020929091908290030181600087803b158015610fb457600080fd5b505af1158015610fc8573d6000803e3d6000fd5b505050506040513d6020811015610fde57600080fd5b50515b1515611037576040805160e560020a62461bcd02815260206004820152601760248201527f5065726d697373696f6e20636865636b206661696c6564000000000000000000604482015290519081900360640190fd5b60055442111561104657600080fd5b6000861161105357600080fd5b600154604080517f40c10f19000000000000000000000000000000000000000000000000000000008152600160a060020a038a81166004830152602482018a9052915191909216916340c10f199160448083019260209291908290030181600087803b1580156110c257600080fd5b505af11580156110d6573d6000803e3d6000fd5b505050506040513d60208110156110ec57600080fd5b5050600160a060020a038716600090815260066020526040902054611117908763ffffffff61149b16565b600160a060020a03881660009081526006602052604090205560075461114490600163ffffffff61149b16565b60075560085461115a908663ffffffff61149b16565b600855600954611170908563ffffffff61149b16565b60095560408051600160a060020a03891681526020810188905281517f3b87361b8a201c697d51aaa7a509f6dfb3870db9e5c5501d22d3e9fae858f725929181900390910190a150505050505050565b60095490565b600354604080517fdd62ed3e000000000000000000000000000000000000000000000000000000008152600160a060020a03858116600483015230602483015291516000938593169163dd62ed3e91604480830192602092919082900301818887803b15801561123557600080fd5b505af1158015611249573d6000803e3d6000fd5b505050506040513d602081101561125f57600080fd5b505110159392505050565b600154600160a060020a031681565b60095481565b6040805160018082528183019092526060918291906020808301908038833901905050905060008051602061152b8339815191528160008151811015156112c257fe5b60209081029091010152905090565b600054600160a060020a031681565b60085481565b6003547501000000000000000000000000000000000000000000900460ff1681565b60025481565b60075481565b600160009054906101000a9004600160a060020a0316600160a060020a0316638da5cb5b6040518163ffffffff1660e060020a028152600401602060405180830381600087803b15801561136757600080fd5b505af115801561137b573d6000803e3d6000fd5b505050506040513d602081101561139157600080fd5b5051600160a060020a031633146113f2576040805160e560020a62461bcd02815260206004820152601360248201527f53656e646572206973206e6f74206f776e657200000000000000000000000000604482015290519081900360640190fd5b60055481101561140157600080fd5b6105b86114ae565b60035474010000000000000000000000000000000000000000900460ff161561143157600080fd5b6003805474ff00000000000000000000000000000000000000001916740100000000000000000000000000000000000000001790556040805142815290517f68b095021b1f40fe513109f513c66692f0b3219aee674a69f4efc57badb8201d9181900360200190a1565b818101828110156114a857fe5b92915050565b60035474010000000000000000000000000000000000000000900460ff1615156114d757600080fd5b6003805474ff0000000000000000000000000000000000000000191690556040805142815290517faaa520fdd7d2c83061d632fa017b0432407e798818af63ea908589fceda39ab79181900360200190a156005052455f53414c455f41444d494e000000000000000000000000000000000000a165627a7a72305820653744082824a05415e7cc58ee2c440c3fe7a495866dd72a90ec4d336e34fe0e0029",
  "source": "pragma solidity ^0.4.24;\n\nimport \"./ISTO.sol\";\nimport \"../../interfaces/IST20.sol\";\nimport \"openzeppelin-solidity/contracts/math/SafeMath.sol\";\n\n/**\n * @title STO module for private presales\n */\ncontract PreSaleSTO is ISTO {\n    using SafeMath for uint256;\n\n    bytes32 public constant PRE_SALE_ADMIN = \"PRE_SALE_ADMIN\";\n\n    event TokensAllocated(address _investor, uint256 _amount);\n\n    mapping (address => uint256) public investors;\n\n    uint256 public investorCount;\n\n    uint256 public etherRaised;\n    uint256 public polyRaised;\n\n    /**\n     * @notice Constructor\n     * @param _securityToken Address of the security token\n     * @param _polyAddress Address of the polytoken\n     */\n    constructor (address _securityToken, address _polyAddress) public\n      IModule(_securityToken, _polyAddress)\n    {\n    }\n\n    /**\n     * @notice Function used to intialize the differnet variables\n     * @param _endTime Unix timestamp at which offering get ended\n     */\n    function configure(uint256 _endTime) public onlyFactory {\n        require(_endTime != 0);\n        endTime = _endTime;\n    }\n\n    /**\n     * @notice This function returns the signature of configure function\n     */\n    function getInitFunction() public returns (bytes4) {\n        return bytes4(keccak256(\"configure(uint256)\"));\n    }\n\n    /**\n     * @notice Return ETH raised by the STO\n     */\n    function getRaisedEther() public view returns (uint256) {\n        return etherRaised;\n    }\n\n    /**\n     * @notice Return POLY raised by the STO\n     */\n    function getRaisedPOLY() public view returns (uint256) {\n        return polyRaised;\n    }\n\n    /**\n     * @notice Return the total no. of investors\n     */\n    function getNumberInvestors() public view returns (uint256) {\n        return investorCount;\n    }\n\n    /**\n     * @notice Return the permissions flag that are associated with STO\n     */\n    function getPermissions() public view returns(bytes32[]) {\n        bytes32[] memory allPermissions = new bytes32[](1);\n        allPermissions[0] = PRE_SALE_ADMIN;\n        return allPermissions;\n    }\n\n    /**\n     * @notice Function used to allocate tokens to the investor\n     * @param _investor Address of the investor\n     * @param _amount No. of tokens need to transfered to the investor\n     * @param _etherContributed How much amount of ETH get contributed\n     * @param _polyContributed How much amount of POLY get contributed\n     */\n    function allocateTokens(address _investor, uint256 _amount, uint256 _etherContributed, uint256 _polyContributed) public withPerm(PRE_SALE_ADMIN)\n    {\n        require(now <= endTime);\n        require(_amount > 0);\n        IST20(securityToken).mint(_investor, _amount);\n        investors[_investor] = investors[_investor].add(_amount);\n        investorCount = investorCount.add(1);\n        etherRaised = etherRaised.add(_etherContributed);\n        polyRaised = polyRaised.add(_polyContributed);\n        emit TokensAllocated(_investor, _amount);\n    }\n\n    /**\n     * @notice Function used to allocate tokens to the multiple investor\n     * @param _investors Array of address of the investors\n     * @param _amounts Array of no. of tokens need to transfered to the investors\n     * @param _etherContributed Total amount of ETH get contributed\n     * @param _polyContributed Total amount of POLY get contributed\n     */\n    function allocateTokensMulti(address[] _investors, uint256[] _amounts, uint256 _etherContributed, uint256 _polyContributed) public withPerm(PRE_SALE_ADMIN)\n    {\n        require(_investors.length == _amounts.length);\n        for (uint256 i = 0; i < _investors.length; i++) {\n            allocateTokens(_investors[i], _amounts[i], _etherContributed, _polyContributed);\n        }\n    }\n}\n",
  "sourcePath": "/Users/Yihan/st/contracts/modules/STO/PreSaleSTO.sol",
  "compiler": {
    "name": "solc",
    "version": "0.4.24+commit.e67f0147.Emscripten.clang"
  },
  "schemaVersion": "2.0.0",
  "updatedAt": "2018-07-09T19:15:50.933Z"
}