{
  "contractName": "ReclaimTokens",
  "abi": [
    {
      "constant": false,
      "inputs": [],
      "name": "renounceOwnership",
      "outputs": [],
      "payable": false,
      "stateMutability": "nonpayable",
      "type": "function"
    },
    {
      "constant": true,
      "inputs": [],
      "name": "owner",
      "outputs": [
        {
          "name": "",
          "type": "address"
        }
      ],
      "payable": false,
      "stateMutability": "view",
      "type": "function"
    },
    {
      "constant": false,
      "inputs": [
        {
          "name": "_newOwner",
          "type": "address"
        }
      ],
      "name": "transferOwnership",
      "outputs": [],
      "payable": false,
      "stateMutability": "nonpayable",
      "type": "function"
    },
    {
      "anonymous": false,
      "inputs": [
        {
          "indexed": true,
          "name": "previousOwner",
          "type": "address"
        }
      ],
      "name": "OwnershipRenounced",
      "type": "event"
    },
    {
      "anonymous": false,
      "inputs": [
        {
          "indexed": true,
          "name": "previousOwner",
          "type": "address"
        },
        {
          "indexed": true,
          "name": "newOwner",
          "type": "address"
        }
      ],
      "name": "OwnershipTransferred",
      "type": "event"
    },
    {
      "constant": false,
      "inputs": [
        {
          "name": "_tokenContract",
          "type": "address"
        }
      ],
      "name": "reclaimERC20",
      "outputs": [],
      "payable": false,
      "stateMutability": "nonpayable",
      "type": "function"
    }
  ],
  "bytecode": "0x608060405260008054600160a060020a031916331790556103a6806100256000396000f3006080604052600436106100615763ffffffff7c0100000000000000000000000000000000000000000000000000000000600035041663715018a681146100665780638905fd4f1461007d5780638da5cb5b1461009e578063f2fde38b146100cf575b600080fd5b34801561007257600080fd5b5061007b6100f0565b005b34801561008957600080fd5b5061007b600160a060020a036004351661015c565b3480156100aa57600080fd5b506100b36102cb565b60408051600160a060020a039092168252519081900360200190f35b3480156100db57600080fd5b5061007b600160a060020a03600435166102da565b600054600160a060020a0316331461010757600080fd5b60008054604051600160a060020a03909116917ff8df31144d9c2f0f6b59d69b8b98abd5459d07f2742c4df920b25aae33c6482091a26000805473ffffffffffffffffffffffffffffffffffffffff19169055565b600080548190600160a060020a0316331461017657600080fd5b600160a060020a038316151561018b57600080fd5b604080517f70a082310000000000000000000000000000000000000000000000000000000081523060048201529051849350600160a060020a038416916370a082319160248083019260209291908290030181600087803b1580156101ef57600080fd5b505af1158015610203573d6000803e3d6000fd5b505050506040513d602081101561021957600080fd5b505160008054604080517fa9059cbb000000000000000000000000000000000000000000000000000000008152600160a060020a0392831660048201526024810185905290519394509085169263a9059cbb92604480840193602093929083900390910190829087803b15801561028f57600080fd5b505af11580156102a3573d6000803e3d6000fd5b505050506040513d60208110156102b957600080fd5b505115156102c657600080fd5b505050565b600054600160a060020a031681565b600054600160a060020a031633146102f157600080fd5b6102fa816102fd565b50565b600160a060020a038116151561031257600080fd5b60008054604051600160a060020a03808516939216917f8be0079c531659141344cd1fd0a4f28419497f9722a3daafe3b4186f6b6457e091a36000805473ffffffffffffffffffffffffffffffffffffffff1916600160a060020a03929092169190911790555600a165627a7a723058200f57250c7bf79cc36d5229958cbc737ec67f0efb125d69bbfd41ceafc23461b80029",
  "source": "pragma solidity ^0.4.24;\n\nimport \"openzeppelin-solidity/contracts/ownership/Ownable.sol\";\nimport \"openzeppelin-solidity/contracts/token/ERC20/ERC20Basic.sol\";\n\n/**\n * @title Utility contract to allow owner to retreive any ERC20 sent to the contract\n */\ncontract ReclaimTokens is Ownable {\n\n    /**\n    * @notice Reclaim all ERC20Basic compatible tokens\n    * @param _tokenContract The address of the token contract\n    */\n    function reclaimERC20(address _tokenContract) external onlyOwner {\n        require(_tokenContract != address(0));\n        ERC20Basic token = ERC20Basic(_tokenContract);\n        uint256 balance = token.balanceOf(address(this));\n        require(token.transfer(owner, balance));\n    }\n}\n",
  "sourcePath": "/Users/Yihan/st/contracts/ReclaimTokens.sol",
  "compiler": {
    "name": "solc",
    "version": "0.4.24+commit.e67f0147.Emscripten.clang"
  },
  "schemaVersion": "2.0.0",
  "updatedAt": "2018-07-09T19:15:50.892Z"
}