{
  "contractName": "Registry",
  "abi": [
    {
      "constant": true,
      "inputs": [
        {
          "name": "",
          "type": "bytes32"
        }
      ],
      "name": "validAddressKeys",
      "outputs": [
        {
          "name": "",
          "type": "bool"
        }
      ],
      "payable": false,
      "stateMutability": "view",
      "type": "function"
    },
    {
      "constant": true,
      "inputs": [],
      "name": "paused",
      "outputs": [
        {
          "name": "",
          "type": "bool"
        }
      ],
      "payable": false,
      "stateMutability": "view",
      "type": "function"
    },
    {
      "constant": true,
      "inputs": [
        {
          "name": "",
          "type": "bytes32"
        }
      ],
      "name": "storedAddresses",
      "outputs": [
        {
          "name": "",
          "type": "address"
        }
      ],
      "payable": false,
      "stateMutability": "view",
      "type": "function"
    },
    {
      "constant": false,
      "inputs": [],
      "name": "renounceOwnership",
      "outputs": [],
      "payable": false,
      "stateMutability": "nonpayable",
      "type": "function"
    },
    {
      "constant": false,
      "inputs": [
        {
          "name": "_tokenContract",
          "type": "address"
        }
      ],
      "name": "reclaimERC20",
      "outputs": [],
      "payable": false,
      "stateMutability": "nonpayable",
      "type": "function"
    },
    {
      "constant": true,
      "inputs": [],
      "name": "owner",
      "outputs": [
        {
          "name": "",
          "type": "address"
        }
      ],
      "payable": false,
      "stateMutability": "view",
      "type": "function"
    },
    {
      "constant": false,
      "inputs": [
        {
          "name": "_newOwner",
          "type": "address"
        }
      ],
      "name": "transferOwnership",
      "outputs": [],
      "payable": false,
      "stateMutability": "nonpayable",
      "type": "function"
    },
    {
      "anonymous": false,
      "inputs": [
        {
          "indexed": false,
          "name": "_nameKey",
          "type": "string"
        },
        {
          "indexed": true,
          "name": "_oldAddress",
          "type": "address"
        },
        {
          "indexed": true,
          "name": "_newAddress",
          "type": "address"
        }
      ],
      "name": "LogChangeAddress",
      "type": "event"
    },
    {
      "anonymous": false,
      "inputs": [
        {
          "indexed": true,
          "name": "previousOwner",
          "type": "address"
        }
      ],
      "name": "OwnershipRenounced",
      "type": "event"
    },
    {
      "anonymous": false,
      "inputs": [
        {
          "indexed": true,
          "name": "previousOwner",
          "type": "address"
        },
        {
          "indexed": true,
          "name": "newOwner",
          "type": "address"
        }
      ],
      "name": "OwnershipTransferred",
      "type": "event"
    },
    {
      "anonymous": false,
      "inputs": [
        {
          "indexed": false,
          "name": "_timestammp",
          "type": "uint256"
        }
      ],
      "name": "Pause",
      "type": "event"
    },
    {
      "anonymous": false,
      "inputs": [
        {
          "indexed": false,
          "name": "_timestamp",
          "type": "uint256"
        }
      ],
      "name": "Unpause",
      "type": "event"
    },
    {
      "constant": true,
      "inputs": [
        {
          "name": "_nameKey",
          "type": "string"
        }
      ],
      "name": "getAddress",
      "outputs": [
        {
          "name": "",
          "type": "address"
        }
      ],
      "payable": false,
      "stateMutability": "view",
      "type": "function"
    },
    {
      "constant": false,
      "inputs": [
        {
          "name": "_nameKey",
          "type": "string"
        },
        {
          "name": "_newAddress",
          "type": "address"
        }
      ],
      "name": "changeAddress",
      "outputs": [],
      "payable": false,
      "stateMutability": "nonpayable",
      "type": "function"
    },
    {
      "constant": false,
      "inputs": [],
      "name": "unpause",
      "outputs": [],
      "payable": false,
      "stateMutability": "nonpayable",
      "type": "function"
    },
    {
      "constant": false,
      "inputs": [],
      "name": "pause",
      "outputs": [],
      "payable": false,
      "stateMutability": "nonpayable",
      "type": "function"
    }
  ],
  "bytecode": "0x6080604052600080543361010002600160a860020a03199091161790556109e28061002b6000396000f3006080604052600436106100ae5763ffffffff7c01000000000000000000000000000000000000000000000000000000006000350416633f4ba83a81146100b357806351038967146100ca5780635c975abb146100f65780636c47e36f1461010b578063715018a61461013f5780638456cb59146101545780638905fd4f146101695780638da5cb5b1461018a578063a7dbb4021461019f578063bf40fac114610203578063f2fde38b1461025c575b600080fd5b3480156100bf57600080fd5b506100c861027d565b005b3480156100d657600080fd5b506100e26004356102a3565b604080519115158252519081900360200190f35b34801561010257600080fd5b506100e26102b8565b34801561011757600080fd5b506101236004356102c1565b60408051600160a060020a039092168252519081900360200190f35b34801561014b57600080fd5b506100c86102dc565b34801561016057600080fd5b506100c8610352565b34801561017557600080fd5b506100c8600160a060020a0360043516610376565b34801561019657600080fd5b506101236104ef565b3480156101ab57600080fd5b506040805160206004803580820135601f81018490048402850184019095528484526100c894369492936024939284019190819084018382808284375094975050509235600160a060020a0316935061050392505050565b34801561020f57600080fd5b506040805160206004803580820135601f81018490048402850184019095528484526101239436949293602493928401919081908401838280828437509497506107659650505050505050565b34801561026857600080fd5b506100c8600160a060020a0360043516610864565b6000546101009004600160a060020a0316331461029957600080fd5b6102a161088c565b565b60026020526000908152604090205460ff1681565b60005460ff1681565b600160205260009081526040902054600160a060020a031681565b6000546101009004600160a060020a031633146102f857600080fd5b60008054604051610100909104600160a060020a0316917ff8df31144d9c2f0f6b59d69b8b98abd5459d07f2742c4df920b25aae33c6482091a26000805474ffffffffffffffffffffffffffffffffffffffff0019169055565b6000546101009004600160a060020a0316331461036e57600080fd5b6102a16108dc565b6000805481906101009004600160a060020a0316331461039557600080fd5b600160a060020a03831615156103aa57600080fd5b604080517f70a082310000000000000000000000000000000000000000000000000000000081523060048201529051849350600160a060020a038416916370a082319160248083019260209291908290030181600087803b15801561040e57600080fd5b505af1158015610422573d6000803e3d6000fd5b505050506040513d602081101561043857600080fd5b505160008054604080517fa9059cbb000000000000000000000000000000000000000000000000000000008152610100909204600160a060020a03908116600484015260248301859052905193945085169263a9059cbb92604480840193602093929083900390910190829087803b1580156104b357600080fd5b505af11580156104c7573d6000803e3d6000fd5b505050506040513d60208110156104dd57600080fd5b505115156104ea57600080fd5b505050565b6000546101009004600160a060020a031681565b600080546101009004600160a060020a0316331461052057600080fd5b60026000846040518082805190602001908083835b602083106105545780518252601f199092019160209182019101610535565b51815160209384036101000a600019018019909216911617905260408051929094018290039091208652850195909552929092016000205460ff161592506105a9915050576105a283610765565b905061062a565b600160026000856040518082805190602001908083835b602083106105df5780518252601f1990920191602091820191016105c0565b51815160209384036101000a60001901801990921691161790526040805192909401829003909120865285019590955292909201600020805460ff1916941515949094179093555050505b8160016000856040518082805190602001908083835b6020831061065f5780518252601f199092019160209182019101610640565b51815160209384036101000a60001901801990921691161790526040805192909401829003909120865285810196909652509283016000908120805473ffffffffffffffffffffffffffffffffffffffff1916600160a060020a0397881617905583518581528951818701528951898816978916967f38575ca154acfc441b9e175568ded9b32501025df333c637fb24985161f53981968c965092945084939284019290860191908190849084905b8381101561072657818101518382015260200161070e565b50505050905090810190601f1680156107535780820380516001836020036101000a031916815260200191505b509250505060405180910390a3505050565b600060026000836040518082805190602001908083835b6020831061079b5780518252601f19909201916020918201910161077c565b51815160209384036101000a600019018019909216911617905260408051929094018290039091208652850195909552929092016000205460ff16151592506107e691505057600080fd5b60016000836040518082805190602001908083835b6020831061081a5780518252601f1990920191602091820191016107fb565b51815160209384036101000a6000190180199092169116179052604080519290940182900390912086528501959095529290920160002054600160a060020a031695945050505050565b6000546101009004600160a060020a0316331461088057600080fd5b6108898161092e565b50565b60005460ff16151561089d57600080fd5b6000805460ff191690556040805142815290517faaa520fdd7d2c83061d632fa017b0432407e798818af63ea908589fceda39ab79181900360200190a1565b60005460ff16156108ec57600080fd5b6000805460ff191660011790556040805142815290517f68b095021b1f40fe513109f513c66692f0b3219aee674a69f4efc57badb8201d9181900360200190a1565b600160a060020a038116151561094357600080fd5b60008054604051600160a060020a038085169361010090930416917f8be0079c531659141344cd1fd0a4f28419497f9722a3daafe3b4186f6b6457e091a360008054600160a060020a039092166101000274ffffffffffffffffffffffffffffffffffffffff00199092169190911790555600a165627a7a72305820509be34bb8234f99002885252c93b992dac0eaf47422c0414337ee8fa3b581010029",
  "source": "pragma solidity ^0.4.24;\n\nimport \"./Pausable.sol\";\nimport \"./ReclaimTokens.sol\";\nimport \"./interfaces/IRegistry.sol\";\n\n/**\n * @title Core functionality for registry upgradability\n */\ncontract Registry is IRegistry, Pausable, ReclaimTokens {\n\n    /*\n    Valid Address Keys\n    tickerRegistry = getAddress(\"TickerRegistry\")\n    securityTokenRegistry = getAddress(\"SecurityTokenRegistry\")\n    moduleRegistry = getAddress(\"ModuleRegistry\")\n    polyToken = getAddress(\"PolyToken\")\n    */\n\n    mapping (bytes32 => address) public storedAddresses;\n    mapping (bytes32 => bool) public validAddressKeys;\n\n    event LogChangeAddress(string _nameKey, address indexed _oldAddress, address indexed _newAddress);\n\n    /**\n     * @notice Get the contract address\n     * @param _nameKey is the key for the contract address mapping\n     * @return address\n     */\n    function getAddress(string _nameKey) view public returns(address) {\n        require(validAddressKeys[keccak256(bytes(_nameKey))]);\n        return storedAddresses[keccak256(bytes(_nameKey))];\n    }\n\n    /**\n     * @notice change the contract address\n     * @param _nameKey is the key for the contract address mapping\n     * @param _newAddress is the new contract address\n     */\n    function changeAddress(string _nameKey, address _newAddress) public onlyOwner {\n        address oldAddress;\n        if (validAddressKeys[keccak256(bytes(_nameKey))]) {\n            oldAddress = getAddress(_nameKey);\n        } else {\n            validAddressKeys[keccak256(bytes(_nameKey))] = true;\n        }\n        storedAddresses[keccak256(bytes(_nameKey))] = _newAddress;\n        emit LogChangeAddress(_nameKey, oldAddress, _newAddress);\n    }\n\n    /**\n     * @notice pause registration function\n     */\n    function unpause() public onlyOwner  {\n        super._unpause();\n    }\n\n    /**\n     * @notice unpause registration function\n     */\n    function pause() public onlyOwner {\n        super._pause();\n    }\n\n}\n",
  "sourcePath": "/Users/Yihan/st/contracts/Registry.sol",
  "compiler": {
    "name": "solc",
    "version": "0.4.24+commit.e67f0147.Emscripten.clang"
  },
  "schemaVersion": "2.0.0",
  "updatedAt": "2018-07-09T19:15:50.892Z"
}