{
  "contractName": "SecurityTokenRegistry",
  "abi": [
    {
      "constant": true,
      "inputs": [],
      "name": "registrationFee",
      "outputs": [
        {
          "name": "",
          "type": "uint256"
        }
      ],
      "payable": false,
      "stateMutability": "view",
      "type": "function"
    },
    {
      "constant": true,
      "inputs": [],
      "name": "protocolVersion",
      "outputs": [
        {
          "name": "",
          "type": "bytes32"
        }
      ],
      "payable": false,
      "stateMutability": "view",
      "type": "function"
    },
    {
      "constant": false,
      "inputs": [],
      "name": "unpause",
      "outputs": [],
      "payable": false,
      "stateMutability": "nonpayable",
      "type": "function"
    },
    {
      "constant": true,
      "inputs": [
        {
          "name": "",
          "type": "bytes32"
        }
      ],
      "name": "validAddressKeys",
      "outputs": [
        {
          "name": "",
          "type": "bool"
        }
      ],
      "payable": false,
      "stateMutability": "view",
      "type": "function"
    },
    {
      "constant": true,
      "inputs": [],
      "name": "paused",
      "outputs": [
        {
          "name": "",
          "type": "bool"
        }
      ],
      "payable": false,
      "stateMutability": "view",
      "type": "function"
    },
    {
      "constant": true,
      "inputs": [
        {
          "name": "",
          "type": "bytes32"
        }
      ],
      "name": "storedAddresses",
      "outputs": [
        {
          "name": "",
          "type": "address"
        }
      ],
      "payable": false,
      "stateMutability": "view",
      "type": "function"
    },
    {
      "constant": false,
      "inputs": [],
      "name": "renounceOwnership",
      "outputs": [],
      "payable": false,
      "stateMutability": "nonpayable",
      "type": "function"
    },
    {
      "constant": true,
      "inputs": [
        {
          "name": "",
          "type": "bytes32"
        }
      ],
      "name": "protocolVersionST",
      "outputs": [
        {
          "name": "",
          "type": "address"
        }
      ],
      "payable": false,
      "stateMutability": "view",
      "type": "function"
    },
    {
      "constant": false,
      "inputs": [],
      "name": "pause",
      "outputs": [],
      "payable": false,
      "stateMutability": "nonpayable",
      "type": "function"
    },
    {
      "constant": false,
      "inputs": [
        {
          "name": "_tokenContract",
          "type": "address"
        }
      ],
      "name": "reclaimERC20",
      "outputs": [],
      "payable": false,
      "stateMutability": "nonpayable",
      "type": "function"
    },
    {
      "constant": true,
      "inputs": [],
      "name": "owner",
      "outputs": [
        {
          "name": "",
          "type": "address"
        }
      ],
      "payable": false,
      "stateMutability": "view",
      "type": "function"
    },
    {
      "constant": false,
      "inputs": [
        {
          "name": "_nameKey",
          "type": "string"
        },
        {
          "name": "_newAddress",
          "type": "address"
        }
      ],
      "name": "changeAddress",
      "outputs": [],
      "payable": false,
      "stateMutability": "nonpayable",
      "type": "function"
    },
    {
      "constant": true,
      "inputs": [
        {
          "name": "_nameKey",
          "type": "string"
        }
      ],
      "name": "getAddress",
      "outputs": [
        {
          "name": "",
          "type": "address"
        }
      ],
      "payable": false,
      "stateMutability": "view",
      "type": "function"
    },
    {
      "constant": false,
      "inputs": [
        {
          "name": "_newOwner",
          "type": "address"
        }
      ],
      "name": "transferOwnership",
      "outputs": [],
      "payable": false,
      "stateMutability": "nonpayable",
      "type": "function"
    },
    {
      "inputs": [
        {
          "name": "_polyToken",
          "type": "address"
        },
        {
          "name": "_moduleRegistry",
          "type": "address"
        },
        {
          "name": "_tickerRegistry",
          "type": "address"
        },
        {
          "name": "_stVersionProxy",
          "type": "address"
        },
        {
          "name": "_registrationFee",
          "type": "uint256"
        }
      ],
      "payable": false,
      "stateMutability": "nonpayable",
      "type": "constructor"
    },
    {
      "anonymous": false,
      "inputs": [
        {
          "indexed": false,
          "name": "_oldFee",
          "type": "uint256"
        },
        {
          "indexed": false,
          "name": "_newFee",
          "type": "uint256"
        }
      ],
      "name": "LogChangePolyRegisterationFee",
      "type": "event"
    },
    {
      "anonymous": false,
      "inputs": [
        {
          "indexed": false,
          "name": "_ticker",
          "type": "string"
        },
        {
          "indexed": true,
          "name": "_securityTokenAddress",
          "type": "address"
        },
        {
          "indexed": false,
          "name": "_owner",
          "type": "address"
        }
      ],
      "name": "LogNewSecurityToken",
      "type": "event"
    },
    {
      "anonymous": false,
      "inputs": [
        {
          "indexed": false,
          "name": "_name",
          "type": "string"
        },
        {
          "indexed": false,
          "name": "_symbol",
          "type": "string"
        },
        {
          "indexed": false,
          "name": "_securityToken",
          "type": "address"
        },
        {
          "indexed": false,
          "name": "_addedAt",
          "type": "uint256"
        }
      ],
      "name": "LogAddCustomSecurityToken",
      "type": "event"
    },
    {
      "anonymous": false,
      "inputs": [
        {
          "indexed": false,
          "name": "_nameKey",
          "type": "string"
        },
        {
          "indexed": true,
          "name": "_oldAddress",
          "type": "address"
        },
        {
          "indexed": true,
          "name": "_newAddress",
          "type": "address"
        }
      ],
      "name": "LogChangeAddress",
      "type": "event"
    },
    {
      "anonymous": false,
      "inputs": [
        {
          "indexed": true,
          "name": "previousOwner",
          "type": "address"
        }
      ],
      "name": "OwnershipRenounced",
      "type": "event"
    },
    {
      "anonymous": false,
      "inputs": [
        {
          "indexed": true,
          "name": "previousOwner",
          "type": "address"
        },
        {
          "indexed": true,
          "name": "newOwner",
          "type": "address"
        }
      ],
      "name": "OwnershipTransferred",
      "type": "event"
    },
    {
      "anonymous": false,
      "inputs": [
        {
          "indexed": false,
          "name": "_timestammp",
          "type": "uint256"
        }
      ],
      "name": "Pause",
      "type": "event"
    },
    {
      "anonymous": false,
      "inputs": [
        {
          "indexed": false,
          "name": "_timestamp",
          "type": "uint256"
        }
      ],
      "name": "Unpause",
      "type": "event"
    },
    {
      "constant": false,
      "inputs": [
        {
          "name": "_name",
          "type": "string"
        },
        {
          "name": "_symbol",
          "type": "string"
        },
        {
          "name": "_tokenDetails",
          "type": "string"
        },
        {
          "name": "_divisible",
          "type": "bool"
        }
      ],
      "name": "generateSecurityToken",
      "outputs": [],
      "payable": false,
      "stateMutability": "nonpayable",
      "type": "function"
    },
    {
      "constant": false,
      "inputs": [
        {
          "name": "_name",
          "type": "string"
        },
        {
          "name": "_symbol",
          "type": "string"
        },
        {
          "name": "_owner",
          "type": "address"
        },
        {
          "name": "_securityToken",
          "type": "address"
        },
        {
          "name": "_tokenDetails",
          "type": "string"
        },
        {
          "name": "_swarmHash",
          "type": "bytes32"
        }
      ],
      "name": "addCustomSecurityToken",
      "outputs": [],
      "payable": false,
      "stateMutability": "nonpayable",
      "type": "function"
    },
    {
      "constant": false,
      "inputs": [
        {
          "name": "_stVersionProxyAddress",
          "type": "address"
        },
        {
          "name": "_version",
          "type": "bytes32"
        }
      ],
      "name": "setProtocolVersion",
      "outputs": [],
      "payable": false,
      "stateMutability": "nonpayable",
      "type": "function"
    },
    {
      "constant": true,
      "inputs": [
        {
          "name": "_symbol",
          "type": "string"
        }
      ],
      "name": "getSecurityTokenAddress",
      "outputs": [
        {
          "name": "",
          "type": "address"
        }
      ],
      "payable": false,
      "stateMutability": "view",
      "type": "function"
    },
    {
      "constant": true,
      "inputs": [
        {
          "name": "_securityToken",
          "type": "address"
        }
      ],
      "name": "getSecurityTokenData",
      "outputs": [
        {
          "name": "",
          "type": "string"
        },
        {
          "name": "",
          "type": "address"
        },
        {
          "name": "",
          "type": "string"
        }
      ],
      "payable": false,
      "stateMutability": "view",
      "type": "function"
    },
    {
      "constant": true,
      "inputs": [
        {
          "name": "_securityToken",
          "type": "address"
        }
      ],
      "name": "isSecurityToken",
      "outputs": [
        {
          "name": "",
          "type": "bool"
        }
      ],
      "payable": false,
      "stateMutability": "view",
      "type": "function"
    },
    {
      "constant": false,
      "inputs": [
        {
          "name": "_registrationFee",
          "type": "uint256"
        }
      ],
      "name": "changePolyRegisterationFee",
      "outputs": [],
      "payable": false,
      "stateMutability": "nonpayable",
      "type": "function"
    }
  ],
  "bytecode": "0x60806040527f302e302e310000000000000000000000000000000000000000000000000000006000556004805460ff191690553480156200003f57600080fd5b5060405160a0806200277983398101604081815282516020808501518386015160608701516080909701516004805461010060a860020a0319163361010002179055858701909552600986527f506f6c79546f6b656e00000000000000000000000000000000000000000000009286019290925291949193909290620000cf9086640100000000620001a6810204565b60408051808201909152600e81527f4d6f64756c6552656769737472790000000000000000000000000000000000006020820152620001189085640100000000620001a6810204565b60408051808201909152600e81527f5469636b657252656769737472790000000000000000000000000000000000006020820152620001619084640100000000620001a6810204565b60078190556200019b827f302e302e3100000000000000000000000000000000000000000000000000000064010000000062000414810204565b505050505062000566565b6004546000906101009004600160a060020a03163314620001c657600080fd5b60066000846040518082805190602001908083835b60208310620001fc5780518252601f199092019160209182019101620001db565b51815160209384036101000a600019018019909216911617905260408051929094018290039091208652850195909552929092016000205460ff161592506200025e91505057620002568364010000000062000462810204565b9050620002e1565b600160066000856040518082805190602001908083835b60208310620002965780518252601f19909201916020918201910162000275565b51815160209384036101000a60001901801990921691161790526040805192909401829003909120865285019590955292909201600020805460ff1916941515949094179093555050505b8160056000856040518082805190602001908083835b60208310620003185780518252601f199092019160209182019101620002f7565b51815160209384036101000a600019018019909216911617905260408051929094018290039091208652858101969096525092830160009081208054600160a060020a031916600160a060020a0397881617905583518581528951818701528951898816978916967f38575ca154acfc441b9e175568ded9b32501025df333c637fb24985161f53981968c965092945084939284019290860191908190849084905b83811015620003d4578181015183820152602001620003ba565b50505050905090810190601f168015620004025780820380516001836020036101000a031916815260200191505b509250505060405180910390a3505050565b6004546101009004600160a060020a031633146200043157600080fd5b60008181559081526001602052604090208054600160a060020a031916600160a060020a0392909216919091179055565b600060066000836040518082805190602001908083835b602083106200049a5780518252601f19909201916020918201910162000479565b51815160209384036101000a600019018019909216911617905260408051929094018290039091208652850195909552929092016000205460ff1615159250620004e691505057600080fd5b60056000836040518082805190602001908083835b602083106200051c5780518252601f199092019160209182019101620004fb565b51815160209384036101000a6000190180199092169116179052604080519290940182900390912086528501959095529290920160002054600160a060020a031695945050505050565b61220380620005766000396000f30060806040526004361061011c5763ffffffff7c0100000000000000000000000000000000000000000000000000000000600035041663095408a7811461012157806314c44e09146102155780631dd143171461023c5780632ae9c600146102605780633f4ba83a14610275578063510389671461028a5780635c975abb146102b65780636c47e36f146102cb578063715018a6146102ff57806375f9f597146103145780638456cb591461032c5780638905fd4f146103415780638da5cb5b146103625780638f9bbf1614610377578063a79094b71461048f578063a7dbb402146104a7578063bf40fac11461050b578063c37792b514610564578063d300a9681461063d578063f2fde38b1461065e578063fb621f141461067f575b600080fd5b34801561012d57600080fd5b506040805160206004803580820135601f810184900484028501840190955284845261021394369492936024939284019190819084018382808284375050604080516020601f89358b018035918201839004830284018301909452808352979a99988101979196509182019450925082915084018382808284375050604080516020888301358a018035601f8101839004830284018301909452838352979a8935600160a060020a039081169b8b8401359091169a9199909850606090910196509194509081019250819084018382808284375094975050933594506106d89350505050565b005b34801561022157600080fd5b5061022a610cdb565b60408051918252519081900360200190f35b34801561024857600080fd5b50610213600160a060020a0360043516602435610ce1565b34801561026c57600080fd5b5061022a610d3b565b34801561028157600080fd5b50610213610d41565b34801561029657600080fd5b506102a2600435610d67565b604080519115158252519081900360200190f35b3480156102c257600080fd5b506102a2610d7c565b3480156102d757600080fd5b506102e3600435610d85565b60408051600160a060020a039092168252519081900360200190f35b34801561030b57600080fd5b50610213610da0565b34801561032057600080fd5b506102e3600435610e18565b34801561033857600080fd5b50610213610e33565b34801561034d57600080fd5b50610213600160a060020a0360043516610e57565b34801561036e57600080fd5b506102e3610fd1565b34801561038357600080fd5b50610398600160a060020a0360043516610fe5565b604051808060200184600160a060020a0316600160a060020a0316815260200180602001838103835286818151815260200191508051906020019080838360005b838110156103f15781810151838201526020016103d9565b50505050905090810190601f16801561041e5780820380516001836020036101000a031916815260200191505b50838103825284518152845160209182019186019080838360005b83811015610451578181015183820152602001610439565b50505050905090810190601f16801561047e5780820380516001836020036101000a031916815260200191505b509550505050505060405180910390f35b34801561049b57600080fd5b506102136004356111bc565b3480156104b357600080fd5b506040805160206004803580820135601f810184900484028501840190955284845261021394369492936024939284019190819084018382808284375094975050509235600160a060020a0316935061122992505050565b34801561051757600080fd5b506040805160206004803580820135601f81018490048402850184019095528484526102e394369492936024939284019190819084018382808284375094975061148d9650505050505050565b34801561057057600080fd5b506040805160206004803580820135601f810184900484028501840190955284845261021394369492936024939284019190819084018382808284375050604080516020601f89358b018035918201839004830284018301909452808352979a99988101979196509182019450925082915084018382808284375050604080516020601f89358b018035918201839004830284018301909452808352979a99988101979196509182019450925082915084018382808284375094975050505091351515925061158c915050565b34801561064957600080fd5b506102a2600160a060020a0360043516611d55565b34801561066a57600080fd5b50610213600160a060020a0360043516611e08565b34801561068b57600080fd5b506040805160206004803580820135601f81018490048402850184019095528484526102e3943694929360249392840191908190840183828082843750949750611e309650505050505050565b6004546101009004600160a060020a031633146106f457600080fd5b60045460ff161561070457600080fd5b60008651118015610716575060008551115b1515610792576040805160e560020a62461bcd02815260206004820152603660248201527f4e616d6520616e642053796d626f6c20737472696e67206c656e67746820736860448201527f6f756c642062652067726561746572207468616e203000000000000000000000606482015290519081900360840190fd5b600160a060020a0383161580159061081f57506000600160a060020a03166003866040518082805190602001908083835b602083106107e25780518252601f1990920191602091820191016107c3565b51815160209384036101000a6000190180199092169116179052920194855250604051938490030190922054600160a060020a0316929092149150505b15156108c1576040805160e560020a62461bcd02815260206004820152605160248201527f53796d626f6c20697320616c72656164792061742074686520706f6c796d617460448201527f68206e6574776f726b206f7220656e746572656420736563757269747920746f60648201527f6b656e2061646472657373206973203078000000000000000000000000000000608482015290519081900360a40190fd5b600160a060020a03841615156108d657600080fd5b6109146040805190810160405280600e81526020017f5469636b6572526567697374727900000000000000000000000000000000000081525061148d565b6040517fce9af2b9000000000000000000000000000000000000000000000000000000008152600160a060020a03868116602483015260648201849052608060048301908152885160848401528851939091169263ce9af2b992899289928c928892918291604481019160a490910190602089019080838360005b838110156109a757818101518382015260200161098f565b50505050905090810190601f1680156109d45780820380516001836020036101000a031916815260200191505b50838103825285518152855160209182019187019080838360005b83811015610a075781810151838201526020016109ef565b50505050905090810190601f168015610a345780820380516001836020036101000a031916815260200191505b509650505050505050602060405180830381600087803b158015610a5757600080fd5b505af1158015610a6b573d6000803e3d6000fd5b505050506040513d6020811015610a8157600080fd5b505115610ad8576040805160e560020a62461bcd02815260206004820152601e60248201527f547279696e6720746f20757365206e6f6e2d76616c69642073796d626f6c0000604482015290519081900360640190fd5b826003866040518082805190602001908083835b60208310610b0b5780518252601f199092019160209182019101610aec565b51815160209384036101000a6000190180199092169116179052920194855250604080519485900382018520805473ffffffffffffffffffffffffffffffffffffffff1916600160a060020a0397881617905584810181528a8552848201889052948816600090815260028252949094208351805194959194610b94945085935091019061213c565b506020828101518051610bad926001850192019061213c565b509050507f64b91bbee335851d4f490bc9a6d0a60e9da265c67d0258e9f300b8a933ecb3408686854260405180806020018060200185600160a060020a0316600160a060020a03168152602001848152602001838103835287818151815260200191508051906020019080838360005b83811015610c35578181015183820152602001610c1d565b50505050905090810190601f168015610c625780820380516001836020036101000a031916815260200191505b50838103825286518152865160209182019188019080838360005b83811015610c95578181015183820152602001610c7d565b50505050905090810190601f168015610cc25780820380516001836020036101000a031916815260200191505b50965050505050505060405180910390a1505050505050565b60075481565b6004546101009004600160a060020a03163314610cfd57600080fd5b6000818155908152600160205260409020805473ffffffffffffffffffffffffffffffffffffffff1916600160a060020a0392909216919091179055565b60005481565b6004546101009004600160a060020a03163314610d5d57600080fd5b610d65611eaf565b565b60066020526000908152604090205460ff1681565b60045460ff1681565b600560205260009081526040902054600160a060020a031681565b6004546101009004600160a060020a03163314610dbc57600080fd5b600454604051610100909104600160a060020a0316907ff8df31144d9c2f0f6b59d69b8b98abd5459d07f2742c4df920b25aae33c6482090600090a26004805474ffffffffffffffffffffffffffffffffffffffff0019169055565b600160205260009081526040902054600160a060020a031681565b6004546101009004600160a060020a03163314610e4f57600080fd5b610d65611eff565b60045460009081906101009004600160a060020a03163314610e7857600080fd5b600160a060020a0383161515610e8d57600080fd5b604080517f70a082310000000000000000000000000000000000000000000000000000000081523060048201529051849350600160a060020a038416916370a082319160248083019260209291908290030181600087803b158015610ef157600080fd5b505af1158015610f05573d6000803e3d6000fd5b505050506040513d6020811015610f1b57600080fd5b505160048054604080517fa9059cbb000000000000000000000000000000000000000000000000000000008152600160a060020a03610100909304831693810193909352602483018490525192935084169163a9059cbb916044808201926020929091908290030181600087803b158015610f9557600080fd5b505af1158015610fa9573d6000803e3d6000fd5b505050506040513d6020811015610fbf57600080fd5b50511515610fcc57600080fd5b505050565b6004546101009004600160a060020a031681565b600160a060020a038116600081815260026020908152604080832081517f8da5cb5b0000000000000000000000000000000000000000000000000000000081529151606095869492939092638da5cb5b9260048084019382900301818987803b15801561105157600080fd5b505af1158015611065573d6000803e3d6000fd5b505050506040513d602081101561107b57600080fd5b5051600160a060020a03861660009081526002602081815260409283902085548451600180831615610100026000190190921694909404601f81018490048402850184019095528484520192859183018282801561111a5780601f106110ef5761010080835404028352916020019161111a565b820191906000526020600020905b8154815290600101906020018083116110fd57829003601f168201915b5050845460408051602060026001851615610100026000190190941693909304601f8101849004840282018401909252818152959850869450925084019050828280156111a85780601f1061117d576101008083540402835291602001916111a8565b820191906000526020600020905b81548152906001019060200180831161118b57829003601f168201915b505050505090509250925092509193909250565b6004546101009004600160a060020a031633146111d857600080fd5b6007548114156111e757600080fd5b600754604080519182526020820183905280517fc999477ee25ca441ffa3217ee90d84865b6d945f40e1d625dc2e8982ed22d3a19281900390910190a1600755565b6004546000906101009004600160a060020a0316331461124857600080fd5b60066000846040518082805190602001908083835b6020831061127c5780518252601f19909201916020918201910161125d565b51815160209384036101000a600019018019909216911617905260408051929094018290039091208652850195909552929092016000205460ff161592506112d1915050576112ca8361148d565b9050611352565b600160066000856040518082805190602001908083835b602083106113075780518252601f1990920191602091820191016112e8565b51815160209384036101000a60001901801990921691161790526040805192909401829003909120865285019590955292909201600020805460ff1916941515949094179093555050505b8160056000856040518082805190602001908083835b602083106113875780518252601f199092019160209182019101611368565b51815160209384036101000a60001901801990921691161790526040805192909401829003909120865285810196909652509283016000908120805473ffffffffffffffffffffffffffffffffffffffff1916600160a060020a0397881617905583518581528951818701528951898816978916967f38575ca154acfc441b9e175568ded9b32501025df333c637fb24985161f53981968c965092945084939284019290860191908190849084905b8381101561144e578181015183820152602001611436565b50505050905090810190601f16801561147b5780820380516001836020036101000a031916815260200191505b509250505060405180910390a3505050565b600060066000836040518082805190602001908083835b602083106114c35780518252601f1990920191602091820191016114a4565b51815160209384036101000a600019018019909216911617905260408051929094018290039091208652850195909552929092016000205460ff161515925061150e91505057600080fd5b60056000836040518082805190602001908083835b602083106115425780518252601f199092019160209182019101611523565b51815160209384036101000a6000190180199092169116179052604080519290940182900390912086528501959095529290920160002054600160a060020a031695945050505050565b60045460609060009060ff16156115a257600080fd5b600086511180156115b4575060008551115b1515611630576040805160e560020a62461bcd02815260206004820152603660248201527f4e616d6520616e642053796d626f6c20737472696e67206c656e67746820736860448201527f6f756c642062652067726561746572207468616e203000000000000000000000606482015290519081900360840190fd5b61166e6040805190810160405280600e81526020017f5469636b6572526567697374727900000000000000000000000000000000000081525061148d565b600160a060020a031663ac1e765b8633896040518463ffffffff167c0100000000000000000000000000000000000000000000000000000000028152600401808060200184600160a060020a0316600160a060020a0316815260200180602001838103835286818151815260200191508051906020019080838360005b838110156117035781810151838201526020016116eb565b50505050905090810190601f1680156117305780820380516001836020036101000a031916815260200191505b50838103825284518152845160209182019186019080838360005b8381101561176357818101518382015260200161174b565b50505050905090810190601f1680156117905780820380516001836020036101000a031916815260200191505b5095505050505050602060405180830381600087803b1580156117b257600080fd5b505af11580156117c6573d6000803e3d6000fd5b505050506040513d60208110156117dc57600080fd5b50511515611834576040805160e560020a62461bcd02815260206004820152601e60248201527f547279696e6720746f20757365206e6f6e2d76616c69642073796d626f6c0000604482015290519081900360640190fd5b600060075411156119bf5761187d6040805190810160405280600981526020017f506f6c79546f6b656e000000000000000000000000000000000000000000000081525061148d565b600754604080517f23b872dd000000000000000000000000000000000000000000000000000000008152336004820152306024820152604481019290925251600160a060020a0392909216916323b872dd916064808201926020929091908290030181600087803b1580156118f157600080fd5b505af1158015611905573d6000803e3d6000fd5b505050506040513d602081101561191b57600080fd5b505115156119bf576040805160e560020a62461bcd02815260206004820152604260248201527f4661696c6564207472616e7366657246726f6d2062656361757365206f66207360448201527f7566666963656e7420416c6c6f77616e6365206973206e6f742070726f76696460648201527f6564000000000000000000000000000000000000000000000000000000000000608482015290519081900360a40190fd5b6119c885611f51565b6000805481526001602090815260408083205490517f4892f6a3000000000000000000000000000000000000000000000000000000008152601260448201819052336084830181905289151560a484015260c0600484019081528d5160c48501528d51979950600160a060020a0390941696634892f6a3968e968b9694958e958e94909384936024840193606481019360e490910192918d01918190849084905b83811015611a81578181015183820152602001611a69565b50505050905090810190601f168015611aae5780820380516001836020036101000a031916815260200191505b5084810383528951815289516020918201918b019080838360005b83811015611ae1578181015183820152602001611ac9565b50505050905090810190601f168015611b0e5780820380516001836020036101000a031916815260200191505b50848103825287518152875160209182019189019080838360005b83811015611b41578181015183820152602001611b29565b50505050905090810190601f168015611b6e5780820380516001836020036101000a031916815260200191505b509950505050505050505050602060405180830381600087803b158015611b9457600080fd5b505af1158015611ba8573d6000803e3d6000fd5b505050506040513d6020811015611bbe57600080fd5b50516040805180820182528481526020818101889052600160a060020a038416600090815260028252929092208151805194955091939092611c0492849291019061213c565b506020828101518051611c1d926001850192019061213c565b50905050806003836040518082805190602001908083835b60208310611c545780518252601f199092019160209182019101611c35565b51815160209384036101000a6000190180199092169116179052920194855250604080519485900382018520805473ffffffffffffffffffffffffffffffffffffffff1916600160a060020a03978816179055338583018190528186528851918601919091528751958716957f2510d802a0818e71139a7680a6388bcffcd3fa686e02a0f7319488c5bdb38fcb9589955091935090918291606083019186019080838360005b83811015611d12578181015183820152602001611cfa565b50505050905090810190601f168015611d3f5780820380516001836020036101000a031916815260200191505b50935050505060405180910390a2505050505050565b60408051600160a060020a038316600090815260026020819052928120805491937fc5d2460186f7233c927e7db2dcc703c0e500b653ca82273b7bfad8045d85a470939192829184916101006001821615026000190116048015611df05780601f10611dce576101008083540402835291820191611df0565b820191906000526020600020905b815481529060010190602001808311611ddc575b50506040519081900390209290921415949350505050565b6004546101009004600160a060020a03163314611e2457600080fd5b611e2d816120b3565b50565b60006060611e3d83611f51565b90506003816040518082805190602001908083835b60208310611e715780518252601f199092019160209182019101611e52565b51815160209384036101000a6000190180199092169116179052920194855250604051938490030190922054600160a060020a031695945050505050565b60045460ff161515611ec057600080fd5b6004805460ff191690556040805142815290517faaa520fdd7d2c83061d632fa017b0432407e798818af63ea908589fceda39ab79181900360200190a1565b60045460ff1615611f0f57600080fd5b6004805460ff191660011790556040805142815290517f68b095021b1f40fe513109f513c66692f0b3219aee674a69f4efc57badb8201d9181900360200190a1565b6060816000805b82518210156120aa578282815181101515611f6f57fe5b01602001517f0100000000000000000000000000000000000000000000000000000000000000908190040290507f61000000000000000000000000000000000000000000000000000000000000007fff0000000000000000000000000000000000000000000000000000000000000082161080159061203057507f7a000000000000000000000000000000000000000000000000000000000000007fff00000000000000000000000000000000000000000000000000000000000000821611155b1561206057601f197f01000000000000000000000000000000000000000000000000000000000000009182900401025b80838381518110151561206f57fe5b9060200101907effffffffffffffffffffffffffffffffffffffffffffffffffffffffffffff1916908160001a905350600190910190611f58565b50909392505050565b600160a060020a03811615156120c857600080fd5b600454604051600160a060020a0380841692610100900416907f8be0079c531659141344cd1fd0a4f28419497f9722a3daafe3b4186f6b6457e090600090a360048054600160a060020a039092166101000274ffffffffffffffffffffffffffffffffffffffff0019909216919091179055565b828054600181600116156101000203166002900490600052602060002090601f016020900481019282601f1061217d57805160ff19168380011785556121aa565b828001600101855582156121aa579182015b828111156121aa57825182559160200191906001019061218f565b506121b69291506121ba565b5090565b6121d491905b808211156121b657600081556001016121c0565b905600a165627a7a723058201df720a241ade6364193eff19e1cf438743b45caae97c8ea134b81fbb5afc00a0029",
  "source": "pragma solidity ^0.4.24;\n\nimport \"./interfaces/ITickerRegistry.sol\";\nimport \"./tokens/SecurityToken.sol\";\nimport \"./interfaces/ISTProxy.sol\";\nimport \"./interfaces/ISecurityTokenRegistry.sol\";\nimport \"./Registry.sol\";\nimport \"./helpers/Util.sol\";\n\n/**\n * @title Registry contract for issuers to register their security tokens\n */\ncontract SecurityTokenRegistry is ISecurityTokenRegistry, Util, Registry {\n\n    // Registration fee in POLY base 18 decimals\n    uint256 public registrationFee;\n    // Emit when changePolyRegisterationFee is called\n    event LogChangePolyRegisterationFee(uint256 _oldFee, uint256 _newFee);\n\n    // Emit at the time of launching of new security token\n    event LogNewSecurityToken(string _ticker, address indexed _securityTokenAddress, address _owner);\n    event LogAddCustomSecurityToken(string _name, string _symbol, address _securityToken, uint256 _addedAt);\n\n    constructor (\n        address _polyToken,\n        address _moduleRegistry,\n        address _tickerRegistry,\n        address _stVersionProxy,\n        uint256 _registrationFee\n    )\n    public\n    {\n        changeAddress(\"PolyToken\", _polyToken);\n        changeAddress(\"ModuleRegistry\", _moduleRegistry);\n        changeAddress(\"TickerRegistry\", _tickerRegistry);\n        registrationFee = _registrationFee;\n\n        // By default, the STR version is set to 0.0.1\n        setProtocolVersion(_stVersionProxy, \"0.0.1\");\n    }\n\n    /**\n     * @notice Creates a new Security Token and saves it to the registry\n     * @param _name Name of the token\n     * @param _symbol Ticker symbol of the security token\n     * @param _tokenDetails off-chain details of the token\n     * @param _divisible Set to true if token is divisible\n     */\n    function generateSecurityToken(string _name, string _symbol, string _tokenDetails, bool _divisible) public whenNotPaused {\n        require(bytes(_name).length > 0 && bytes(_symbol).length > 0, \"Name and Symbol string length should be greater than 0\");\n        require(ITickerRegistry(getAddress(\"TickerRegistry\")).checkValidity(_symbol, msg.sender, _name), \"Trying to use non-valid symbol\");\n        if(registrationFee > 0)\n            require(ERC20(getAddress(\"PolyToken\")).transferFrom(msg.sender, this, registrationFee), \"Failed transferFrom because of sufficent Allowance is not provided\");\n        string memory symbol = upper(_symbol);\n        address newSecurityTokenAddress = ISTProxy(protocolVersionST[protocolVersion]).deployToken(\n            _name,\n            symbol,\n            18,\n            _tokenDetails,\n            msg.sender,\n            _divisible\n        );\n\n        securityTokens[newSecurityTokenAddress] = SecurityTokenData(symbol, _tokenDetails);\n        symbols[symbol] = newSecurityTokenAddress;\n        emit LogNewSecurityToken(symbol, newSecurityTokenAddress, msg.sender);\n    }\n\n    /**\n     * @notice Add a new custom (Token should follow the ISecurityToken interface) Security Token and saves it to the registry\n     * @param _name Name of the token\n     * @param _symbol Ticker symbol of the security token\n     * @param _owner Owner of the token\n     * @param _securityToken Address of the securityToken\n     * @param _tokenDetails off-chain details of the token\n     * @param _swarmHash off-chain details about the issuer company\n     */\n    function addCustomSecurityToken(string _name, string _symbol, address _owner, address _securityToken, string _tokenDetails, bytes32 _swarmHash) public onlyOwner whenNotPaused {\n        require(bytes(_name).length > 0 && bytes(_symbol).length > 0, \"Name and Symbol string length should be greater than 0\");\n        require(_securityToken != address(0) && symbols[_symbol] == address(0), \"Symbol is already at the polymath network or entered security token address is 0x\");\n        require(_owner != address(0));\n        require(!(ITickerRegistry(getAddress(\"TickerRegistry\")).isReserved(_symbol, _owner, _name, _swarmHash)), \"Trying to use non-valid symbol\");\n        symbols[_symbol] = _securityToken;\n        securityTokens[_securityToken] = SecurityTokenData(_symbol, _tokenDetails);\n        emit LogAddCustomSecurityToken(_name, _symbol, _securityToken, now);\n    }\n\n    /**\n    * @notice Changes the protocol version and the SecurityToken contract\n    * @notice Used only by Polymath to upgrade the SecurityToken contract and add more functionalities to future versions\n    * @notice Changing versions does not affect existing tokens.\n    */\n    function setProtocolVersion(address _stVersionProxyAddress, bytes32 _version) public onlyOwner {\n        protocolVersion = _version;\n        protocolVersionST[_version] = _stVersionProxyAddress;\n    }\n\n    //////////////////////////////\n    ///////// Get Functions\n    //////////////////////////////\n    /**\n     * @notice Get security token address by ticker name\n     * @param _symbol Symbol of the Scurity token\n     * @return address\n     */\n    function getSecurityTokenAddress(string _symbol) public view returns (address) {\n        string memory __symbol = upper(_symbol);\n        return symbols[__symbol];\n    }\n\n     /**\n     * @notice Get security token data by its address\n     * @param _securityToken Address of the Scurity token\n     * @return string\n     * @return address\n     * @return string\n     */\n    function getSecurityTokenData(address _securityToken) public view returns (string, address, string) {\n        return (\n            securityTokens[_securityToken].symbol,\n            ISecurityToken(_securityToken).owner(),\n            securityTokens[_securityToken].tokenDetails\n        );\n    }\n\n    /**\n    * @notice Check that Security Token is registered\n    * @param _securityToken Address of the Scurity token\n    * @return bool\n    */\n    function isSecurityToken(address _securityToken) public view returns (bool) {\n        return (keccak256(bytes(securityTokens[_securityToken].symbol)) != keccak256(\"\"));\n    }\n\n    /**\n     * @notice set the ticker registration fee in POLY tokens\n     * @param _registrationFee registration fee in POLY tokens (base 18 decimals)\n     */\n    function changePolyRegisterationFee(uint256 _registrationFee) public onlyOwner {\n        require(registrationFee != _registrationFee);\n        emit LogChangePolyRegisterationFee(registrationFee, _registrationFee);\n        registrationFee = _registrationFee;\n    }\n\n}\n",
  "sourcePath": "/Users/Yihan/st/contracts/SecurityTokenRegistry.sol",
  "compiler": {
    "name": "solc",
    "version": "0.4.24+commit.e67f0147.Emscripten.clang"
  },
  "schemaVersion": "2.0.0",
  "updatedAt": "2018-07-09T19:49:16.649Z"
}