{
  "contractName": "TickerRegistry",
  "abi": [
    {
      "constant": true,
      "inputs": [],
      "name": "expiryLimit",
      "outputs": [
        {
          "name": "",
          "type": "uint256"
        }
      ],
      "payable": false,
      "stateMutability": "view",
      "type": "function"
    },
    {
      "constant": true,
      "inputs": [],
      "name": "registrationFee",
      "outputs": [
        {
          "name": "",
          "type": "uint256"
        }
      ],
      "payable": false,
      "stateMutability": "view",
      "type": "function"
    },
    {
      "constant": false,
      "inputs": [],
      "name": "unpause",
      "outputs": [],
      "payable": false,
      "stateMutability": "nonpayable",
      "type": "function"
    },
    {
      "constant": true,
      "inputs": [
        {
          "name": "",
          "type": "bytes32"
        }
      ],
      "name": "validAddressKeys",
      "outputs": [
        {
          "name": "",
          "type": "bool"
        }
      ],
      "payable": false,
      "stateMutability": "view",
      "type": "function"
    },
    {
      "constant": true,
      "inputs": [],
      "name": "paused",
      "outputs": [
        {
          "name": "",
          "type": "bool"
        }
      ],
      "payable": false,
      "stateMutability": "view",
      "type": "function"
    },
    {
      "constant": true,
      "inputs": [
        {
          "name": "",
          "type": "bytes32"
        }
      ],
      "name": "storedAddresses",
      "outputs": [
        {
          "name": "",
          "type": "address"
        }
      ],
      "payable": false,
      "stateMutability": "view",
      "type": "function"
    },
    {
      "constant": false,
      "inputs": [],
      "name": "renounceOwnership",
      "outputs": [],
      "payable": false,
      "stateMutability": "nonpayable",
      "type": "function"
    },
    {
      "constant": false,
      "inputs": [],
      "name": "pause",
      "outputs": [],
      "payable": false,
      "stateMutability": "nonpayable",
      "type": "function"
    },
    {
      "constant": false,
      "inputs": [
        {
          "name": "_tokenContract",
          "type": "address"
        }
      ],
      "name": "reclaimERC20",
      "outputs": [],
      "payable": false,
      "stateMutability": "nonpayable",
      "type": "function"
    },
    {
      "constant": true,
      "inputs": [],
      "name": "owner",
      "outputs": [
        {
          "name": "",
          "type": "address"
        }
      ],
      "payable": false,
      "stateMutability": "view",
      "type": "function"
    },
    {
      "constant": false,
      "inputs": [
        {
          "name": "_nameKey",
          "type": "string"
        },
        {
          "name": "_newAddress",
          "type": "address"
        }
      ],
      "name": "changeAddress",
      "outputs": [],
      "payable": false,
      "stateMutability": "nonpayable",
      "type": "function"
    },
    {
      "constant": true,
      "inputs": [
        {
          "name": "_nameKey",
          "type": "string"
        }
      ],
      "name": "getAddress",
      "outputs": [
        {
          "name": "",
          "type": "address"
        }
      ],
      "payable": false,
      "stateMutability": "view",
      "type": "function"
    },
    {
      "constant": false,
      "inputs": [
        {
          "name": "_newOwner",
          "type": "address"
        }
      ],
      "name": "transferOwnership",
      "outputs": [],
      "payable": false,
      "stateMutability": "nonpayable",
      "type": "function"
    },
    {
      "inputs": [
        {
          "name": "_polyToken",
          "type": "address"
        },
        {
          "name": "_registrationFee",
          "type": "uint256"
        }
      ],
      "payable": false,
      "stateMutability": "nonpayable",
      "type": "constructor"
    },
    {
      "anonymous": false,
      "inputs": [
        {
          "indexed": true,
          "name": "_owner",
          "type": "address"
        },
        {
          "indexed": false,
          "name": "_symbol",
          "type": "string"
        },
        {
          "indexed": false,
          "name": "_name",
          "type": "string"
        },
        {
          "indexed": false,
          "name": "_swarmHash",
          "type": "bytes32"
        },
        {
          "indexed": true,
          "name": "_timestamp",
          "type": "uint256"
        }
      ],
      "name": "LogRegisterTicker",
      "type": "event"
    },
    {
      "anonymous": false,
      "inputs": [
        {
          "indexed": false,
          "name": "_oldExpiry",
          "type": "uint256"
        },
        {
          "indexed": false,
          "name": "_newExpiry",
          "type": "uint256"
        }
      ],
      "name": "LogChangeExpiryLimit",
      "type": "event"
    },
    {
      "anonymous": false,
      "inputs": [
        {
          "indexed": false,
          "name": "_oldFee",
          "type": "uint256"
        },
        {
          "indexed": false,
          "name": "_newFee",
          "type": "uint256"
        }
      ],
      "name": "LogChangePolyRegisterationFee",
      "type": "event"
    },
    {
      "anonymous": false,
      "inputs": [
        {
          "indexed": false,
          "name": "_nameKey",
          "type": "string"
        },
        {
          "indexed": true,
          "name": "_oldAddress",
          "type": "address"
        },
        {
          "indexed": true,
          "name": "_newAddress",
          "type": "address"
        }
      ],
      "name": "LogChangeAddress",
      "type": "event"
    },
    {
      "anonymous": false,
      "inputs": [
        {
          "indexed": true,
          "name": "previousOwner",
          "type": "address"
        }
      ],
      "name": "OwnershipRenounced",
      "type": "event"
    },
    {
      "anonymous": false,
      "inputs": [
        {
          "indexed": true,
          "name": "previousOwner",
          "type": "address"
        },
        {
          "indexed": true,
          "name": "newOwner",
          "type": "address"
        }
      ],
      "name": "OwnershipTransferred",
      "type": "event"
    },
    {
      "anonymous": false,
      "inputs": [
        {
          "indexed": false,
          "name": "_timestammp",
          "type": "uint256"
        }
      ],
      "name": "Pause",
      "type": "event"
    },
    {
      "anonymous": false,
      "inputs": [
        {
          "indexed": false,
          "name": "_timestamp",
          "type": "uint256"
        }
      ],
      "name": "Unpause",
      "type": "event"
    },
    {
      "constant": false,
      "inputs": [
        {
          "name": "_owner",
          "type": "address"
        },
        {
          "name": "_symbol",
          "type": "string"
        },
        {
          "name": "_tokenName",
          "type": "string"
        },
        {
          "name": "_swarmHash",
          "type": "bytes32"
        }
      ],
      "name": "registerTicker",
      "outputs": [],
      "payable": false,
      "stateMutability": "nonpayable",
      "type": "function"
    },
    {
      "constant": false,
      "inputs": [
        {
          "name": "_newExpiry",
          "type": "uint256"
        }
      ],
      "name": "changeExpiryLimit",
      "outputs": [],
      "payable": false,
      "stateMutability": "nonpayable",
      "type": "function"
    },
    {
      "constant": false,
      "inputs": [
        {
          "name": "_symbol",
          "type": "string"
        },
        {
          "name": "_owner",
          "type": "address"
        },
        {
          "name": "_tokenName",
          "type": "string"
        }
      ],
      "name": "checkValidity",
      "outputs": [
        {
          "name": "",
          "type": "bool"
        }
      ],
      "payable": false,
      "stateMutability": "nonpayable",
      "type": "function"
    },
    {
      "constant": false,
      "inputs": [
        {
          "name": "_symbol",
          "type": "string"
        },
        {
          "name": "_owner",
          "type": "address"
        },
        {
          "name": "_tokenName",
          "type": "string"
        },
        {
          "name": "_swarmHash",
          "type": "bytes32"
        }
      ],
      "name": "isReserved",
      "outputs": [
        {
          "name": "",
          "type": "bool"
        }
      ],
      "payable": false,
      "stateMutability": "nonpayable",
      "type": "function"
    },
    {
      "constant": true,
      "inputs": [
        {
          "name": "_symbol",
          "type": "string"
        }
      ],
      "name": "getDetails",
      "outputs": [
        {
          "name": "",
          "type": "address"
        },
        {
          "name": "",
          "type": "uint256"
        },
        {
          "name": "",
          "type": "string"
        },
        {
          "name": "",
          "type": "bytes32"
        },
        {
          "name": "",
          "type": "bool"
        }
      ],
      "payable": false,
      "stateMutability": "view",
      "type": "function"
    },
    {
      "constant": false,
      "inputs": [
        {
          "name": "_registrationFee",
          "type": "uint256"
        }
      ],
      "name": "changePolyRegisterationFee",
      "outputs": [],
      "payable": false,
      "stateMutability": "nonpayable",
      "type": "function"
    }
  ],
  "bytecode": "0x60806040526000805460ff191690556213c6806003553480156200002257600080fd5b506040516040806200290f83398101604081815282516020938401516000805461010060a860020a0319163361010002179055828401909252600983527f506f6c79546f6b656e000000000000000000000000000000000000000000000093830193909352906200009d9083640100000000620000a7810204565b6005555062000417565b600080546101009004600160a060020a03163314620000c557600080fd5b60026000846040518082805190602001908083835b60208310620000fb5780518252601f199092019160209182019101620000da565b51815160209384036101000a600019018019909216911617905260408051929094018290039091208652850195909552929092016000205460ff161592506200015d91505057620001558364010000000062000313810204565b9050620001e0565b600160026000856040518082805190602001908083835b60208310620001955780518252601f19909201916020918201910162000174565b51815160209384036101000a60001901801990921691161790526040805192909401829003909120865285019590955292909201600020805460ff1916941515949094179093555050505b8160016000856040518082805190602001908083835b60208310620002175780518252601f199092019160209182019101620001f6565b51815160209384036101000a600019018019909216911617905260408051929094018290039091208652858101969096525092830160009081208054600160a060020a031916600160a060020a0397881617905583518581528951818701528951898816978916967f38575ca154acfc441b9e175568ded9b32501025df333c637fb24985161f53981968c965092945084939284019290860191908190849084905b83811015620002d3578181015183820152602001620002b9565b50505050905090810190601f168015620003015780820380516001836020036101000a031916815260200191505b509250505060405180910390a3505050565b600060026000836040518082805190602001908083835b602083106200034b5780518252601f1990920191602091820191016200032a565b51815160209384036101000a600019018019909216911617905260408051929094018290039091208652850195909552929092016000205460ff16151592506200039791505057600080fd5b60016000836040518082805190602001908083835b60208310620003cd5780518252601f199092019160209182019101620003ac565b51815160209384036101000a6000190180199092169116179052604080519290940182900390912086528501959095529290920160002054600160a060020a031695945050505050565b6124e880620004276000396000f3006080604052600436106101065763ffffffff7c010000000000000000000000000000000000000000000000000000000060003504166307a8af6f811461010b5780631328fd8f1461013257806314c44e091461022d578063208b080f146102425780633f4ba83a1461025c57806351038967146102715780635c975abb1461029d5780636c47e36f146102b2578063715018a6146102e65780638456cb59146102fb5780638905fd4f146103105780638da5cb5b14610331578063a79094b714610346578063a7dbb4021461035e578063ac1e765b146103c2578063bf40fac114610468578063c9584008146104c1578063ce9af2b914610568578063f2fde38b14610610575b600080fd5b34801561011757600080fd5b50610120610631565b60408051918252519081900360200190f35b34801561013e57600080fd5b506040805160206004803580820135601f810184900484028501840190955284845261018b9436949293602493928401919081908401838280828437509497506106379650505050505050565b60408051600160a060020a0387168152602080820187905260608201859052831515608083015260a0928201838152865193830193909352855191929160c084019187019080838360005b838110156101ee5781810151838201526020016101d6565b50505050905090810190601f16801561021b5780820380516001836020036101000a031916815260200191505b50965050505050505060405180910390f35b34801561023957600080fd5b50610120610a04565b34801561024e57600080fd5b5061025a600435610a0a565b005b34801561026857600080fd5b5061025a610af0565b34801561027d57600080fd5b50610289600435610b16565b604080519115158252519081900360200190f35b3480156102a957600080fd5b50610289610b2b565b3480156102be57600080fd5b506102ca600435610b34565b60408051600160a060020a039092168252519081900360200190f35b3480156102f257600080fd5b5061025a610b4f565b34801561030757600080fd5b5061025a610bc5565b34801561031c57600080fd5b5061025a600160a060020a0360043516610be9565b34801561033d57600080fd5b506102ca610d62565b34801561035257600080fd5b5061025a600435610d76565b34801561036a57600080fd5b506040805160206004803580820135601f810184900484028501840190955284845261025a94369492936024939284019190819084018382808284375094975050509235600160a060020a03169350610de392505050565b3480156103ce57600080fd5b506040805160206004803580820135601f810184900484028501840190955284845261028994369492936024939284019190819084018382808284375050604080516020601f818a01358b0180359182018390048302840183018552818452989b600160a060020a038b35169b909a9099940197509195509182019350915081908401838280828437509497506110459650505050505050565b34801561047457600080fd5b506040805160206004803580820135601f81018490048402850184019095528484526102ca9436949293602493928401919081908401838280828437509497506114a19650505050505050565b3480156104cd57600080fd5b5060408051602060046024803582810135601f810185900485028601850190965285855261025a958335600160a060020a031695369560449491939091019190819084018382808284375050604080516020601f89358b018035918201839004830284018301909452808352979a99988101979196509182019450925082915084018382808284375094975050933594506115a29350505050565b34801561057457600080fd5b506040805160206004803580820135601f810184900484028501840190955284845261028994369492936024939284019190819084018382808284375050604080516020601f818a01358b0180359182018390048302840183018552818452989b600160a060020a038b35169b909a9099940197509195509182019350915081908401838280828437509497505093359450611a629350505050565b34801561061c57600080fd5b5061025a600160a060020a0360043516611f08565b60035481565b6000806060600080606061064a87611f30565b90506004816040518082805190602001908083835b6020831061067e5780518252601f19909201916020918201910161065f565b51815160001960209485036101000a0190811690199190911617905292019485525060405193849003019092206004015460ff16151560011491508190506107345750426107326003546004846040518082805190602001908083835b602083106106fa5780518252601f1990920191602091820191016106db565b51815160209384036101000a600019018019909216911617905292019485525060405193849003019092206001015492915050612092565b115b156109dc576004816040518082805190602001908083835b6020831061076b5780518252601f19909201916020918201910161074c565b51815160209384036101000a60001901801990921691161790529201948552506040519384900381018420548551600160a060020a039091169460049450869350918291908401908083835b602083106107d65780518252601f1990920191602091820191016107b7565b51815160209384036101000a60001901801990921691161790529201948552506040519384900381018420600101548651909460049450879350918291908401908083835b6020831061083a5780518252601f19909201916020918201910161081b565b6001836020036101000a03801982511681845116808217855250505050505090500191505090815260200160405180910390206002016004846040518082805190602001908083835b602083106108a25780518252601f199092019160209182019101610883565b51815160209384036101000a60001901801990921691161790529201948552506040519384900381018420600301548851909460049450899350918291908401908083835b602083106109065780518252601f1990920191602091820191016108e7565b518151600019602094850361010090810a82019283169219939093169190911790925294909201968752604080519788900382018820600401548a54601f600260018316159098029095011695909504928301829004820288018201905281875260ff9093169594508793509184019050828280156109c65780601f1061099b576101008083540402835291602001916109c6565b820191906000526020600020905b8154815290600101906020018083116109a957829003601f168201915b50505050509250955095509550955095506109fa565b60408051602081019091526000808252965086955093508492508291505b5091939590929450565b60055481565b600080546101009004600160a060020a03163314610a2757600080fd5b62015180821015610aa8576040805160e560020a62461bcd02815260206004820152602c60248201527f4578706972792073686f756c642067726561746572207468616e206f7220657160448201527f75616c20746f2031206461790000000000000000000000000000000000000000606482015290519081900360840190fd5b506003805490829055604080518281526020810184905281517f56097c2b95f5ff3dd5079c032872d82d5e8b5709a9b6e5fde0472253f9f94be1929181900390910190a15050565b6000546101009004600160a060020a03163314610b0c57600080fd5b610b146120a5565b565b60026020526000908152604090205460ff1681565b60005460ff1681565b600160205260009081526040902054600160a060020a031681565b6000546101009004600160a060020a03163314610b6b57600080fd5b60008054604051610100909104600160a060020a0316917ff8df31144d9c2f0f6b59d69b8b98abd5459d07f2742c4df920b25aae33c6482091a26000805474ffffffffffffffffffffffffffffffffffffffff0019169055565b6000546101009004600160a060020a03163314610be157600080fd5b610b146120f5565b6000805481906101009004600160a060020a03163314610c0857600080fd5b600160a060020a0383161515610c1d57600080fd5b604080517f70a082310000000000000000000000000000000000000000000000000000000081523060048201529051849350600160a060020a038416916370a082319160248083019260209291908290030181600087803b158015610c8157600080fd5b505af1158015610c95573d6000803e3d6000fd5b505050506040513d6020811015610cab57600080fd5b505160008054604080517fa9059cbb000000000000000000000000000000000000000000000000000000008152610100909204600160a060020a03908116600484015260248301859052905193945085169263a9059cbb92604480840193602093929083900390910190829087803b158015610d2657600080fd5b505af1158015610d3a573d6000803e3d6000fd5b505050506040513d6020811015610d5057600080fd5b50511515610d5d57600080fd5b505050565b6000546101009004600160a060020a031681565b6000546101009004600160a060020a03163314610d9257600080fd5b600554811415610da157600080fd5b600554604080519182526020820183905280517fc999477ee25ca441ffa3217ee90d84865b6d945f40e1d625dc2e8982ed22d3a19281900390910190a1600555565b600080546101009004600160a060020a03163314610e0057600080fd5b60026000846040518082805190602001908083835b60208310610e345780518252601f199092019160209182019101610e15565b51815160209384036101000a600019018019909216911617905260408051929094018290039091208652850195909552929092016000205460ff16159250610e8991505057610e82836114a1565b9050610f0a565b600160026000856040518082805190602001908083835b60208310610ebf5780518252601f199092019160209182019101610ea0565b51815160209384036101000a60001901801990921691161790526040805192909401829003909120865285019590955292909201600020805460ff1916941515949094179093555050505b8160016000856040518082805190602001908083835b60208310610f3f5780518252601f199092019160209182019101610f20565b51815160209384036101000a60001901801990921691161790526040805192909401829003909120865285810196909652509283016000908120805473ffffffffffffffffffffffffffffffffffffffff1916600160a060020a0397881617905583518581528951818701528951898816978916967f38575ca154acfc441b9e175568ded9b32501025df333c637fb24985161f53981968c965092945084939284019290860191908190849084905b83811015611006578181015183820152602001610fee565b50505050905090810190601f1680156110335780820380516001836020036101000a031916815260200191505b509250505060405180910390a3505050565b6000606061105285611f30565b90506110926040805190810160405280601581526020017f5365637572697479546f6b656e526567697374727900000000000000000000008152506114a1565b600160a060020a03163314611117576040805160e560020a62461bcd02815260206004820152603360248201527f6d73672e73656e6465722073686f756c64206265205365637572697479546f6b60448201527f656e526567697374727920636f6e747261637400000000000000000000000000606482015290519081900360840190fd5b6004816040518082805190602001908083835b602083106111495780518252601f19909201916020918201910161112a565b51815160001960209485036101000a0190811690199190911617905292019485525060405193849003019092206004015460ff1615156001141591506112019050576040805160e560020a62461bcd02815260206004820152602660248201527f53796d626f6c207374617475732073686f756c64206e6f7420657175616c207460448201527f6f20747275650000000000000000000000000000000000000000000000000000606482015290519081900360840190fd5b83600160a060020a03166004826040518082805190602001908083835b6020831061123d5780518252601f19909201916020918201910161121e565b51815160209384036101000a6000190180199092169116179052920194855250604051938490030190922054600160a060020a031692909214915061131b9050576040805160e560020a62461bcd028152602060048201526044602482018190527f4f776e6572206f66207468652073796d626f6c2073686f756c64206d61746368908201527f656420776974682074686520726571756573746564206973737565722061646460648201527f7265737300000000000000000000000000000000000000000000000000000000608482015290519081900360a40190fd5b42611353600354600484604051808280519060200190808383602083106106fa5780518252601f1990920191602091820191016106db565b10156113a9576040805160e560020a62461bcd02815260206004820152601c60248201527f5469636b65722073686f756c64206e6f74206265206578706972656400000000604482015290519081900360640190fd5b826004826040518082805190602001908083835b602083106113dc5780518252601f1990920191602091820191016113bd565b51815160209384036101000a60001901801990921691161790529201948552506040519384900381019093208451611421956002909201949190910192509050612421565b5060016004826040518082805190602001908083835b602083106114565780518252601f199092019160209182019101611437565b51815160209384036101000a60001901801990921691161790529201948552506040519384900301909220600401805460ff1916931515939093179092555060019695505050505050565b600060026000836040518082805190602001908083835b602083106114d75780518252601f1990920191602091820191016114b8565b51815160209384036101000a600019018019909216911617905260408051929094018290039091208652850195909552929092016000205460ff161515925061152291505057600080fd5b60016000836040518082805190602001908083835b602083106115565780518252601f199092019160209182019101611537565b51815160209384036101000a6000190180199092169116179052604080519290940182900390912086528501959095529290920160002054600160a060020a031693505050505b919050565b60005460609060ff16156115b557600080fd5b600084511180156115c85750600a845111155b1515611644576040805160e560020a62461bcd02815260206004820152602a60248201527f5469636b6572206c656e6774682073686f756c6420616c77617973206265747760448201527f65656e2030202620313000000000000000000000000000000000000000000000606482015290519081900360840190fd5b600060055411156117cf5761168d6040805190810160405280600981526020017f506f6c79546f6b656e00000000000000000000000000000000000000000000008152506114a1565b600554604080517f23b872dd000000000000000000000000000000000000000000000000000000008152336004820152306024820152604481019290925251600160a060020a0392909216916323b872dd916064808201926020929091908290030181600087803b15801561170157600080fd5b505af1158015611715573d6000803e3d6000fd5b505050506040513d602081101561172b57600080fd5b505115156117cf576040805160e560020a62461bcd02815260206004820152604260248201527f4661696c6564207472616e7366657246726f6d2062656361757365206f66207360448201527f7566666963656e7420416c6c6f77616e6365206973206e6f742070726f76696460648201527f6564000000000000000000000000000000000000000000000000000000000000608482015290519081900360a40190fd5b6117d884611f30565b90506117e381612147565b1515611839576040805160e560020a62461bcd02815260206004820152601a60248201527f5469636b657220697320616c7265616479207265736572766564000000000000604482015290519081900360640190fd5b60a06040519081016040528086600160a060020a0316815260200142815260200184815260200183600019168152602001600015158152506004826040518082805190602001908083835b602083106118a35780518252601f199092019160209182019101611884565b51815160209384036101000a6000190180199092169116179052920194855250604080519485900382019094208551815473ffffffffffffffffffffffffffffffffffffffff1916600160a060020a0390911617815585820151600182015593850151805161191b9450600286019350910190612421565b5060608281015160038301556080928301516004909201805460ff1916921515929092179091556040805190810185905281815283519181019190915282514292600160a060020a038916927f8ccd225709fb15de014a9f1362ef5605e3c2182147b11f46e10dc8e2d72ac1bd92869289928992909182916020808401928401919088019080838360005b838110156119be5781810151838201526020016119a6565b50505050905090810190601f1680156119eb5780820380516001836020036101000a031916815260200191505b50838103825285518152855160209182019187019080838360005b83811015611a1e578181015183820152602001611a06565b50505050905090810190601f168015611a4b5780820380516001836020036101000a031916815260200191505b509550505050505060405180910390a35050505050565b60006060611a6f86611f30565b9050611aaf6040805190810160405280601581526020017f5365637572697479546f6b656e526567697374727900000000000000000000008152506114a1565b600160a060020a03163314611b34576040805160e560020a62461bcd02815260206004820152603360248201527f6d73672e73656e6465722073686f756c64206265205365637572697479546f6b60448201527f656e526567697374727920636f6e747261637400000000000000000000000000606482015290519081900360840190fd5b84600160a060020a03166004826040518082805190602001908083835b60208310611b705780518252601f199092019160209182019101611b51565b51815160209384036101000a6000190180199092169116179052920194855250604051938490030190922054600160a060020a0316929092149150508015611bbe5750611bbc86612147565b155b15611c415760016004826040518082805190602001908083835b60208310611bf75780518252601f199092019160209182019101611bd8565b51815160209384036101000a60001901801990921691161790529201948552506040519384900301909220600401805460ff1916931515939093179092555060009250611eff9050565b6000600160a060020a03166004826040518082805190602001908083835b60208310611c7e5780518252601f199092019160209182019101611c5f565b51815160209384036101000a6000190180199092169116179052920194855250604051938490030190922054600160a060020a0316929092149150819050611cca5750611cca81612147565b15611efa5760a06040519081016040528086600160a060020a0316815260200142815260200185815260200184600019168152602001600115158152506004826040518082805190602001908083835b60208310611d395780518252601f199092019160209182019101611d1a565b51815160209384036101000a6000190180199092169116179052920194855250604080519485900382019094208551815473ffffffffffffffffffffffffffffffffffffffff1916600160a060020a03909116178155858201516001820155938501518051611db19450600286019350910190612421565b5060608281015160038301556080928301516004909201805460ff1916921515929092179091556040805190810186905281815283519181019190915282514292600160a060020a038916927f8ccd225709fb15de014a9f1362ef5605e3c2182147b11f46e10dc8e2d72ac1bd9286928a928a92909182916020808401928401919088019080838360005b83811015611e54578181015183820152602001611e3c565b50505050905090810190601f168015611e815780820380516001836020036101000a031916815260200191505b50838103825285518152855160209182019187019080838360005b83811015611eb4578181015183820152602001611e9c565b50505050905090810190601f168015611ee15780820380516001836020036101000a031916815260200191505b509550505050505060405180910390a360009150611eff565b600191505b50949350505050565b6000546101009004600160a060020a03163314611f2457600080fd5b611f2d81612399565b50565b6060816000805b8251821015612089578282815181101515611f4e57fe5b01602001517f0100000000000000000000000000000000000000000000000000000000000000908190040290507f61000000000000000000000000000000000000000000000000000000000000007fff0000000000000000000000000000000000000000000000000000000000000082161080159061200f57507f7a000000000000000000000000000000000000000000000000000000000000007fff00000000000000000000000000000000000000000000000000000000000000821611155b1561203f57601f197f01000000000000000000000000000000000000000000000000000000000000009182900401025b80838381518110151561204e57fe5b9060200101907effffffffffffffffffffffffffffffffffffffffffffffffffffffffffffff1916908160001a905350600190910190611f37565b50909392505050565b8181018281101561209f57fe5b92915050565b60005460ff1615156120b657600080fd5b6000805460ff191690556040805142815290517faaa520fdd7d2c83061d632fa017b0432407e798818af63ea908589fceda39ab79181900360200190a1565b60005460ff161561210557600080fd5b6000805460ff191660011790556040805142815290517f68b095021b1f40fe513109f513c66692f0b3219aee674a69f4efc57badb8201d9181900360200190a1565b600080600160a060020a03166004836040518082805190602001908083835b602083106121855780518252601f199092019160209182019101612166565b51815160209384036101000a6000190180199092169116179052920194855250604051938490030190922054600160a060020a03169290921491506123919050576121fd600354600484604051808280519060200190808383602083106106fa5780518252601f1990920191602091820191016106db565b4211801561227657506004826040518082805190602001908083835b602083106122385780518252601f199092019160209182019101612219565b51815160001960209485036101000a0190811690199190911617905292019485525060405193849003019092206004015460ff161515600114159150505b15612389576040805160a0810182526000808252602080830182905283518082018552828152838501526060830182905260808301919091529151845191926004928692918291908401908083835b602083106122e45780518252601f1990920191602091820191016122c5565b51815160209384036101000a6000190180199092169116179052920194855250604080519485900382019094208551815473ffffffffffffffffffffffffffffffffffffffff1916600160a060020a0390911617815585820151600182015593850151805161235c9450600286019350910190612421565b50606082015160038201556080909101516004909101805460ff191691151591909117905550600161159d565b50600061159d565b506001919050565b600160a060020a03811615156123ae57600080fd5b60008054604051600160a060020a038085169361010090930416917f8be0079c531659141344cd1fd0a4f28419497f9722a3daafe3b4186f6b6457e091a360008054600160a060020a039092166101000274ffffffffffffffffffffffffffffffffffffffff0019909216919091179055565b828054600181600116156101000203166002900490600052602060002090601f016020900481019282601f1061246257805160ff191683800117855561248f565b8280016001018555821561248f579182015b8281111561248f578251825591602001919060010190612474565b5061249b92915061249f565b5090565b6124b991905b8082111561249b57600081556001016124a5565b905600a165627a7a72305820bf8294c1222354563c38c91f01093926e1bbe0b22e002458536c5b836a3e90100029",
  "source": "pragma solidity ^0.4.24;\n\nimport \"openzeppelin-solidity/contracts/math/SafeMath.sol\";\nimport \"openzeppelin-solidity/contracts/token/ERC20/ERC20.sol\";\nimport \"./interfaces/ITickerRegistry.sol\";\nimport \"./Registry.sol\";\nimport \"./helpers/Util.sol\";\n\n/**\n * @title Registry contract for issuers to reserve their security token symbols\n * @notice Allows issuers to reserve their token symbols ahead of actually generating their security token.\n * @dev SecurityTokenRegistry would reference this contract and ensure that a token symbol exists here and only its owner can deploy the token with that symbol.\n */\ncontract TickerRegistry is ITickerRegistry, Util, Registry {\n\n    using SafeMath for uint256;\n    // constant variable to check the validity to use the symbol\n    // For now it's value is 15 days;\n    uint256 public expiryLimit = 15 * 1 days;\n\n    // Details of the symbol that get registered with the polymath platform\n    struct SymbolDetails {\n        address owner;\n        uint256 timestamp;\n        string tokenName;\n        bytes32 swarmHash;\n        bool status;\n    }\n\n    // Storage of symbols correspond to their details.\n    mapping(string => SymbolDetails) registeredSymbols;\n\n    // Emit after the symbol registration\n    event LogRegisterTicker(address indexed _owner, string _symbol, string _name, bytes32 _swarmHash, uint256 indexed _timestamp);\n    // Emit when the token symbol expiry get changed\n    event LogChangeExpiryLimit(uint256 _oldExpiry, uint256 _newExpiry);\n\n    // Registration fee in POLY base 18 decimals\n    uint256 public registrationFee;\n    // Emit when changePolyRegisterationFee is called\n    event LogChangePolyRegisterationFee(uint256 _oldFee, uint256 _newFee);\n\n    constructor (address _polyToken, uint256 _registrationFee) public {\n        changeAddress(\"PolyToken\", _polyToken);\n        registrationFee = _registrationFee;\n    }\n\n    /**\n     * @notice Register the token symbol for its particular owner\n     * @notice Once the token symbol is registered to its owner then no other issuer can claim\n     * @notice its ownership. If the symbol expires and its issuer hasn't used it, then someone else can take it.\n     * @param _symbol token symbol\n     * @param _tokenName Name of the token\n     * @param _owner Address of the owner of the token\n     * @param _swarmHash Off-chain details of the issuer and token\n     */\n    function registerTicker(address _owner, string _symbol, string _tokenName, bytes32 _swarmHash) public whenNotPaused {\n        require(bytes(_symbol).length > 0 && bytes(_symbol).length <= 10, \"Ticker length should always between 0 & 10\");\n        if(registrationFee > 0)\n            require(ERC20(getAddress(\"PolyToken\")).transferFrom(msg.sender, this, registrationFee), \"Failed transferFrom because of sufficent Allowance is not provided\");\n        string memory symbol = upper(_symbol);\n        require(expiryCheck(symbol), \"Ticker is already reserved\");\n        registeredSymbols[symbol] = SymbolDetails(_owner, now, _tokenName, _swarmHash, false);\n        emit LogRegisterTicker (_owner, symbol, _tokenName, _swarmHash, now);\n    }\n\n    /**\n     * @notice Change the expiry time for the token symbol\n     * @param _newExpiry new time period for token symbol expiry\n     */\n    function changeExpiryLimit(uint256 _newExpiry) public onlyOwner {\n        require(_newExpiry >= 1 days, \"Expiry should greater than or equal to 1 day\");\n        uint256 _oldExpiry = expiryLimit;\n        expiryLimit = _newExpiry;\n        emit LogChangeExpiryLimit(_oldExpiry, _newExpiry);\n    }\n\n    /**\n     * @notice Check the validity of the symbol\n     * @param _symbol token symbol\n     * @param _owner address of the owner\n     * @param _tokenName Name of the token\n     * @return bool\n     */\n    function checkValidity(string _symbol, address _owner, string _tokenName) public returns(bool) {\n        string memory symbol = upper(_symbol);\n        require(msg.sender == getAddress(\"SecurityTokenRegistry\"), \"msg.sender should be SecurityTokenRegistry contract\");\n        require(registeredSymbols[symbol].status != true, \"Symbol status should not equal to true\");\n        require(registeredSymbols[symbol].owner == _owner, \"Owner of the symbol should matched with the requested issuer address\");\n        require(registeredSymbols[symbol].timestamp.add(expiryLimit) >= now, \"Ticker should not be expired\");\n        registeredSymbols[symbol].tokenName = _tokenName;\n        registeredSymbols[symbol].status = true;\n        return true;\n    }\n\n    /**\n     * @notice Check the symbol is reserved or not\n     * @param _symbol Symbol of the token\n     * @param _owner Owner of the token\n     * @param _tokenName Name of the token\n     * @param _swarmHash off-chain hash\n     * @return bool\n     */\n     function isReserved(string _symbol, address _owner, string _tokenName, bytes32 _swarmHash) public returns(bool) {\n        string memory symbol = upper(_symbol);\n        require(msg.sender == getAddress(\"SecurityTokenRegistry\"), \"msg.sender should be SecurityTokenRegistry contract\");\n        if (registeredSymbols[symbol].owner == _owner && !expiryCheck(_symbol)) {\n            registeredSymbols[symbol].status = true;\n            return false;\n        }\n        else if (registeredSymbols[symbol].owner == address(0) || expiryCheck(symbol)) {\n            registeredSymbols[symbol] = SymbolDetails(_owner, now, _tokenName, _swarmHash, true);\n            emit LogRegisterTicker (_owner, symbol, _tokenName, _swarmHash, now);\n            return false;\n        } else\n            return true;\n     }\n\n    /**\n     * @notice Returns the owner and timestamp for a given symbol\n     * @param _symbol symbol\n     * @return address\n     * @return uint256\n     * @return string\n     * @return bytes32\n     * @return bool\n     */\n    function getDetails(string _symbol) public view returns (address, uint256, string, bytes32, bool) {\n        string memory symbol = upper(_symbol);\n        if (registeredSymbols[symbol].status == true||registeredSymbols[symbol].timestamp.add(expiryLimit) > now) {\n            return\n            (\n                registeredSymbols[symbol].owner,\n                registeredSymbols[symbol].timestamp,\n                registeredSymbols[symbol].tokenName,\n                registeredSymbols[symbol].swarmHash,\n                registeredSymbols[symbol].status\n            );\n        }else\n            return (address(0), uint256(0), \"\", bytes32(0), false);\n    }\n\n    /**\n     * @notice To re-initialize the token symbol details if symbol validity expires\n     * @param _symbol token symbol\n     * @return bool\n     */\n    function expiryCheck(string _symbol) internal returns(bool) {\n        if (registeredSymbols[_symbol].owner != address(0)) {\n            if (now > registeredSymbols[_symbol].timestamp.add(expiryLimit) && registeredSymbols[_symbol].status != true) {\n                registeredSymbols[_symbol] = SymbolDetails(address(0), uint256(0), \"\", bytes32(0), false);\n                return true;\n            }else\n                return false;\n        }\n        return true;\n    }\n\n    /**\n     * @notice set the ticker registration fee in POLY tokens\n     * @param _registrationFee registration fee in POLY tokens (base 18 decimals)\n     */\n    function changePolyRegisterationFee(uint256 _registrationFee) public onlyOwner {\n        require(registrationFee != _registrationFee);\n        emit LogChangePolyRegisterationFee(registrationFee, _registrationFee);\n        registrationFee = _registrationFee;\n    }\n}\n",
  "sourcePath": "/Users/Yihan/st/contracts/TickerRegistry.sol",
  "compiler": {
    "name": "solc",
    "version": "0.4.24+commit.e67f0147.Emscripten.clang"
  },
  "schemaVersion": "2.0.0",
  "updatedAt": "2018-07-09T19:49:16.660Z"
}